:10000000020003758120120245E582600302006F41
:10001000780079007A007B007C007D00EC4D601C4C
:1000200088828983E493A3A882A9838A828B83F040
:10003000A3AA82AB831CBCFFE31D80E07582007520
:1000400083007C007D00EC4D600AE4F0A31CBCFF43
:10005000F51D80F27582007583007C007D00EC4DFB
:10006000600AE4F0A31CBCFFF51D80F212007E12B2
:1000700001E180FE504F52542054455354002275E4
:10008000840075850075910075920075A40075A5B2
:100090000075B10075B200227852D8FE22AA82AB58
:1000A000837C007D00C3EC9AED9B50227E14C0023D
:1000B000C003C004C005C006120098D006D005D009
:1000C00004D003D002DEE70CBC00DA0D80D722D2C8
:1000D000A5120098C2A5228582E0A2E79294A2E62A
:1000E0009296A2E59297A2E492A0A2E392A1A2E244
:1000F00092A2A2E192A3A2E092A40200CFAA82D28D
:10010000A78A821200D790000202009DAA82C2A78D
:100110008A821200D790000502009DC2A5C2A69057
:10012000001412009D75823312010C758233120186
:100130000C75823312010C75823812010C75820C19
:1001400012010C75820112010C90001402009DAA8C
:1001500082AB83ACF07402B508047DC080027D8060
:100160008D82C002C003C00412010C900005120071
:100170009DD004D003D0027D00ED2AFEE43BFF8C2D
:10018000008E828F8388F0120229FE60188E82C052
:1001900002C003C004C0051200FDD005D004D00386
:1001A000D0020D80D43000148D02BA1000500D75AD
:1001B0008220C0021200FDD0020A80EE227A007B6B
:1001C00000C3EA9464EB6480948050147CE87D035F
:1001D0001CBCFF011DEC4D70F70ABA00E40B80E176
:1001E0002212007F12011B750801D2009000747565
:1001F000F08012014FC280C281C282C283C284C217
:1002000085C286C2B0C2B1C292C2931201BDD28071
:10021000D281D282D283D284D285D286D2B0D2B1D8
:10022000D292D2931201BD80CC20F71430F61488FC
:1002300083A88220F507E6A88375830022E280F771
:10024000E49322E0227582002200000000000000FA
:00000001FF
