:100000000200037581201201F9E582600302006F8E
:10001000780079007A007B007C007D00EC4D601C4C
:1000200088828983E493A3A882A9838A828B83F040
:10003000A3AA82AB831CBCFFE31D80E07582007520
:1000400083007C007D00EC4D600AE4F0A31CBCFF43
:10005000F51D80F27582007583007C007D00EC4DFB
:10006000600AE4F0A31CBCFFF51D80F212007812B8
:1000700001B780FE50574D002275840075850075CC
:10008000910075920075A40075A50075B10075B258
:1000900000227852D8FE22AA82AB837C007D00C366
:1000A000EC9AED9B50227E14C002C003C004C00530
:1000B000C006120092D006D005D004D003D002DED4
:1000C000E70CBC00DA0D80D722D2A5120092C2A59F
:1000D000228582E0A2E79294A2E69296A2E5929708
:1000E000A2E492A0A2E392A1A2E292A2A2E192A330
:1000F000A2E092A40200C9AA82D2A78A821200D1E9
:10010000900002020097AA82C2A78A821200D190B0
:100110000005020097C2A5C2A690001412009775B0
:100120008233120106758233120106758233120181
:100130000675823812010675820C1201067582015D
:10014000120106900014020097AA82AB83ACF074EF
:1001500002B508047DC080027D808D82C002C0038C
:10016000C004120106900005120097D004D003D0FD
:10017000027D00ED2AFEE43BFF8C008E828F838897
:10018000F01201DDFE60188E82C002C003C004C000
:10019000051200F7D005D004D003D0020D80D43072
:1001A00000148D02BA1000500D758220C00212009A
:1001B000F7D0020A80EE22120079120115750801AB
:1001C000D20090007475F080120149D28390000231
:1001D000120097C28390000212009780EE20F7145D
:1001E00030F6148883A88220F507E6A8837583007B
:1001F00022E280F7E49322E02275820022000000D0
:00000001FF
