:1000000002000E0000000000000000020292758154
:1000100081121AA6E582600302007A780079007ADC
:10002000007B007C007D00EC4D601C88828983E4AD
:1000300093A3A882A9838A828B83F0A3AA82AB832D
:100040001CBCFFE31D80E07582007583007C007D91
:1000500000EC4D600AE4F0A31CBCFFF51D80F275B6
:1000600082007583007C007D00EC4D600AE4F0A303
:100070001CBCFFF51D80F21200EC12049380FE4CB4
:100080003D25352E326620523A25352E3266004CFB
:100090004D3D256420524D3D2564004572726F72BE
:1000A0003A25352E3266204C6566743A25352E3257
:1000B000662052696768743A25352E3266204C6591
:1000C00066745F4D6F746F723A2564205269676879
:1000D000745F4D6F746F723A2564202020202020B9
:1000E000202020202020202020200D00E4F523F5D2
:1000F00024752500752600E4F52AF52BC200C201FF
:10010000D2022275841E7585007591007592007566
:10011000A40075A50075B10075B200227852D8FE12
:1001200022AA82AB837C007D00C3EC9AED9B502217
:100130007E14C002C003C004C005C00612011CD05A
:1001400006D005D004D003D002DEE70CBC00DA0DE7
:1001500080D722D2A512011CC2A5228582E0A2E787
:100160009294A2E69296A2E59297A2E492A0A2E3CC
:1001700092A1A2E292A2A2E192A3A2E092A4020121
:1001800053AA82D2A78A8212015B90000202012147
:10019000AA82C2A78A8212015B900005020121C2D5
:1001A000A5C2A69000141201217582331201907528
:1001B00082331201907582331201907582381201D8
:1001C0009075820C120190758201120190900014BA
:1001D000020121AA82AB83ACF07402B52C047DC06D
:1001E00080027D808D82C002C003C0041201909005
:1001F0000005120121D004D003D0027D00ED2AFEBB
:10020000E43BFF8C008E828F8388F0120B3BFE60F4
:10021000188E82C002C003C004C005120181D0053F
:10022000D004D003D0020D80D43003148D02BA1054
:1002300000500D758220C002120181D0020A80EEAA
:10024000227A2879FA78B8D8FED9FADAF62275BD7A
:100250000075BF0075BE3075BD037598527591006D
:100260007592002243841E5385E1D2C675A1207584
:10027000A3F0759705E59730E3FB22C28C74F05527
:10028000894401F589758CFE758A90D28CD2A9D2E9
:10029000AF22C0E0C0D075D000C28C758CFE758ACC
:1002A00090D28C0527E527249C5003752700C3E5D1
:1002B0002795289285C3E5279529928674012523E1
:1002C000F523E43524F5247410B523207427B524D0
:1002D0001BD200E4F523F5240525743CB5250D75E6
:1002E00025000526743CB5260375260030010B74E5
:1002F00001252AF52AE4352BF52BD0D0D0E032C2E7
:100300000085D782120CBAAA82AB83ACF0FDE4C0A0
:10031000E0C0E0747FC0E07443C0E08A828B838CCD
:10032000F0ED120E01AA82AB83ACF0FDE58124FC56
:10033000F581C002C003C004C00590333375F0538B
:100340007440120BEBAA82AB83ACF0FDE58124FC78
:10035000F58185D682C002C003C004C005120CBA64
:10036000AE82AF83A8F0F9E4C0E0C0E0747FC0E0E3
:100370007443C0E08E828F8388F0E9120E01AE8252
:10038000AF83A8F0F9E58124FCF581C006C007C061
:1003900000C00190333375F0537440120BEBAE8202
:1003A000AF83A8F0F9E58124FCF581C006C007C041
:1003B00000C001747FC0E07400C0E07480C0E074CD
:1003C0002DC0E07400C0E07440C0E0120DA3E581D0
:1003D00024F2F581752C01D20390002D75F04012A6
:1003E00001D3AA297B00AC287D00C002C003C00451
:1003F000C005748FC0E07400C0E07480C0E0742D4C
:10040000C0E07400C0E07440C0E0120DA3E5812498
:10041000F6F581752C02D20390002D75F040020193
:10042000D3E4F52AF52BD20175281475296474D00C
:10043000B52AF57407B52BF0C201E4F52AF52B2295
:10044000E4F52AF52BD20175286475291474D0B50A
:100450002AF57407B52BF0C201E4F52AF52B2275B5
:10046000280075290080F8AA82AB83BA0205BB0078
:10047000028010BA0305BB0002800BBA0414BB0053
:10048000118006120421120440100202800122028F
:10049000045F22E4F542F543F544F545E5D6E5D79A
:1004A000E5F5E4F55AF55BF55CF55D755E01E4F59F
:1004B0005F12010312019F12024E12026412027BAC
:1004C00075460075470075480075490085D682124B
:1004D0000CBAAE82AF83A8F0F9E4C0E0C0E0747F4C
:1004E000C0E07443C0E08E828F8388F0E9120E0171
:1004F000AE82AF83A8F0F9E58124FCF581C006C087
:1005000007C000C00190333375F0537440120BEBF9
:1005100085824A85834B85F04CF54DE58124FCF5B9
:100520008185D782120CBAAA82AB83ACF0FDE4C0FD
:10053000E0C0E0747FC0E07443C0E08A828B838CAB
:10054000F0ED120E01AA82AB83ACF0FDE58124FC34
:10055000F581C002C003C004C00590333375F05369
:100560007440120BEB85824E85834F85F050F55118
:10057000E58124FCF58185F582120CBAAA82AB8351
:10058000ACF0FDE4C0E0C0E0747FC0E07443C0E0C4
:100590008A828B838CF0ED120E01AA82AB83ACF0C1
:1005A000FDE58124FCF581C002C003C004C00590B4
:1005B000333375F0537440120BEB858252858353AD
:1005C00085F054F555E58124FCF581C04EC04FC03F
:1005D00050C051854A82854B83854CF0E54D120D04
:1005E000E985825685835785F058F559E58124FCC5
:1005F000F5813000031202FFC042C043C044C04531
:1006000090000075F0C87441120BEBAA82AB83AC6A
:10061000F0FDE58124FCF581C002C003C004C005E3
:10062000C046C047C048C04985428285438385444F
:10063000F0E545120DE9AE82AF83A8F0F9E581241B
:10064000FCF5818E828F8388F0E9120B87120C8E65
:10065000858211858312900005120C9D120DF4AE57
:1006600082AF83A8F0F9D005D004D003D002C00631
:10067000C007C000C0018A828B838CF0ED120CC5CC
:1006800085823E85833F85F040F541E58124FCF578
:1006900081749AC0E07499C0E07459C0E0743FC09E
:1006A000E0854A82854B83854CF0E54D120B57AEB1
:1006B00082E58124FCF581EE70030207467433C0A5
:1006C000E0C0E07493C0E0743FC0E0854A82854B8F
:1006D00083854CF0E54D120BBBAE82E58124FCF521
:1006E00081EE6062749AC0E07499C0E07459C0E011
:1006F000743FC0E0854E82854F838550F0E55112EE
:100700000B57AE82E58124FCF581EE60397433C06D
:10071000E0C0E07493C0E0743FC0E0854E82854F36
:10072000838550F0E551120BBBAE82E58124FCF5C8
:1007300081EE6012754200754300754400754500F6
:10074000752864752964C056C057C058C0599000B8
:1007500000E4F5F0743F120BBBAE82E58124FCF59A
:1007600081EE603C7542007543007544407545401C
:10077000C03EC03FC040C04190000075F0C8744208
:10078000120DE9AE82AF83A8F0F9E58124FCF58172
:100790008E828F8388F0E9120F2085822875296464
:1007A000E4C0E0C0E0C0E074BFC0E0855682855779
:1007B000838558F0E559120BBBAE82E58124FCF528
:1007C00081EE60447542007543007544407545C034
:1007D000752864E4C0E0C0E074C8C0E07442C0E0C2
:1007E000853E82853F838540F0E541120CC5AE828F
:1007F000AF83A8F0F9E58124FCF5818E828F838890
:10080000F0E9120F20858229C056C057C058C05940
:1008100090000075F080743F120BBBAE82E581241E
:10082000FCF581EE603C7542007543007544A0758F
:100830004540C03EC03FC040C04190000075F0C878
:100840007442120DE9AE82AF83A8F0F9E58124FC71
:10085000F5818E828F8388F0E9120F2085822875BA
:100860002964E4C0E0C0E07480C0E074BFC0E085EB
:1008700056828557838558F0E559120BBBAE82E549
:100880008124FCF581EE6044754200754300754497
:10089000A07545C0752864E4C0E0C0E074C8C0E03D
:1008A0007442C0E0853E82853F838540F0E5411279
:1008B0000CC5AE82AF83A8F0F9E58124FCF5818EEA
:1008C000828F8388F0E9120F2085822974CDC0E0E1
:1008D00074CCC0E0744CC0E0743FC0E0854A8285AF
:1008E0004B83854CF0E54D120BBBAE82E58124FCB9
:1008F000F581EE70030209CB74CDC0E074CCC0E08A
:10090000744CC0E0743FC0E0854E82854F838550B3
:10091000F0E551120BBBAE82E58124FCF581EE704F
:10092000030209CBE4C0E0C0E0C0E0C0E08546823D
:100930008547838548F0E549120B57AE82E581244F
:10094000FCF581EE60407542007543007544A0756A
:100950004540C006C03EC03FC040C0419000007549
:10096000F0C87442120DE9AF82A883A9F0FAE581BC
:1009700024FCF5818F82888389F0EA120F2085821A
:1009800028D006752964EE7042F542F5437544A0FF
:100990007545C0752864E4C0E0C0E074C8C0E07468
:1009A00042C0E0853E82853F838540F0E541120CE0
:1009B000C5AA82AB83ACF0FDE58124FCF5818A8277
:1009C0008B838CF0ED120F2085822985424685436A
:1009D00047854448854549AA297B00AC287D00C04D
:1009E00002C003C004C005C04EC04FC050C051C0BB
:1009F0004AC04BC04CC04DC042C043C044C0457407
:100A00009BC0E07400C0E07480C0E0120D33E5814B
:100A100024EDF5817401B55E06E4B55F02802674AD
:100A200002B55E06E4B55F02804D7403B55E07E46F
:100A3000B55F03020AD07404B55E07E4B55F030234
:100A40000B290204CCE4C0E0C0E07420C0E0744193
:100A5000C0E08552828553838554F0E555120BBB67
:100A6000AA82E58124FCF581EA60030204CC755E6C
:100A700002E4F55F0204CCC052C053C054C055908C
:100A80000000E4F5F0120BBBAA82E58124FCF5819D
:100A9000EA70030204CCE4C0E0C0E074A0C0E074DB
:100AA00040C0E08552828553838554F0E555120B92
:100AB000BBAA82E58124FCF581EA70030204CC051F
:100AC0005AE4B55A02055B755E03E4F55F0204CC97
:100AD000E4C0E0C0E0C0E0C0E08552828553838579
:100AE00054F0E555120B57AA82E58124FCF581EA02
:100AF000702EC37401955AE46480855BF063F080C6
:100B000095F0500E855A5C855B5D755E01E4F55F7E
:100B10008006755E04E4F55FE4F55AF55B0204CCEB
:100B2000755E01E4F55F0204CC855C82855D83120D
:100B30000467755E01E4F55F0204CC20F71430F61B
:100B4000148883A88220F507E6A88375830022E233
:100B500080F7E49322E022FFA8811818120F46D2F2
:100B6000D133E6400730E70B7582012220E7067596
:100B7000820022C2D1120F28E97003F5822230D1FF
:100B800001B3E433F58222120F71700AE5824583C6
:100B900045F0700122E430D112F4700BE5F0F470EE
:100BA00006E58330E7012290800022700AE5F070AC
:100BB00006E58320E70122907FFF22FFA881181815
:100BC000120F46D2D133E6400730E70B7582002280
:100BD00020E70675820122C2D1120F28E97003F5C1
:100BE000822220D101B3E433F5822212104EBC00E0
:100BF00003020FEDEF60FA30D502B2D1E583B4FF06
:100C000003021003E582B4FF0302100325834007AB
:100C10002482400B020FED2483145003021003F5CD
:100C200082EA8DF0A4A8F0EA8EF0A428F8E435F06A
:100C3000F9EB8DF0A428E935F0F9E433CA8FF0A47C
:100C400029F9EA35F0FAEBF88EF0A429F9EA35F043
:100C5000FAE433FBEC8DF0A429F9EA35F0FAE43B31
:100C6000FBE88FF0A42AFAEB35F0FBE433CCFD8EE1
:100C7000F0A42AFAEB35F0FBE43CFCED8FF0A42B5A
:100C8000FBEC35F0FC20E70312101B020FCCE583D0
:100C900030E709F4F583E582F4F582A322E5828545
:100CA00011F0A4C582C0F08512F0A4D0F025F0C5E3
:100CB000838511F0A42583F58322E4AC82FBFAF945
:100CC000748602108512104E7900E583B582028089
:100CD0000D500312108FE583C395821210A9E5D041
:100CE000C465D020E117EA2DFAEB3EFBEC3FFC5047
:100CF0000974011210A9EC4480FC020FCCC3EA9DD8
:100D0000FAEB9EFBEC9FFC500FC3E499F9E49AFACE
:100D1000E49BFBE49CFCB2D112101B020FCC021A24
:100D20007885826E85836F85F070851071900D1EB9
:100D30000214CBC008858108E50824FBF571E5089D
:100D400024FBF8866E08866F088670900D1E1214BC
:100D5000CBD00822AA82AB09AC0AAD0B8B828C8364
:100D60008DF0EA121A8D0509E4B50902050A2285FB
:100D7000820985830A85F00B850C6E850D6F850EC3
:100D800070850F71900D541214CBAA82AB83AC09FD
:100D9000AD0AAE0B8C828D838EF0E4121A8D8A829E
:100DA0008B8322C008858108E50824F8F571E508E1
:100DB00024FBF8860908860A08860BE50824F8F85B
:100DC000866E08866F088670900D541214CBAA8226
:100DD000AB83AC09AD0AAE0B8C828D838EF0E4122E
:100DE0001A8D8A828B83D00822A8811818C6B2E790
:100DF000C6020CC5AC83AB827A007900748E021AED
:100E0000B312104E30D502B2D1BF0009BC000302AC
:100E10001010021003BC0003020FEDE583B4FF0BBA
:100E2000E582B4FF03021010020FEDE582B4FF0368
:100E3000021003C395835007247F400B020FED245B
:100E400080145003021003C0E0E4CCCBCAF98D112A
:100E50008E128F13EF54F0C4F5147583068514F0C9
:100E6000EB84F582E9C4F9EAC4FAEBC4FBEC540F55
:100E7000C47803D6FC18EBD6FB18EAD6FA8582F0C4
:100E8000EDA4A8F0FD8582F0EEA428FEE435F0F88C
:100E90008582F0EFA428FFE435F0F8E99DF9EA9E99
:100EA000FAEB9FFBEC98FCAD11AE12AF1330E710DC
:100EB0001582E92DF9EA3EFAEB3FFBE43CFC80EDBC
:100EC000C082D58398C3E933F9EA33FAEB33FBECFC
:100ED00033FCC3E99DEA9EEB9FEC9400B3E413F965
:100EE000D002D0E0C44AFAD003D0E0C44BFBD00417
:100EF000D0E0F5F0540FC44CFCD082158230F40FD2
:100F0000D3EC13FCEB13FBEA13FAE913F90582E9BE
:100F100030E70A74012AFAE43BFBE43CFC020FE4EC
:100F20007F86121AD9F582227901AA82E68F82B5CC
:100F3000821318E6B5F00E18E6B5830918E68A8222
:100F4000B58202790022B4800FE5F0700AE5837063
:100F500006E58270027F00EFB6801518B600101803
:100F6000B6000B18B6000608080876002208080824
:100F700022121AFEC3749E9582403979001210A97C
:100F800030D126E9F42401F582EAF43400F583EB4C
:100F9000F43400F5F0ECF43400700AE58245834542
:100FA000F0700122E430E70F22EC20E71489828AF6
:100FB000838BF02230D10AE4F582F583F5F074805A
:100FC0002274FFF582F583F5F0747F22B98003EA7D
:100FD00013B34010EA2401FAE43BFBE43CFC500468
:100FE0007C800582BC000EBB000BBA0008E4F5F063
:100FF000F583F58222A2D1E582138CF092F78B83E0
:101000008A8222E4F583F58275F080F4A2D113225E
:10101000E4F583F58275F0C0747F227804EC7011DA
:10102000E58224F8500AF582E4C9CACBFCD8EF2245
:10103000EC7820058220E713D5820122C3E933F939
:10104000EA33FAEB33FBEC33FCD8EA158222AA82AE
:10105000AB83A2F73392D16002D2F7F582ACF0E510
:101060008124F9F8E6FD08E6FE0886F008E6A2F716
:101070003392D56002D2F7F583AFF022FCABF0AA31
:1010800083A982749EC2D1F58212101B020FCCE597
:1010900082C583F582A2D133A2D592D11392D5EC29
:1010A000CFFCEBCEFBEACDFA226040F8258250025D
:1010B00074FFF582E824F8501ECCCBCAF9E4CC24A6
:1010C000F85014CBCAF9E4CB24F8500BCAF9E4CA9F
:1010D00024F8500379002224086010F8C3EC13FCB4
:1010E000EB13FBEA13FAE913F9D8F122AA8274FD93
:1010F000C0E07410C0E0C060C0618A82220567E46D
:10110000B56702056822AA8274302AFA24C6500AFA
:1011100074072AFA3004034302208A820210ECE5A5
:1011200082FAC4540FF582C002121106D002740F65
:101130005AF582021106AA62AB63AC64AD65AE6675
:10114000756D20EE2EFEED235401FF4206EA2AFAC9
:10115000EB33FBEC33FCED33FDC3EE95694008EE59
:10116000C39569FE430201D56DD98A628B638C6495
:101170008D658E6622787EE624D075F00AA4FA7812
:101180007FE624D02AFA787D8603BB2D04C3E49A37
:10119000FA756901C3E464808AF063F08095F050C9
:1011A00029756D038A0374F6256D401C0569E56D8C
:1011B000142472F8E56D2472F98704A604772E1BB7
:1011C000EBFA6004056D80DE8B02EA30E70D787380
:1011D00086037874A6037873762E0AE56B600AE5B9
:1011E0006B04FB2569F5698005300F02056978728B
:1011F0008603E4BB2D0104FB7006200A03300B02BA
:1012000005693008030212BC300957EB600C758287
:101210002DC0021210ECD002801C300A0C75822BFB
:10122000C0021210ECD002800D300B0A758220C073
:10123000021210ECD00278738604BC2E0C7582303A
:10124000C0021210ECD002156AAC6A156AC3E569D7
:101250009C4003021300758230C0021210ECD002D1
:1012600080E7AC6A156AC3E5699C500C758220C0A2
:10127000021210ECD00280EA78728604BC2D0C7544
:10128000822DC0021210ECD002801C300A0C758234
:101290002BC0021210ECD002800D300B0A75822098
:1012A000C0021210ECD00278738604BC2E527582F4
:1012B00030C0021210ECD002156A8044EB600E754B
:1012C000822DC0021210ECD002156A8020300A0E66
:1012D00075822BC0021210ECD002156A800F300B01
:1012E0000C758220C0021210ECD002156A78738649
:1012F00003BB2E0C758230C0021210ECD002156AAE
:10130000756D01C211E56D2472F88603BB450302B9
:1013100013BDBB2E348A03C3E464808BF063F0807A
:1013200095F0500F758230C0031210ECD0031B8B68
:101330000280E48B02D211E56B7038200F03021398
:10134000BD75822E1210EC80743011278A03EB30A9
:10135000E71FC3E46480856BF063F08095F0500C68
:10136000758230C0031210ECD003156B0B8B02801A
:10137000DD8B0230110EC3E46480856BF063F08076
:1013800095F05021E56D2472F886038B82C002121D
:1013900010ECD00230110EE56D2472F88603BB2EDE
:1013A000028002156B156AC3E46480856BF063F0FC
:1013B0008095F04003201105056D021305C3E46418
:1013C00080856BF063F08095F0500A7582301210C2
:1013D000EC156B80E830080FAA6A156AEA60087598
:1013E00082201210EC80F122E56B7003300F0D7437
:1013F00007256BFAE56AC39AF56A8006E56A24FA5E
:10140000F56A756D0078728602BA2B0F200A0C7887
:10141000727620200B05756D01056A200819AA6AED
:10142000C3E464808AF063F08095F0500A758220EE
:101430001210EC156A80E7C211E56D2472F886027D
:10144000BA00028069BA451F3004027665C3E464BD
:1014500080856BF063F08095F0500A758230121031
:10146000EC156B80E8D211C3E56D9402E433FA7099
:1014700014EA700EC3E46480856BF063F08095F02D
:101480004003301116E56D2472F886028A8212102C
:10149000ECE56D24FD5012156B800E7402B56D09DC
:1014A000300F0675822E1210EC056D0214393008CB
:1014B00019AA6AC3E464808AF063F08095F0500A48
:1014C0007582201210EC156A80E722858260858380
:1014D00061E4F567F568AA6EAB6FAC708A828B83A6
:1014E0008CF0120B3BFD74012AF56EE43BF56F8C1A
:1014F00070EDFA7003021A71BA25028003021A69AC
:10150000C208C209C20AC20BC20CC20DC20EC20F6F
:10151000C205C206C207756900756A00756BFFAB2C
:101520006EAC6FAD708B828C838DF0120B3BFAA387
:10153000AB82AC838B6E8C6F8D70BA25078A82125A
:1015400010EC80928A06BE3000402E8A06EE24C639
:10155000402774FFB56B13E56A75F00AA4FEEA2410
:10156000D02EF56A70BFD20980BBE56B75F00AA476
:10157000FEEA24D02EF56B80ACBA2E0A74FFB56B50
:10158000A4756B00809F8A06BE6100400E8A06EE3D
:10159000248540075302DFD2048002C204BA20022D
:1015A0008075BA2303021626BA2A0302162BBA2B19
:1015B00002805FBA2D028055BA4202805FBA4303AF
:1015C000021670BA44030217ABBA45030217C5BA34
:1015D00046030217C1BA47030217C9BA49030217E3
:1015E000ABBA4C02803BBA4E030217CDBA4F03028E
:1015F00017B2BA5003021744BA5303021694BA55ED
:10160000030217B7BA58030217BC0217F7D2080231
:101610001525D20A021525D20B021525D20D021569
:1016200025D20E021525D20F02152574FFB56B20A9
:10163000300D0BE57114F88871866A021525E57185
:1016400024FEF888718606088607188E6A0215251A
:10165000300D0BE57114F88871866B021525E57164
:1016600024FEF888718606088607188E6B021525F9
:10167000300D0AE57114F888718602800FE5712437
:10168000FEF888718603088604188B028A8212107D
:10169000EC0217FCE57124FDF888718603088604C6
:1016A00008860518188B628C638D648B828C838D01
:1016B000F0121C2FAB82AC838B6C74FFB56B03856F
:1016C0006C6B20081DC3E56C956A5016E56AC395DE
:1016D0006CF56AAB6A156AEB60087582201210EC33
:1016E00080F18562828563838564F0120B3BFBFA8F
:1016F0006029AB6B156BC3E464808BF063F080955D
:10170000F050188A821210ECAB62AC63AD640BBB74
:1017100000010C8B628C638D6480C7200803021764
:10172000FCC3E56C956A40030217FCE56AC3956C3F
:10173000F56AAB6A156AEB70030217FC758220121A
:1017400010EC80EEE57124FDF888718603088604AC
:1017500008860518188B628C638D64E564FB30E79E
:10176000047A438013EB546060047A50800AEB30B3
:10177000E6047A4980027A588A82C0021210EC7517
:10178000823A1210EC7582301210EC7582781210C9
:10179000ECD002BA4902800BBA50028006856382FF
:1017A00012111F85628212111F8051D20C75690AB5
:1017B000804A756908804575690A8040756910809E
:1017C0003BD2058037D2068033D207802FE57124C3
:1017D000FDF88871860308860408860518188B6250
:1017E0008C638D648B828C838DF0E567121A8DA3D8
:1017F000E568121A8D80058A821210EC20050620F9
:101800000603300770E57124FCF8887186030886AA
:10181000040886050886061818188B628C638D6488
:101820008E65E562E563E564E5658B828C838DF00A
:10183000EE121B1074FFB56B03756B06300727742F
:101840007F5565FB8B66E566EB2BFB8B66E56430AD
:10185000E70674014566F566E566246840067499F6
:1018600025664002D2063006061213E80214D6128C
:1018700011750214D6E56970030214D67B77300D1A
:101880002BE57114F88871E6FC3395E0FDFEFF8CC2
:10189000628D638E648F65200C5EAC627D007E007D
:1018A0007F008C628D638E648F65804C300E1FE5E7
:1018B0007124FCF888718604088605088606088667
:1018C000071818188C628D638E648F65802AE57105
:1018D00024FEF88871860408860518ED3395E0FE2D
:1018E000FF8C628D638E648F65200C0CAC62AD63DF
:1018F0007E007F008E648F65300F43E5624563454F
:1019000064456560397408B5690C758230C003128E
:1019100010ECD00380287410B56923758230C003A1
:101920001210ECD00330040C758278C0031210EC56
:10193000D003800A758258C0031210ECD003300C1B
:1019400025AC62AD63AE64E565FF30E717C3E49C88
:10195000FCE49DFDE49EFEE49FFF8C628D638E643B
:101960008F658002C20C756C00D2108B007566000A
:10197000C000121136D00020100DE566C4FCE6FD53
:101980004CF61888038002A666056CB210E5624525
:10199000634564456570D68803E56A7003756A011E
:1019A00020091A200817E56C04FCC3956A500E75CF
:1019B0008220C0031210ECD003156A80E9300C0EAF
:1019C00075822DC0031210ECD003156A8024E56CDB
:1019D0006020300A0E75822BC0031210ECD0031564
:1019E0006A800F300B0C758220C0031210ECD003FC
:1019F000156A20081EAC6A156AC3E56C9C50273036
:101A000009047C3080027C208C82C0031210ECD050
:101A10000380E2C3E56C956A5009E56AC3956CF5ED
:101A20006A8003756A008B00AB6C156CEB6022B2A8
:101A30001020100A08E6C4540FFB8B66800786034B
:101A4000740F5BF566856682C000121106D00080B7
:101A5000D72008030214D6AB6A156AEB7003021490
:101A6000D67582201210EC80EE8A821210EC0214DD
:101A7000D685678285688322AA82BA0A08109902ED
:101A800080FB75990D10990280FB8A992220F7102E
:101A900030F6118883A88220F507F6A883758300A5
:101AA00022F280F7F02275820022FCABF0AA83A913
:101AB00082749EF582C2D1EC30E716D2D1E9F424CB
:101AC00001F9EAF43400FAEBF43400FBECF43400EE
:101AD000FC12101B020FCC7F9E121AFE30D10302A3
:101AE0000FEDC3EF9582500974FFF5F0F583F58291
:101AF0002279001210A989828A838BF0EC22AA82B3
:101B0000AB83A2F73392D16002D2F7F582ACF02218
:101B1000C0E0F84582458345F07009F5F0FBFCFD17
:101B2000FE021BDEE823A2F792E0F8A982AA83D284
:101B3000F7ABF07C007E07C3749798404074FF2E8B
:101B4000FE740A89F0A4F985F082740A8AF0A4FA76
:101B500085F083740A8BF0A4FB740529F9EA3582B9
:101B6000FAEB3583FB740035F0FCC3EC13FCEB138C
:101B7000FBEA13FAE913F908EC70EF80BAE8C394B2
:101B80007FF88B838EF0E4FBFCFDFEFF08C3E93396
:101B9000F9EA33FAE58333F583EB3BD4FBEC3CD431
:101BA000FCED3DD4FDEE3ED4FEEF3FD4FF602D05AD
:101BB000F074052BD4FBE43CD4FCE43DD4FDE43EBE
:101BC000D4FEE43FD4FF758204C3EF13FFEE13FE8F
:101BD000ED13FDEC13FCEB13FBD582EDD8AF78725F
:101BE000D0E020E704762B8002762D087906E7C442
:101BF000540F4430F608B90603762E08E7540F4414
:101C000030F60819B902E7764508E5F020E70476D2
:101C10002B8004762DF4040875F00A844430F6080D
:101C2000E5F04430F608E4F690007275F04022AA20
:101C300082AB83ACF07D007E008A828B838CF012B5
:101C40000B3BFFA3AA82AB83EF60070DBD00EA0E3A
:101C500080E78D828E8322000000000000000000DB
:00000001FF
