:100000000200037581691210A9E582600302006F86
:10001000780079007A007B007C007D00EC4D601C4C
:1000200088828983E493A3A882A9838A828B83F040
:10003000A3AA82AB831CBCFFE31D80E07582007520
:1000400083007C007D00EC4D600AE4F0A31CBCFF43
:10005000F51D80F27582007583007C007D00EC4DFB
:10006000600AE4F0A31CBCFFF51D80F212009A1296
:10007000034B80FE56303A2025342E326656005609
:10008000313A2025342E326656000D0A4144432071
:1000900076616C7565733A0D0A002275841E75854C
:1000A0000075910075920075A40075A50075B100EA
:1000B00075B200227852D8FE22AA82AB837C007DE2
:1000C00000C3EC9AED9B50227E14C002C003C00412
:1000D000C005C0061200B4D006D005D004D003D0AD
:1000E00002DEE70CBC00DA0D80D722D2A51200B4E4
:1000F000C2A5228582E0A2E79294A2E69296A2E5AA
:100100009297A2E492A0A2E392A1A2E292A2A2E11B
:1001100092A3A2E092A40200EBAA82D2A78A821242
:1001200000F39000020200B9AA82C2A78A821200DC
:10013000F39000050200B9C2A5C2A69000141200F7
:10014000B975823312012875823312012875823302
:1001500012012875823812012875820C1201287547
:1001600082011201289000140200B9AA82AB83AC6C
:10017000F07402B522047DC080027D808D82C002B1
:10018000C003C0041201289000051200B9D004D0A9
:1001900003D0027D00ED2AFEE43BFF8C008E828FAF
:1001A0008388F0120378FE60188E82C002C003C0FC
:1001B00004C005120119D005D004D003D0020D806F
:1001C000D43000148D02BA1000500D758220C00288
:1001D000120119D0020A80EE2275237375246F75FF
:1001E000256D752665752774752868752969752AC2
:1001F0006E752B67752C00752202D2009000237556
:10020000F04012016B80D27A2879FA78B8D8FED9FA
:10021000FADAF62275BD0075BF0075BE3075BD03F4
:1002200075985275910075920022D2C675A12075FD
:10023000A3F0759705E59730E3FB2285D58212047C
:1002400037AA82AB83ACF0FDC002C003C004C00576
:1002500090333375F0537440120394AA82AB83AC8D
:10026000F0FDE58124FCF581E4C0E0C0E0747FC0CE
:10027000E07443C0E08A828B838CF0ED12050DAAF6
:1002800082AB83ACF0FDE58124FCF581C002C003A4
:10029000C004C0057474C0E07400C0E07480C0E0A5
:1002A0007437C0E07400C0E07440C0E01204C7E5D9
:1002B0008124F6F581752201D20090003775F04057
:1002C00012016B85D682120437AA82AB83ACF0FD93
:1002D000C002C003C004C00590333375F0537440AE
:1002E000120394AA82AB83ACF0FDE58124FCF58176
:1002F000E4C0E0C0E0747FC0E07443C0E08A828B59
:10030000838CF0ED12050DAA82AB83ACF0FDE58184
:1003100024FCF581C002C003C004C005747FC0E0A6
:100320007400C0E07480C0E07437C0E07400C0E0C6
:100330007440C0E01204C7E58124F6F581752202FD
:10034000D20090003775F04002016B12009B120141
:100350003712021412022A748AC0E07400C0E074DA
:1003600080C0E0120457158115811581D286D2878D
:1003700012023B12020780F820F71430F61488832B
:10038000A88220F507E6A88375830022E280F7E4BF
:100390009322E0221206AEBC000302064DEF60FA83
:1003A00030D502B2D1E583B4FF03020663E582B41F
:1003B000FF03020663258340072482400B02064D9B
:1003C0002483145003020663F582EA8DF0A4A8F09A
:1003D000EA8EF0A428F8E435F0F9EB8DF0A428E9D2
:1003E00035F0F9E433CA8FF0A429F9EA35F0FAEBD5
:1003F000F88EF0A429F9EA35F0FAE433FBEC8DF03D
:10040000A429F9EA35F0FAE43BFBE88FF0A42AFAD4
:10041000EB35F0FBE433CCFD8EF0A42AFAEB35F09B
:10042000FBE43CFCED8FF0A42BFBEC35F0FC20E76B
:100430000312067B02062CE4AC82FBFAF9748602F6
:1004400006E502107B85825685835785F058851016
:1004500059900442020ACEC008858108E50824FBB1
:10046000F559E50824FBF886560886570886589003
:100470000442120ACED00822AA82AB09AC0AAD0B04
:100480008B828C838DF0EA1210900509E4B5090285
:10049000050A2285820985830A85F00B850C56851D
:1004A0000D57850E58850F59900478120ACEAA82EE
:1004B000AB83AC09AD0AAE0B8C828D838EF0E41257
:1004C00010908A828B8322C008858108E50824F871
:1004D000F559E50824FBF8860908860A08860BE525
:1004E0000824F8F88656088657088658900478122B
:1004F0000ACEAA82AB83AC09AD0AAE0B8C828D8387
:100500008EF0E41210908A828B83D008221206AEFD
:1005100030D502B2D1BF0009BC000302067002064A
:1005200063BC000302064DE583B4FF0BE582B4FF14
:100530000302067002064DE582B4FF03020663C3A0
:1005400095835007247F400B02064D2480145003EE
:10055000020663C0E0E4CCCBCAF98D118E128F1372
:10056000EF54F0C4F5147583068514F0EB84F5821E
:10057000E9C4F9EAC4FAEBC4FBEC540FC47803D61F
:10058000FC18EBD6FB18EAD6FA8582F0EDA4A8F0A9
:10059000FD8582F0EEA428FEE435F0F88582F0EFC8
:1005A000A428FFE435F0F8E99DF9EA9EFAEB9FFBF9
:1005B000EC98FCAD11AE12AF1330E7101582E92DA7
:1005C000F9EA3EFAEB3FFBE43CFC80EDC082D583C8
:1005D00098C3E933F9EA33FAEB33FBEC33FCC3E9B4
:1005E0009DEA9EEB9FEC9400B3E413F9D002D0E0B7
:1005F000C44AFAD003D0E0C44BFBD004D0E0F5F0FD
:10060000540FC44CFCD082158230F40FD3EC13FC91
:10061000EB13FBEA13FAE913F90582E930E70A74F0
:10062000012AFAE43BFBE43CFC020644B98003EAFD
:1006300013B34010EA2401FAE43BFBE43CFC500411
:100640007C800582BC000EBB000BBA0008E4F5F00C
:10065000F583F58222A2D1E582138CF092F78B8389
:100660008A8222E4F583F58275F080F4A2D1132208
:10067000E4F583F58275F0C0747F227804EC701184
:10068000E58224F8500AF582E4C9CACBFCD8EF22EF
:10069000EC7820058220E713D5820122C3E933F9E3
:1006A000EA33FAEB33FBEC33FCD8EA158222AA8258
:1006B000AB83A2F73392D16002D2F7F582ACF0E5BA
:1006C0008124F9F8E6FD08E6FE0886F008E6A2F7C0
:1006D0003392D56002D2F7F583AFF022FCABF0AADB
:1006E00083A982749EC2D1F58212067B02062CAACF
:1006F000827400C0E07407C0E0C048C0498A82220A
:10070000054FE4B54F02055022AA8274302AFA241C
:10071000C6500A74072AFA3001034302208A820273
:1007200006EFE582FAC4540FF582C002120709D021
:1007300002740F5AF582020709AA4AAB4BAC4CADC2
:100740004DAE4E755520EE2EFEED235401FF4206B0
:10075000EA2AFAEB33FBEC33FCED33FDC3EE9551A3
:100760004008EEC39551FE430201D555D98A4A8B04
:100770004B8C4C8D4D8E4E227866E624D075F00A57
:10078000A4FA7867E624D02AFA78658603BB2D049C
:10079000C3E49AFA755101C3E464808AF063F0807F
:1007A00095F050297555038A0374F62555401C05AC
:1007B00051E55514245AF8E555245AF98704A6043E
:1007C000772E1BEBFA6004055580DE8B02EA30E7DA
:1007D0000D785B8603785CA603785B762E0AE5537A
:1007E000600AE55304FB2551F5518005300C0205E4
:1007F00051785A8603E4BB2D0104FB7006200703E1
:1008000030080205513005030208BF300657EB607F
:100810000C75822DC0021206EFD002801C30070C2E
:1008200075822BC0021206EFD002800D30080A75C7
:100830008220C0021206EFD002785B8604BC2E0C28
:10084000758230C0021206EFD0021552AC5215521A
:10085000C3E5519C4003020903758230C0021206B1
:10086000EFD00280E7AC521552C3E5519C500C7595
:100870008220C0021206EFD00280EA785A8604BCB9
:100880002D0C75822DC0021206EFD002801C30079D
:100890000C75822BC0021206EFD002800D30080AC0
:1008A000758220C0021206EFD002785B8604BC2E4F
:1008B00052758230C0021206EFD00215528044EB0E
:1008C000600E75822DC0021206EFD00215528020F4
:1008D00030070E75822BC0021206EFD0021552802F
:1008E0000F30080C758220C0021206EFD00215529C
:1008F000785B8603BB2E0C758230C0021206EFD0E7
:10090000021552755501C20EE555245AF88603BBEF
:1009100045030209C0BB2E348A03C3E464808BF014
:1009200063F08095F0500F758230C0031206EFD04F
:10093000031B8B0280E48B02D20EE5537038200C2F
:10094000030209C075822E1206EF8074300E278ACA
:1009500003EB30E71FC3E464808553F063F08095B8
:10096000F0500C758230C0031206EFD00315530B04
:100970008B0280DD8B02300E0EC3E464808553F061
:1009800063F08095F05021E555245AF886038B8258
:10099000C0021206EFD002300E0EE555245AF8863A
:1009A00003BB2E02800215531552C3E464808553A5
:1009B000F063F08095F04003200E0505550209080C
:1009C000C3E464808553F063F08095F0500A75822B
:1009D000301206EF155380E830050FAA521552EA7F
:1009E00060087582201206EF80F122E55370033013
:1009F0000C0D74072553FAE552C39AF5528006E5AB
:100A00005224FAF552755500785A8602BA2B0F20F7
:100A1000070C785A762020080575550105522005E7
:100A200019AA52C3E464808AF063F08095F0500AFA
:100A30007582201206EF155280E7C20EE555245A42
:100A4000F88602BA00028069BA451F300102766555
:100A5000C3E464808553F063F08095F0500A75829A
:100A6000301206EF155380E8D20EC3E5559402E428
:100A700033FA7014EA700EC3E464808553F063F0B7
:100A80008095F04003300E16E555245AF886028A08
:100A9000821206EFE55524FD50121553800E7402A4
:100AA000B55509300C0675822E1206EF0555020A5F
:100AB0003C300519AA52C3E464808AF063F0809543
:100AC000F0500A7582201206EF155280E7228582C7
:100AD00048858349E4F54FF550AA56AB57AC588A80
:100AE000828B838CF0120378FD74012AF556E43B67
:100AF000F5578C58EDFA7003021074BA2502800382
:100B000002106CC205C206C207C208C209C20AC2EC
:100B10000BC20CC202C203C20475510075520075AB
:100B200053FFAB56AC57AD588B828C838DF01203BC
:100B300078FAA3AB82AC838B568C578D58BA2507B5
:100B40008A821206EF80928A06BE3000402E8A0604
:100B5000EE24C6402774FFB55313E55275F00AA47E
:100B6000FEEA24D02EF55270BFD20680BBE5537545
:100B7000F00AA4FEEA24D02EF55380ACBA2E0A74F3
:100B8000FFB553A4755300809F8A06BE6100400ED6
:100B90008A06EE248540075302DFD2018002C2019B
:100BA000BA20028075BA2303020C29BA2A03020C68
:100BB0002EBA2B02805FBA2D028055BA4202805FA6
:100BC000BA4303020C73BA4403020DAEBA450302E2
:100BD0000DC8BA4603020DC4BA4703020DCCBA4988
:100BE00003020DAEBA4C02803BBA4E03020DD0BADE
:100BF0004F03020DB5BA5003020D47BA5303020C5E
:100C000097BA5503020DBABA5803020DBF020DFA86
:100C1000D205020B28D207020B28D208020B28D2D9
:100C20000A020B28D20B020B28D20C020B2874FFED
:100C3000B55320300A0BE55914F888598652020B37
:100C400028E55924FEF888598606088607188E522A
:100C5000020B28300A0BE55914F888598653020B09
:100C600028E55924FEF888598606088607188E5309
:100C7000020B28300A0AE55914F888598602800FB9
:100C8000E55924FEF888598603088604188B028AE1
:100C9000821206EF020DFFE55924FDF888598603FC
:100CA00008860408860518188B4A8C4B8D4C8B825D
:100CB0008C838DF01211CCAB82AC838B5474FFB556
:100CC000530385545320051DC3E55495525016E532
:100CD00052C39554F552AB521552EB600875822001
:100CE0001206EF80F1854A82854B83854CF0120312
:100CF00078FBFA6029AB531553C3E464808BF0632F
:100D0000F08095F050188A821206EFAB4AAC4BADDA
:100D10004C0BBB00010C8B4A8C4B8D4C80C72005C3
:100D200003020DFFC3E55495524003020DFFE55247
:100D3000C39554F552AB521552EB7003020DFF757B
:100D400082201206EF80EEE55924FDF888598603CB
:100D500008860408860518188B4A8C4B8D4CE54C88
:100D6000FB30E7047A438013EB546060047A5080D0
:100D70000AEB30E6047A4980027A588A82C002126D
:100D800006EF75823A1206EF7582301206EF758211
:100D9000781206EFD002BA4902800BBA50028006E0
:100DA000854B82120722854A821207228051D2097E
:100DB00075510A804A755108804575510A80407501
:100DC0005110803BD2028037D2038033D204802F6F
:100DD000E55924FDF8885986030886040886051815
:100DE000188B4A8C4B8D4C8B828C838DF0E54F1287
:100DF0001090A3E55012109080058A821206EF2011
:100E00000206200303300470E55924FCF888598653
:100E1000030886040886050886061818188B4A8C6D
:100E20004B8D4C8E4DE54AE54BE54CE54D8B828C68
:100E3000838DF0EE1210AD74FFB553037553063079
:100E40000427747F554DFB8B4EE54EEB2BFB8B4EF1
:100E5000E54C30E7067401454EF54EE54E246840FA
:100E6000067499254E4002D2033003061209EB02A4
:100E70000AD9120778020AD9E5517003020AD97B10
:100E80005F300A2BE55914F88859E6FC3395E0FDEC
:100E9000FEFF8C4A8D4B8E4C8F4D20095EAC4A7DF7
:100EA000007E007F008C4A8D4B8E4C8F4D804C30E5
:100EB0000B1FE55924FCF888598604088605088626
:100EC000060886071818188C4A8D4B8E4C8F4D805B
:100ED0002AE55924FEF88859860408860518ED335A
:100EE00095E0FEFF8C4A8D4B8E4C8F4D20090CAC4B
:100EF0004AAD4B7E007F008E4C8F4D300C43E54A4F
:100F0000454B454C454D60397408B5510C758230E0
:100F1000C0031206EFD00380287410B551237582E8
:100F200030C0031206EFD00330010C758278C00385
:100F30001206EFD003800A758258C0031206EFD064
:100F400003300925AC4AAD4BAE4CE54DFF30E717F9
:100F5000C3E49CFCE49DFDE49EFEE49FFF8C4A8D6F
:100F60004B8E4C8F4D8002C209755400D20D8B0000
:100F7000754E00C000120739D000200D0DE54EC49B
:100F8000FCE6FD4CF61888038002A64E0554B20D0F
:100F9000E54A454B454C454D70D68803E5527003F4
:100FA00075520120061A200517E55404FCC395521A
:100FB000500E758220C0031206EFD003155280E94F
:100FC00030090E75822DC0031206EFD00315528032
:100FD00024E554602030070E75822BC0031206EF03
:100FE000D0031552800F30080C758220C003120602
:100FF000EFD003155220051EAC521552C3E5549C88
:1010000050273006047C3080027C208C82C0031282
:1010100006EFD00380E2C3E55495525009E552C370
:101020009554F55280037552008B00AB541554EB68
:101030006022B20D200D0A08E6C4540FFB8B4E80CF
:10104000078603740F5BF54E854E82C000120709B8
:10105000D00080D7200503020AD9AB521552EB709D
:1010600003020AD97582201206EF80EE8A821206E8
:10107000EF020AD9854F8285508322AA82BA0A08D4
:1010800010990280FB75990D10990280FB8A9922B4
:1010900020F71030F6118883A88220F507F6A88380
:1010A00075830022F280F7F02275820022C0E0F8FA
:1010B0004582458345F07009F5F0FBFCFDFE021109
:1010C0007BE823A2F792E0F8A982AA83D2F7ABF0DB
:1010D0007C007E07C3749798404074FF2EFE740A0C
:1010E00089F0A4F985F082740A8AF0A4FA85F08365
:1010F000740A8BF0A4FB740529F9EA3582FAEB3502
:1011000083FB740035F0FCC3EC13FCEB13FBEA1318
:10111000FAE913F908EC70EF80BAE8C3947FF88B12
:10112000838EF0E4FBFCFDFEFF08C3E933F9EA33EC
:10113000FAE58333F583EB3BD4FBEC3CD4FCED3D8B
:10114000D4FDEE3ED4FEEF3FD4FF602D05F07405D4
:101150002BD4FBE43CD4FCE43DD4FDE43ED4FEE4DB
:101160003FD4FF758204C3EF13FFEE13FEED13FDB2
:10117000EC13FCEB13FBD582EDD8AF785AD0E0200E
:10118000E704762B8002762D087906E7C4540F44D5
:1011900030F608B90603762E08E7540F4430F608F7
:1011A00019B902E7764508E5F020E704762B8004BC
:1011B000762DF4040875F00A844430F608E5F0440E
:1011C00030F608E4F690005A75F04022AA82AB830C
:1011D000ACF07D007E008A828B838CF0120378FF56
:1011E000A3AA82AB83EF60070DBD00EA0E80E78DF6
:1011F000828E83220000000000000000000000003A
:00000001FF
