:1000000002000E0000000000000000020292758154
:1000100081121A7EE582600302007A780079007A04
:10002000007B007C007D00EC4D601C88828983E4AD
:1000300093A3A882A9838A828B83F0A3AA82AB832D
:100040001CBCFFE31D80E07582007583007C007D91
:1000500000EC4D600AE4F0A31CBCFFF51D80F275B6
:1000600082007583007C007D00EC4D600AE4F0A303
:100070001CBCFFF51D80F21200EC12049380FE4CB4
:100080003D25352E326620523A25352E3266004CFB
:100090004D3D256420524D3D2564004572726F72BE
:1000A0003A25352E3266204C6566743A25352E3257
:1000B000662052696768743A25352E3266204C6591
:1000C00066745F4D6F746F723A2564205269676879
:1000D000745F4D6F746F723A2564202020202020B9
:1000E000202020202020202020200D00E4F523F5D2
:1000F00024752500752600E4F52AF52BC200C201FF
:10010000D2022275841E7585007591007592007566
:10011000A40075A50075B10075B200227852D8FE12
:1001200022AA82AB837C007D00C3EC9AED9B502217
:100130007E14C002C003C004C005C00612011CD05A
:1001400006D005D004D003D002DEE70CBC00DA0DE7
:1001500080D722D2A512011CC2A5228582E0A2E787
:100160009294A2E69296A2E59297A2E492A0A2E3CC
:1001700092A1A2E292A2A2E192A3A2E092A4020121
:1001800053AA82D2A78A8212015B90000202012147
:10019000AA82C2A78A8212015B900005020121C2D5
:1001A000A5C2A69000141201217582331201907528
:1001B00082331201907582331201907582381201D8
:1001C0009075820C120190758201120190900014BA
:1001D000020121AA82AB83ACF07402B52C047DC06D
:1001E00080027D808D82C002C003C0041201909005
:1001F0000005120121D004D003D0027D00ED2AFEBB
:10020000E43BFF8C008E828F8388F0120BDBFE6054
:10021000188E82C002C003C004C005120181D0053F
:10022000D004D003D0020D80D43003148D02BA1054
:1002300000500D758220C002120181D0020A80EEAA
:10024000227A2879FA78B8D8FED9FADAF62275BD7A
:100250000075BF0075BE3075BD037598527591006D
:100260007592002243841E5385E1D2C675A1207584
:10027000A3F0759705E59730E3FB22C28C74F05527
:10028000894401F589758CFE758A90D28CD2A9D2E9
:10029000AF22C0E0C0D075D000C28C758CFE758ACC
:1002A00090D28C0527E527249C5003752700C3E5D1
:1002B0002795289285C3E5279529928674012523E1
:1002C000F523E43524F5247410B523207427B524D0
:1002D0001BD200E4F523F5240525743CB5250D75E6
:1002E00025000526743CB5260375260030010B74E5
:1002F00001252AF52AE4352BF52BD0D0D0E032C2E7
:100300000085D782120CFAAA82AB83ACF0FDE4C060
:10031000E0C0E0747FC0E07443C0E08A828B838CCD
:10032000F0ED120E34AA82AB83ACF0FDE58124FC23
:10033000F581C002C003C004C00590333375F0538B
:100340007440120C57AA82AB83ACF0FDE58124FC0B
:10035000F58185D682C002C003C004C005120CFA24
:10036000AE82AF83A8F0F9E4C0E0C0E0747FC0E0E3
:100370007443C0E08E828F8388F0E9120E34AE821F
:10038000AF83A8F0F9E58124FCF581C006C007C061
:1003900000C00190333375F0537440120C57AE8295
:1003A000AF83A8F0F9E58124FCF581C006C007C041
:1003B00000C001747FC0E07400C0E07480C0E074CD
:1003C0002DC0E07400C0E07440C0E0120DE3E58190
:1003D00024F2F581752C01D20390002D75F04012A6
:1003E00001D3AA297B00AC287D00C002C003C00451
:1003F000C005748FC0E07400C0E07480C0E0742D4C
:10040000C0E07400C0E07440C0E0120DE3E5812458
:10041000F6F581752C02D20390002D75F040020193
:10042000D3E4F52AF52BD20175281475296474D00C
:10043000B52AF57407B52BF0C201E4F52AF52B2295
:10044000E4F52AF52BD20175286475291474D0B50A
:100450002AF57407B52BF0C201E4F52AF52B2275B5
:10046000280075290080F8AA82AB83BA0205BB0078
:10047000028010BA0305BB0002800BBA0414BB0053
:10048000118006120421120440100202800122028F
:10049000045F22E4F53EF53FF540F541E5D6E5D7AA
:1004A000E5F5E4F556F557F558F559755A01E4F5B3
:1004B0005B12010312019F12024E12026412027BB0
:1004C00075420075430075440075450085D682125B
:1004D0000CFAAE82AF83A8F0F9E4C0E0C0E0747F0C
:1004E000C0E07443C0E08E828F8388F0E9120E343E
:1004F000AE82AF83A8F0F9E58124FCF581C006C087
:1005000007C000C00190333375F0537440120C578C
:1005100085824685834785F048F549E58124FCF5C9
:100520008185D782120CFAAE82AF83A8F0F9E4C0BD
:10053000E0C0E0747FC0E07443C0E08E828F8388A7
:10054000F0E9120E34AE82AF83A8F0F9E58124FC05
:10055000F581C006C007C000C00190333375F05369
:100560007440120C5785824A85834B85F04CF54DBB
:10057000E58124FCF58185F582120CFAAE82AF8309
:10058000A8F0F9E4C0E0C0E0747FC0E07443C0E0CC
:100590008E828F8388F0E9120E34AE82AF83A8F08A
:1005A000F9E58124FCF581C006C007C000C00190B8
:1005B000333375F0537440120C5785824E85834F48
:1005C00085F050F551E58124FCF581C04AC04BC04F
:1005D0004CC04D8546828547838548F0E549120E1B
:1005E0002985825285835385F054F555E58124FC95
:1005F000F5813000031202FF7466C0E0C0E0C0E085
:10060000743FC0E08546828547838548F0E54912FE
:100610000BF7AE82E58124FCF581EE70030206A99A
:1006200074CDC0E074CCC0E0748CC0E0743FC0E016
:100630008546828547838548F0E549120C27AE82BE
:10064000E58124FCF581EE60607466C0E0C0E0C026
:10065000E0743FC0E0854A82854B83854CF0E54DD0
:10066000120BF7AE82E58124FCF581EE603B74CD80
:10067000C0E074CCC0E0748CC0E0743FC0E0854A38
:1006800082854B83854CF0E54D120C27AE82E581C7
:1006900024FCF581EE6012753E00753F0075400048
:1006A000754100752864752964C052C053C054C098
:1006B0005590CCCD75F0CC743D120C27AE82E581FF
:1006C00024FCF581EE7003020795753E00753F002E
:1006D00075408075413FC052C053C054C055900012
:1006E0000075F0207442120C57AE82AF83A8F0F967
:1006F000E58124FCF581C006C007C000C001C042EE
:10070000C043C044C04590000075F080743F120E95
:1007100029AA82AB83ACF0FDE58124FCF581C002FF
:10072000C003C004C00590000075F0207441120C95
:1007300057AA82AB83ACF0FDE58124FCF581D001A2
:10074000D000D007D006C002C003C004C0058E820E
:100750008F8388F0E9120D05AA82AB83ACF0FDE52A
:100760008124FCF581C002C003C004C005900000D4
:1007700075F0C87442120E29AE82AF83A8F0F9E575
:100780008124FCF5818E828F8388F0E9120F5385D6
:10079000822875296474CDC0E074CCC0E0C0E074D8
:1007A000BDC0E08552828553838554F0E555120C17
:1007B00027AE82E58124FCF581EE700302088D7579
:1007C0003E00753F007540807541BFC052C053C0A8
:1007D00054C05590000075F02074C2120C57AE82C0
:1007E000AF83A8F0F9E58124FCF5818E5C8F5D88EC
:1007F0005EE9B2E7F55FC042C043C044C045900027
:100800000075F08074BF120E29AE82AF83A8F0F994
:10081000E58124FCF581C006C007C000C00190003E
:100820000075F0207441120C57AE82AF83A8F0F926
:10083000E58124FCF581C006C007C000C001855CCD
:1008400082855D83855EF0E55F120D05AA82AB832C
:10085000ACF0FDE58124FCF581752864E4C0E0C0BE
:10086000E074C8C0E07442C0E08A828B838CF0EDF3
:10087000120D05AE82AF83A8F0F9E58124FCF58165
:100880008E828F8388F0E9120F5385822974CDC040
:10089000E074CCC0E0744CC0E0743FC0E085468298
:1008A0008547838548F0E549120C27AE82E581240F
:1008B000FCF581EE7003020A6B74CDC0E074CCC00D
:1008C000E0744CC0E0743FC0E0854A82854B83856C
:1008D0004CF0E54D120C27AE82E58124FCF581EE4B
:1008E0007003020A6BE4C0E0C0E0C0E0C0E08542F3
:1008F000828543838544F0E545120BF7AE82E5819E
:1009000024FCF581EE70030209A6753E00753F00D8
:100910007540A0754140C042C043C044C0459000EE
:100920000075F0A07440120E29AE82AF83A8F0F9D2
:10093000E58124FCF581C006C007C000C00190001D
:100940000075F0207441120C57AE82AF83A8F0F905
:10095000E58124FCF581C006C007C000C0019000FD
:100960000075F0C87442120D05AA82AB83ACF0FD8D
:10097000E58124FCF581C002C003C004C0059000DD
:100980000075F0C87442120E29AE82AF83A8F0F948
:10099000E58124FCF5818E828F8388F0E9120F5364
:1009A000858228752964E4C0E0C0E0C0E0C0E0852D
:1009B00042828543838544F0E545120C27AE82E5EB
:1009C0008124FCF581EE7003020A6B753E00753FD1
:1009D000007540A07541C0C042C043C044C04590AE
:1009E000000075F0A074C0120E29AE82AF83A8F08B
:1009F000F9E58124FCF581C006C007C000C0019064
:100A0000000075F0207441120C57AE82AF83A8F03D
:100A1000F9E58124FCF581C006C007C000C0019043
:100A2000000075F0C874C2120D05AA82AB83ACF049
:100A3000FDE58124FCF581752864E4C0E0C0E07424
:100A4000C8C0E07442C0E08A828B838CF0ED120D46
:100A500005AA82AB83ACF0FDE58124FCF5818A8296
:100A60008B838CF0ED120F53858229853E42853FA2
:100A700043854044854145AA297B00AC287D00C0C0
:100A800002C003C004C005C04AC04BC04CC04DC02A
:100A900046C047C048C049C03EC03FC040C0417486
:100AA0009BC0E07400C0E07480C0E0120D73E5816B
:100AB00024EDF5817401B55A06E4B55B0280267415
:100AC00002B55A06E4B55B02804D7403B55A07E4DB
:100AD000B55B03020B707404B55A07E4B55B0302FF
:100AE0000BC90204CCE4C0E0C0E07420C0E0744153
:100AF000C0E0854E82854F838550F0E551120C276A
:100B0000AA82E58124FCF581EA60030204CC755ACF
:100B100002E4F55B0204CCC04EC04FC050C05190FF
:100B20000000E4F5F0120C27AA82E58124FCF5818F
:100B3000EA70030204CCE4C0E0C0E074A0C0E0743A
:100B400040C0E0854E82854F838550F0E551120C00
:100B500027AA82E58124FCF581EA70030204CC0512
:100B600056E4B556020557755A03E4F55B0204CC0A
:100B7000E4C0E0C0E0C0E0C0E0854E82854F8385E0
:100B800050F0E551120BF7AA82E58124FCF581EAC9
:100B9000702EC374019556E464808557F063F0802D
:100BA00095F0500E855658855759755A01E4F55BF6
:100BB0008006755A04E4F55BE4F556F5570204CC5B
:100BC000755A01E4F55B0204CC855882855983127D
:100BD0000467755A01E4F55B0204CC20F71430F683
:100BE000148883A88220F507E6A88375830022E293
:100BF00080F7E49322E022FFA8811818120F79D21F
:100C0000D133E6400730E70B7582012220E70675F5
:100C1000820022C2D1120F5BE97003F5822230D12B
:100C200001B3E433F58222FFA8811818120F79D29C
:100C3000D133E6400730E70B7582002220E70675C6
:100C4000820122C2D1120F5BE97003F5822220D10A
:100C500001B3E433F58222121026BC0003020FC553
:100C6000EF60FA30D502B2D1E583B4FF03020FDBA7
:100C7000E582B4FF03020FDB258340072482400B8B
:100C8000020FC52483145003020FDBF582EA8DF0B6
:100C9000A4A8F0EA8EF0A428F8E435F0F9EB8DF082
:100CA000A428E935F0F9E433CA8FF0A429F9EA352C
:100CB000F0FAEBF88EF0A429F9EA35F0FAE433FB08
:100CC000EC8DF0A429F9EA35F0FAE43BFBE88FF06B
:100CD000A42AFAEB35F0FBE433CCFD8EF0A42AFA1B
:100CE000EB35F0FBE43CFCED8FF0A42BFBEC35F096
:100CF000FC20E703120FF3020FA4E4AC82FBFAF925
:100D0000748602105D1210267900E583B582028098
:100D10000D5003121067E583C39582121081E5D050
:100D2000C465D020E117EA2DFAEB3EFBEC3FFC5006
:100D3000097401121081EC4480FC020FA4C3EA9DE7
:100D4000FAEB9EFBEC9FFC500FC3E499F9E49AFA8E
:100D5000E49BFBE49CFCB2D1120FF3020FA4021A35
:100D60005085826E85836F85F070851071900D5E61
:100D70000214A3C008858108E50824FBF571E50885
:100D800024FBF8866E08866F088670900D5E12143C
:100D9000A3D00822AA82AB09AC0AAD0B8B828C834C
:100DA0008DF0EA121A650509E4B50902050A2285E3
:100DB000820985830A85F00B850C6E850D6F850E83
:100DC00070850F71900D941214A3AA82AB83AC09A5
:100DD000AD0AAE0B8C828D838EF0E4121A658A8286
:100DE0008B8322C008858108E50824F8F571E508A1
:100DF00024FBF8860908860A08860BE50824F8F81B
:100E0000866E08866F088670900D941214A3AA82CD
:100E1000AB83AC09AD0AAE0B8C828D838EF0E412ED
:100E20001A658A828B83D00822A8811818C6B2E777
:100E3000C6020D0512102630D502B2D1BF0009BC82
:100E40000003020FE8020FDBBC0003020FC5E583BD
:100E5000B4FF0BE582B4FF03020FE8020FC5E58281
:100E6000B4FF03020FDBC395835007247F400B02BE
:100E70000FC52480145003020FDBC0E0E4CCCBCAC2
:100E8000F98D118E128F13EF54F0C4F5147583068B
:100E90008514F0EB84F582E9C4F9EAC4FAEBC4FBEB
:100EA000EC540FC47803D6FC18EBD6FB18EAD6FA3C
:100EB0008582F0EDA4A8F0FD8582F0EEA428FEE482
:100EC00035F0F88582F0EFA428FFE435F0F8E99DCD
:100ED000F9EA9EFAEB9FFBEC98FCAD11AE12AF1352
:100EE00030E7101582E92DF9EA3EFAEB3FFBE43CCE
:100EF000FC80EDC082D58398C3E933F9EA33FAEB7D
:100F000033FBEC33FCC3E99DEA9EEB9FEC9400B30A
:100F1000E413F9D002D0E0C44AFAD003D0E0C44BC5
:100F2000FBD004D0E0F5F0540FC44CFCD082158205
:100F300030F40FD3EC13FCEB13FBEA13FAE913F9CB
:100F40000582E930E70A74012AFAE43BFBE43CFC41
:100F5000020FBC7F86121A84F582227901AA82E6EA
:100F60008F82B5821318E6B5F00E18E6B58309181E
:100F7000E68A82B58202790022B4800FE5F0700A19
:100F8000E5837006E58270027F00EFB6801518B623
:100F9000001018B6000B18B60006080808760022E4
:100FA00008080822B98003EA13B34010EA2401FAC2
:100FB000E43BFBE43CFC50047C800582BC000EBB9F
:100FC000000BBA0008E4F5F0F583F58222A2D1E522
:100FD00082138CF092F78B838A8222E4F583F58268
:100FE00075F080F4A2D11322E4F583F58275F0C088
:100FF000747F227804EC7011E58224F8500AF5829F
:10100000E4C9CACBFCD8EF22EC7820058220E71394
:10101000D5820122C3E933F9EA33FAEB33FBEC332F
:10102000FCD8EA158222AA82AB83A2F73392D16060
:1010300002D2F7F582ACF0E58124F9F8E6FD08E686
:10104000FE0886F008E6A2F73392D56002D2F7F5E3
:1010500083AFF022FCABF0AA83A982749EC2D1F5C3
:1010600082120FF3020FA4E582C583F582A2D13369
:10107000A2D592D11392D5ECCFFCEBCEFBEACDFA00
:10108000226040F82582500274FFF582E824F8506F
:101090001ECCCBCAF9E4CC24F85014CBCAF9E4CB6B
:1010A00024F8500BCAF9E4CA24F85003790022242A
:1010B000086010F8C3EC13FCEB13FBEA13FAE91316
:1010C000F9D8F122AA8274D5C0E07410C0E0C060E3
:1010D000C0618A82220567E4B56702056822AA8298
:1010E00074302AFA24C6500A74072AFA30040343DB
:1010F00002208A820210C4E582FAC4540FF582C02D
:10110000021210DED002740F5AF5820210DEAA62BB
:10111000AB63AC64AD65AE66756D20EE2EFEED235F
:101120005401FF4206EA2AFAEB33FBEC33FCED33C1
:10113000FDC3EE95694008EEC39569FE430201D5F3
:101140006DD98A628B638C648D658E6622787EE6AB
:1011500024D075F00AA4FA787FE624D02AFA787DA4
:101160008603BB2D04C3E49AFA756901C3E4648065
:101170008AF063F08095F05029756D038A0374F648
:10118000256D401C0569E56D142472F8E56D247227
:10119000F98704A604772E1BEBFA6004056D80DE48
:1011A0008B02EA30E70D787386037874A6037873B0
:1011B000762E0AE56B600AE56B04FB2569F569800C
:1011C00005300F02056978728603E4BB2D0104FB2C
:1011D0007006200A03300B020569300803021294DE
:1011E000300957EB600C75822DC0021210C4D0027A
:1011F000801C300A0C75822BC0021210C4D00280F1
:101200000D300B0A758220C0021210C4D002787310
:101210008604BC2E0C758230C0021210C4D0021598
:101220006AAC6A156AC3E5699C40030212D87582EC
:1012300030C0021210C4D00280E7AC6A156AC3E560
:10124000699C500C758220C0021210C4D00280EA42
:1012500078728604BC2D0C75822DC0021210C4D089
:1012600002801C300A0C75822BC0021210C4D002FE
:10127000800D300B0A758220C0021210C4D0027893
:10128000738604BC2E52758230C0021210C4D00284
:10129000156A8044EB600E75822DC0021210C4D016
:1012A00002156A8020300A0E75822BC0021210C40B
:1012B000D002156A800F300B0C758220C00212100C
:1012C000C4D002156A78738603BB2E0C758230C0B9
:1012D000021210C4D002156A756D01C211E56D24A9
:1012E00072F88603BB4503021395BB2E348A03C3F1
:1012F000E464808BF063F08095F0500F758230C00D
:10130000031210C4D0031B8B0280E48B02D211E5C0
:101310006B7038200F0302139575822E1210C48053
:10132000743011278A03EB30E71FC3E46480856BB8
:10133000F063F08095F0500C758230C0031210C439
:10134000D003156B0B8B0280DD8B0230110EC3E4D2
:101350006480856BF063F08095F05021E56D247218
:10136000F886038B82C0021210C4D00230110EE541
:101370006D2472F88603BB2E028002156B156AC3BA
:10138000E46480856BF063F08095F04003201105E4
:10139000056D0212DDC3E46480856BF063F0809517
:1013A000F0500A7582301210C4156B80E830080FB7
:1013B000AA6A156AEA60087582201210C480F122B8
:1013C000E56B7003300F0D7407256BFAE56AC39A5D
:1013D000F56A8006E56A24FAF56A756D007872860A
:1013E00002BA2B0F200A0C78727620200B05756D3F
:1013F00001056A200819AA6AC3E464808AF063F0D0
:101400008095F0500A7582201210C4156A80E7C2D8
:1014100011E56D2472F88602BA00028069BA451F90
:101420003004027665C3E46480856BF063F08095D8
:10143000F0500A7582301210C4156B80E8D211C3C7
:10144000E56D9402E433FA7014EA700EC3E464802C
:10145000856BF063F08095F04003301116E56D2444
:1014600072F886028A821210C4E56D24FD501215AE
:101470006B800E7402B56D09300F0675822E121046
:10148000C4056D021411300819AA6AC3E464808A85
:10149000F063F08095F0500A7582201210C4156A2E
:1014A00080E722858260858361E4F567F568AA6E2E
:1014B000AB6FAC708A828B838CF0120BDBFD7401F6
:1014C0002AF56EE43BF56F8C70EDFA7003021A4951
:1014D000BA25028003021A41C208C209C20AC20B1D
:1014E000C20CC20DC20EC20FC205C206C207756988
:1014F00000756A00756BFFAB6EAC6FAD708B828C44
:10150000838DF0120BDBFAA3AB82AC838B6E8C6FF6
:101510008D70BA25078A821210C480928A06BE3066
:1015200000402E8A06EE24C6402774FFB56B13E5F3
:101530006A75F00AA4FEEA24D02EF56A70BFD209BB
:1015400080BBE56B75F00AA4FEEA24D02EF56B8013
:10155000ACBA2E0A74FFB56BA4756B00809F8A0627
:10156000BE6100400E8A06EE248540075302DFD29A
:10157000048002C204BA20028075BA23030215FE59
:10158000BA2A03021603BA2B02805FBA2D028055D5
:10159000BA4202805FBA4303021648BA44030217F4
:1015A00083BA450302179DBA4603021799BA470347
:1015B0000217A1BA4903021783BA4C02803BBA4E04
:1015C000030217A5BA4F0302178ABA500302171C69
:1015D000BA530302166CBA550302178FBA580302A6
:1015E00017940217CFD2080214FDD20A0214FDD2BA
:1015F0000B0214FDD20D0214FDD20E0214FDD20F07
:101600000214FD74FFB56B20300D0BE57114F888E2
:1016100071866A0214FDE57124FEF8887186060859
:101620008607188E6A0214FD300D0BE57114F888D8
:1016300071866B0214FDE57124FEF8887186060838
:101640008607188E6B0214FD300D0AE57114F888B8
:10165000718602800FE57124FEF888718603088682
:1016600004188B028A821210C40217D4E57124FD7B
:10167000F88871860308860408860518188B628C22
:10168000638D648B828C838DF0121BC8AB82AC831C
:101690008B6C74FFB56B03856C6B20081DC3E56C08
:1016A000956A5016E56AC3956CF56AAB6A156AEBE4
:1016B00060087582201210C480F185628285638380
:1016C0008564F0120BDBFBFA6029AB6B156BC3E48E
:1016D00064808BF063F08095F050188A821210C4F9
:1016E000AB62AC63AD640BBB00010C8B628C638D91
:1016F0006480C72008030217D4C3E56C956A4003D1
:101700000217D4E56AC3956CF56AAB6A156AEB708B
:10171000030217D47582201210C480EEE57124FDF7
:10172000F88871860308860408860518188B628C71
:10173000638D64E564FB30E7047A438013EB546007
:1017400060047A50800AEB30E6047A4980027A58C5
:101750008A82C0021210C475823A1210C475823097
:101760001210C47582781210C4D002BA4902800BDC
:10177000BA500280068563821210F78562821210C9
:10178000F78051D20C75690A804A756908804575E1
:10179000690A8040756910803BD2058037D2068087
:1017A00033D207802FE57124FDF8887186030886FF
:1017B0000408860518188B628C638D648B828C8379
:1017C0008DF0E567121A65A3E568121A6580058A2F
:1017D000821210C4200506200603300770E571242C
:1017E000FCF88871860308860408860508860618B2
:1017F00018188B628C638D648E65E562E563E56421
:10180000E5658B828C838DF0EE121AA974FFB56B9F
:1018100003756B06300727747F5565FB8B66E5669D
:10182000EB2BFB8B66E56430E70674014566F566D5
:10183000E56624684006749925664002D2063006A3
:10184000061213C00214AE12114D0214AEE56970F7
:10185000030214AE7B77300D2BE57114F88871E626
:10186000FC3395E0FDFEFF8C628D638E648F6520F6
:101870000C5EAC627D007E007F008C628D638E64A6
:101880008F65804C300E1FE57124FCF8887186044A
:101890000886050886060886071818188C628D6366
:1018A0008E648F65802AE57124FEF88871860408AD
:1018B000860518ED3395E0FEFF8C628D638E648F94
:1018C00065200C0CAC62AD637E007F008E648F657A
:1018D000300F43E56245634564456560397408B57A
:1018E000690C758230C0031210C4D00380287410B4
:1018F000B56923758230C0031210C4D00330040CC4
:10190000758278C0031210C4D003800A758258C053
:10191000031210C4D003300C25AC62AD63AE64E595
:1019200065FF30E717C3E49CFCE49DFDE49EFEE404
:101930009FFF8C628D638E648F658002C20C756C14
:1019400000D2108B00756600C00012110ED000206E
:10195000100DE566C4FCE6FD4CF61888038002A66F
:1019600066056CB210E56245634564456570D688CE
:1019700003E56A7003756A0120091A200817E56CEF
:1019800004FCC3956A500E758220C0031210C4D0A7
:1019900003156A80E9300C0E75822DC0031210C445
:1019A000D003156A8024E56C6020300A0E75822B06
:1019B000C0031210C4D003156A800F300B0C75825F
:1019C00020C0031210C4D003156A20081EAC6A158B
:1019D0006AC3E56C9C50273009047C3080027C206F
:1019E0008C82C0031210C4D00380E2C3E56C956AF8
:1019F0005009E56AC3956CF56A8003756A008B002F
:101A0000AB6C156CEB6022B21020100A08E6C454CF
:101A10000FFB8B6680078603740F5BF56685668215
:101A2000C0001210DED00080D72008030214AEAB35
:101A30006A156AEB70030214AE7582201210C4801E
:101A4000EE8A821210C40214AE85678285688322F2
:101A5000AA82BA0A0810990280FB75990D109902A2
:101A600080FB8A992220F71030F6118883A8822003
:101A7000F507F6A88375830022F280F7F0227582BD
:101A800000227F9E121BF030D103020FC5C3EF95D9
:101A900082500974FFF5F0F583F582227900121067
:101AA0008189828A838BF0EC22C0E0F845824583ED
:101AB00045F07009F5F0FBFCFDFE021B77E823A260
:101AC000F792E0F8A982AA83D2F7ABF07C007E07F8
:101AD000C3749798404074FF2EFE740A89F0A4F9ED
:101AE00085F082740A8AF0A4FA85F083740A8BF078
:101AF000A4FB740529F9EA3582FAEB3583FB7400FF
:101B000035F0FCC3EC13FCEB13FBEA13FAE913F911
:101B100008EC70EF80BAE8C3947FF88B838EF0E412
:101B2000FBFCFDFEFF08C3E933F9EA33FAE5833332
:101B3000F583EB3BD4FBEC3CD4FCED3DD4FDEE3E19
:101B4000D4FEEF3FD4FF602D05F074052BD4FBE4E9
:101B50003CD4FCE43DD4FDE43ED4FEE43FD4FF7528
:101B60008204C3EF13FFEE13FEED13FDEC13FCEB49
:101B700013FBD582EDD8AF7872D0E020E704762B46
:101B80008002762D087906E7C4540F4430F608B970
:101B90000603762E08E7540F4430F60819B902E719
:101BA000764508E5F020E704762B8004762DF404D2
:101BB0000875F00A844430F608E5F04430F608E48D
:101BC000F690007275F04022AA82AB83ACF07D00E3
:101BD0007E008A828B838CF0120BDBFFA3AA82AB80
:101BE00083EF60070DBD00EA0E80E78D828E8322B1
:101BF000AA82AB83A2F73392D16002D2F7F582AC0E
:101C0000F0220000000000000000000000000000C2
:00000001FF
