:1000000002000E0000000000000000020272758174
:10001000811211AAE582600302007A780079007AE1
:10002000007B007C007D00EC4D601C88828983E4AD
:1000300093A3A882A9838A828B83F0A3AA82AB832D
:100040001CBCFFE31D80E07582007583007C007D91
:1000500000EC4D600AE4F0A31CBCFFF51D80F275B6
:1000600082007583007C007D00EC4D600AE4F0A303
:100070001CBCFFF51D80F21200A71203E280FE56A1
:10008000303A2025342E3266560056313A20253437
:100090002E32665600563D25352E3266002530320A
:1000A000643A2530326400E4F522F52375240075A6
:1000B0002500C2002275841E758500759100759219
:1000C0000075A40075A50075B10075B200227852C4
:1000D000D8FE22AA82AB837C007D00C3EC9AED9B04
:1000E00050227E14C002C003C004C005C006120026
:1000F000CED006D005D004D003D002DEE70CBC0081
:10010000DA0D80D722D2A51200CEC2A5228582E0C8
:10011000A2E79294A2E69296A2E59297A2E492A018
:10012000A2E392A1A2E292A2A2E192A3A2E092A4EF
:10013000020105AA82D2A78A8212010D9000020252
:1001400000D3AA82C2A78A8212010D900005020084
:10015000D3C2A5C2A69000141200D3758233120137
:100160004275823312014275823312014275823820
:1001700012014275820C12014275820112014290F5
:1001800000140200D3AA82AB83ACF07402B5290438
:100190007DC080027D808D82C002C003C004120138
:1001A000429000051200D3D004D003D0027D00EDB0
:1001B0002AFEE43BFF8C008E828F8388F01204C4F9
:1001C000FE60188E82C002C003C004C00512013355
:1001D000D005D004D003D0020D80D43001148D029C
:1001E000BA1000500D758220C002120133D0020AED
:1001F00080EE22752A73752B6F752C6D752D6575C4
:100200002E74752F6875306975316E753267753368
:1002100000752902D20190002A75F04012018580F4
:10022000D27A2879FA78B8D8FED9FADAF62275BDEA
:100230000075BF0075BE3075BD037598527591008D
:100240007592002243841E5385E1D2C675A12075A4
:10025000A3F0759705E59730E3FB22C28C74F05547
:10026000894401F589758CFE758A90D28CD2A9D209
:10027000AF22C0E0C0D075D000C28C758CFE758AEC
:1002800090D28C0526E526249C5003752600C3E5F4
:100290002695279285C3E526952892867401252206
:1002A000F522E43523F5237410B522207427B523F5
:1002B0001BD200E4F522F5230524743CB5240D750A
:1002C00024000525743CB52503752500D0D0D0E069
:1002D0003285D582120583AA82AB83ACF0FDC002C1
:1002E000C003C004C00590333375F053744012044A
:1002F000E0AA82AB83ACF0FDE58124FCF581E4C08B
:10030000E0C0E0747FC0E07443C0E08A828B838CDD
:10031000F0ED120623AA82AB83ACF0FDE58124FC4C
:10032000F581C002C003C004C005747FC0E0740042
:10033000C0E07480C0E0743EC0E07400C0E074406F
:10034000C0E01205DDE58124F6F581752901D201B1
:1003500090003E75F04012018585D682120583AA71
:1003600082AB83ACF0FDC002C003C004C005903373
:100370003375F05374401204E0AA82AB83ACF0FDF5
:10038000E58124FCF581E4C0E0C0E0747FC0E07446
:1003900043C0E08A828B838CF0ED120623AA82ABE5
:1003A00083ACF0FDE58124FCF581C002C003C004EC
:1003B000C005748AC0E07400C0E07480C0E0743E80
:1003C000C0E07400C0E07440C0E01205DDE58124A7
:1003D000F6F581752902D20190003E75F0400201C8
:1003E00085221200B512015112022E12024412028D
:1003F0005BE5D6E5D785D582120583AA82AB83ACAF
:10040000F0FDE4C0E0C0E0747FC0E07443C0E08A67
:10041000828B838CF0ED120623AA82AB83ACF0FDB5
:10042000E58124FCF581C002C003C004C0059033FF
:100430003375F05374401204E0AA82AB83ACF0FD34
:10044000E58124FCF58110000280A6C002C003C033
:1004500004C0057495C0E07400C0E07480C0E0740E
:100460004FC0E07400C0E07440C0E01205DDE581DB
:1004700024F6F581752901D20190004F75F04012E4
:100480000185AA247B00AC257D00C002C003C00406
:10049000C005749DC0E07400C0E07480C0E0744F7B
:1004A000C0E07400C0E07440C0E01205DDE58124C6
:1004B000F6F581752902D20190004F75F0401201C6
:1004C000850203F120F71430F6148883A88220F502
:1004D00007E6A88375830022E280F7E49322E022F6
:1004E0001207C4BC0003020763EF60FA30D502B202
:1004F000D1E583B4FF03020779E582B4FF03020765
:1005000079258340072482400B020763248314501B
:1005100003020779F582EA8DF0A4A8F0EA8EF0A430
:1005200028F8E435F0F9EB8DF0A428E935F0F9E48A
:1005300033CA8FF0A429F9EA35F0FAEBF88EF0A46B
:1005400029F9EA35F0FAE433FBEC8DF0A429F9EA55
:1005500035F0FAE43BFBE88FF0A42AFAEB35F0FB28
:10056000E433CCFD8EF0A42AFAEB35F0FBE43CFC3E
:10057000ED8FF0A42BFBEC35F0FC20E70312079184
:10058000020742E4AC82FBFAF974860207FBAA82F6
:10059000AB09AC0AAD0B8B828C838DF0EA12119102
:1005A0000509E4B50902050A2285820985830A85C1
:1005B000F00B850C6E850D6F850E70850F719005A3
:1005C0008E120BE4AA82AB83AC09AD0AAE0B8C820F
:1005D0008D838EF0E41211918A828B8322C008856C
:1005E0008108E50824F8F571E50824FBF886090878
:1005F000860A08860BE50824F8F8866E08866F08D8
:10060000867090058E120BE4AA82AB83AC09AD0A0A
:10061000AE0B8C828D838EF0E41211918A828B83D3
:10062000D008221207C430D502B2D1BF0009BC00E5
:1006300003020786020779BC0003020763E583B45F
:10064000FF0BE582B4FF03020786020763E582B46D
:10065000FF03020779C395835007247F400B0207ED
:10066000632480145003020779C0E0E4CCCBCAF9BC
:100670008D108E118F12EF54F0C4F513758306851B
:1006800013F0EB84F582E9C4F9EAC4FAEBC4FBEC9D
:10069000540FC47803D6FC18EBD6FB18EAD6FA85BB
:1006A00082F0EDA4A8F0FD8582F0EEA428FEE435EA
:1006B000F0F88582F0EFA428FFE435F0F8E99DF921
:1006C000EA9EFAEB9FFBEC98FCAD10AE11AF123036
:1006D000E7101582E92DF9EA3EFAEB3FFBE43CFC1A
:1006E00080EDC082D58398C3E933F9EA33FAEB335E
:1006F000FBEC33FCC3E99DEA9EEB9FEC9400B3E472
:1007000013F9D002D0E0C44AFAD003D0E0C44BFBC6
:10071000D004D0E0F5F0540FC44CFCD082158230E8
:10072000F40FD3EC13FCEB13FBEA13FAE913F9050E
:1007300082E930E70A74012AFAE43BFBE43CFC025C
:10074000075AB98003EA13B34010EA2401FAE43BE4
:10075000FBE43CFC50047C800582BC000EBB000B1B
:10076000BA0008E4F5F0F583F58222A2D1E5821300
:100770008CF092F78B838A8222E4F583F58275F000
:1007800080F4A2D11322E4F583F58275F0C0747F62
:10079000227804EC7011E58224F8500AF582E4C94D
:1007A000CACBFCD8EF22EC7820058220E713D58253
:1007B0000122C3E933F9EA33FAEB33FBEC33FCD81B
:1007C000EA158222AA82AB83A2F73392D16002D2C9
:1007D000F7F582ACF0E58124F9F8E6FD08E6FE08BD
:1007E00086F008E6A2F73392D56002D2F7F583AF20
:1007F000F022FCABF0AA83A982749EC2D1F58212CA
:100800000791020742AA827416C0E07408C0E0C0D3
:1008100060C0618A82220567E4B56702056822AA82
:100820008274302AFA24C6500A74072AFA30020366
:100830004302208A82020805E582FAC4540FF58239
:10084000C00212081FD002740F5AF58202081FAAB4
:1008500062AB63AC64AD65AE66756D20EE2EFEEDE9
:10086000235401FF4206EA2AFAEB33FBEC33FCED9A
:1008700033FDC3EE95694008EEC39569FE4302015E
:10088000D56DD98A628B638C648D658E6622787E85
:10089000E624D075F00AA4FA787FE624D02AFA7804
:1008A0007D8603BB2D04C3E49AFA756901C3E46431
:1008B000808AF063F08095F05029756D038A037487
:1008C000F6256D401C0569E56D142472F8E56D246C
:1008D00072F98704A604772E1BEBFA6004056D807D
:1008E000DE8B02EA30E70D787386037874A603780E
:1008F00073762E0AE56B600AE56B04FB2569F569E2
:100900008005300D02056978728603E4BB2D010471
:10091000FB7006200803300902056930060302094E
:10092000D5300757EB600C75822DC002120805D038
:1009300002801C30080C75822BC002120805D00200
:10094000800D30090A758220C002120805D0027895
:10095000738604BC2E0C758230C002120805D002CA
:10096000156AAC6A156AC3E5699C4003020A1975E9
:100970008230C002120805D00280E7AC6A156AC353
:10098000E5699C500C758220C002120805D00280D7
:10099000EA78728604BC2D0C75822DC002120805FF
:1009A000D002801C30080C75822BC002120805D0C2
:1009B00002800D30090A758220C002120805D0029B
:1009C00078738604BC2E52758230C002120805D09E
:1009D00002156A8044EB600E75822DC00212080574
:1009E000D002156A802030080E75822BC0021208D2
:1009F00005D002156A800F30090C758220C00212E2
:100A00000805D002156A78738603BB2E0C758230F8
:100A1000C002120805D002156A756D01C20FE56D9E
:100A20002472F88603BB4503020AD6BB2E348A0320
:100A3000C3E464808BF063F08095F0500F758230D2
:100A4000C003120805D0031B8B0280E48B02D20F77
:100A5000E56B7038200D03020AD675822E12080548
:100A60008074300F278A03EB30E71FC3E46480856E
:100A70006BF063F08095F0500C758230C003120863
:100A800005D003156B0B8B0280DD8B02300F0EC37C
:100A9000E46480856BF063F08095F05021E56D246F
:100AA00072F886038B82C002120805D002300F0E46
:100AB000E56D2472F88603BB2E028002156B156A61
:100AC000C3E46480856BF063F08095F04003200FF1
:100AD00005056D020A1EC3E46480856BF063F08037
:100AE00095F0500A758230120805156B80E83006C3
:100AF0000FAA6A156AEA600875822012080580F15B
:100B000022E56B7003300D0D7407256BFAE56AC39F
:100B10009AF56A8006E56A24FAF56A756D007872BE
:100B20008602BA2B0F20080C7872762020090575F2
:100B30006D01056A200619AA6AC3E464808AF0631D
:100B4000F08095F0500A758220120805156A80E73A
:100B5000C20FE56D2472F88602BA00028069BA45B8
:100B60001F3002027665C3E46480856BF063F08019
:100B700095F0500A758230120805156B80E8D20F87
:100B8000C3E56D9402E433FA7014EA700EC3E464B2
:100B900080856BF063F08095F04003300F16E56DB3
:100BA0002472F886028A82120805E56D24FD50122F
:100BB000156B800E7402B56D09300D0675822E120C
:100BC0000805056D020B52300619AA6AC3E4648059
:100BD0008AF063F08095F0500A758220120805159E
:100BE0006A80E722858260858361E4F567F568AAFB
:100BF0006EAB6FAC708A828B838CF01204C4FD7470
:100C0000012AF56EE43BF56F8C70EDFA700302116A
:100C10008ABA25028003021182C206C207C208C234
:100C200009C20AC20BC20CC20DC203C204C20575BE
:100C30006900756A00756BFFAB6EAC6FAD708B822F
:100C40008C838DF01204C4FAA3AB82AC838B6E8CC0
:100C50006F8D70BA25078A8212080580928A06BEB7
:100C60003000402E8A06EE24C6402774FFB56B1371
:100C7000E56A75F00AA4FEEA24D02EF56A70BFD2A8
:100C80000780BBE56B75F00AA4FEEA24D02EF56B55
:100C900080ACBA2E0A74FFB56BA4756B00809F8A76
:100CA00006BE6100400E8A06EE248540075302DF2F
:100CB000D2028002C202BA20028075BA2303020D5A
:100CC0003FBA2A03020D44BA2B02805FBA2D02807C
:100CD00055BA4202805FBA4303020D89BA44030247
:100CE0000EC4BA4503020EDEBA4603020EDABA4754
:100CF00003020EE2BA4903020EC4BA4C02803BBAA8
:100D00004E03020EE6BA4F03020ECBBA5003020E98
:100D10005DBA5303020DADBA5503020ED0BA5803A3
:100D2000020ED5020F10D206020C3ED208020C3E73
:100D3000D209020C3ED20B020C3ED20C020C3ED267
:100D40000D020C3E74FFB56B20300B0BE57114F8EF
:100D50008871866A020C3EE57124FEF88871860669
:100D6000088607188E6A020C3E300B0BE57114F8EA
:100D70008871866B020C3EE57124FEF88871860648
:100D8000088607188E6B020C3E300B0AE57114F8CA
:100D900088718602800FE57124FEF8887186030849
:100DA0008604188B028A82120805020F15E5712449
:100DB000FDF88871860308860408860518188B627A
:100DC0008C638D648B828C838DF01212CDAB82ACE0
:100DD000838B6C74FFB56B03856C6B20061DC3E5BC
:100DE0006C956A5016E56AC3956CF56AAB6A156A2C
:100DF000EB600875822012080580F18562828563A8
:100E0000838564F01204C4FBFA6029AB6B156BC3D5
:100E1000E464808BF063F08095F050188A821208A9
:100E200005AB62AC63AD640BBB00010C8B628C63E1
:100E30008D6480C7200603020F15C3E56C956A40D8
:100E400003020F15E56AC3956CF56AAB6A156AEB88
:100E50007003020F1575822012080580EEE57124DB
:100E6000FDF88871860308860408860518188B62C9
:100E70008C638D64E564FB30E7047A438013EB54A4
:100E80006060047A50800AEB30E6047A4980027A86
:100E9000588A82C00212080575823A1208057582C6
:100EA00030120805758278120805D002BA4902800E
:100EB0000BBA50028006856382120838856282125E
:100EC00008388051D20A75690A804A7569088045D8
:100ED00075690A8040756910803BD2038037D2045F
:100EE0008033D205802FE57124FDF88871860308D0
:100EF000860408860518188B628C638D648B828C3F
:100F0000838DF0E567121191A3E5681211918005B8
:100F10008A82120805200306200403300570E5715B
:100F200024FCF8887186030886040886050886066E
:100F30001818188B628C638D648E65E562E563E535
:100F400064E5658B828C838DF0EE1211AE74FFB573
:100F50006B03756B06300527747F5565FB8B66E563
:100F600066EB2BFB8B66E56430E70674014566F59E
:100F700066E56624684006749925664002D204300E
:100F80000406120B01020BEF12088E020BEFE5694B
:100F90007003020BEF7B77300B2BE57114F888712F
:100FA000E6FC3395E0FDFEFF8C628D638E648F65F9
:100FB000200A5EAC627D007E007F008C628D638EB5
:100FC000648F65804C300C1FE57124FCF8887186B5
:100FD000040886050886060886071818188C628D8E
:100FE000638E648F65802AE57124FEF8887186041B
:100FF00008860518ED3395E0FEFF8C628D638E64E4
:101000008F65200A0CAC62AD637E007F008E648F1A
:1010100065300D43E5624563456445656039740894
:10102000B5690C758230C003120805D0038028749E
:1010300010B56923758230C003120805D003300251
:101040000C758278C003120805D003800A75825897
:10105000C003120805D003300A25AC62AD63AE644C
:10106000E565FF30E717C3E49CFCE49DFDE49EFECC
:10107000E49FFF8C628D638E648F658002C20A7567
:101080006C00D20E8B00756600C00012084FD000B5
:10109000200E0DE566C4FCE6FD4CF61888038002C0
:1010A000A666056CB20EE56245634564456570D67B
:1010B0008803E56A7003756A0120071A200617E5A0
:1010C0006C04FCC3956A500E758220C0031208059B
:1010D000D003156A80E9300A0E75822DC00312080C
:1010E00005D003156A8024E56C602030080E7582F7
:1010F0002BC003120805D003156A800F30090C7548
:101100008220C003120805D003156A20061EAC6AAF
:10111000156AC3E56C9C50273007047C3080027C44
:10112000208C82C003120805D00380E2C3E56C95D1
:101130006A5009E56AC3956CF56A8003756A008B8D
:1011400000AB6C156CEB6022B20E200E0A08E6C4F0
:10115000540FFB8B6680078603740F5BF56685660C
:1011600082C00012081FD00080D7200603020BEFB8
:10117000AB6A156AEB7003020BEF7582201208054B
:1011800080EE8A82120805020BEF856782856883EC
:101190002220F71030F6118883A88220F507F6A8E0
:1011A0008375830022F280F7F02275820022C0E06E
:1011B000F84582458345F07009F5F0FBFCFDFE0221
:1011C000127CE823A2F792E0F8A982AA83D2F7ABB7
:1011D000F07C007E07C3749798404074FF2EFE7425
:1011E0000A89F0A4F985F082740A8AF0A4FA85F0DD
:1011F00083740A8BF0A4FB740529F9EA3582FAEBB3
:101200003583FB740035F0FCC3EC13FCEB13FBEAF5
:1012100013FAE913F908EC70EF80BAE8C3947FF889
:101220008B838EF0E4FBFCFDFEFF08C3E933F9EA93
:1012300033FAE58333F583EB3BD4FBEC3CD4FCED94
:101240003DD4FDEE3ED4FEEF3FD4FF602D05F0749B
:10125000052BD4FBE43CD4FCE43DD4FDE43ED4FEB9
:10126000E43FD4FF758204C3EF13FFEE13FEED13CA
:10127000FDEC13FCEB13FBD582EDD8AF7872D0E018
:1012800020E704762B8002762D087906E7C4540FF8
:101290004430F608B90603762E08E7540F4430F6BA
:1012A0000819B902E7764508E5F020E704762B80B7
:1012B00004762DF4040875F00A844430F608E5F04D
:1012C0004430F608E4F690007275F04022AA82AB32
:1012D00083ACF07D007E008A828B838CF01204C484
:1012E000FFA3AA82AB83EF60070DBD00EA0E80E783
:1012F0008D828E83220000000000000000000000AC
:00000001FF
