:1000000002000E00000000000000000202A875813E
:1000100082121979E582600302007A780079007A09
:10002000007B007C007D00EC4D601C88828983E4AD
:1000300093A3A882A9838A828B83F0A3AA82AB832D
:100040001CBCFFE31D80E07582007583007C007D91
:1000500000EC4D600AE4F0A31CBCFFF51D80F275B6
:1000600082007583007C007D00EC4D600AE4F0A303
:100070001CBCFFF51D80F21201041203DE80FE5647
:100080003D25352E326600253032643A2530326403
:10009000004572726F723A25352E3266204C6566C5
:1000A000743A25352E32662052696768743A2535D0
:1000B0002E326620202020202020202020202020DA
:1000C000202020200D005455524E494E47204C45CB
:1000D0004654200D3B005455524E494E472052691C
:1000E000676874200D3B005374617274696E6720F9
:1000F0000D3B006C696E6520636F756E7465723AB6
:1001000020256400E4F523F524752500752600E418
:10011000F52AF52BC200C2012275841E7585007573
:10012000910075920075A40075A50075B10075B2B7
:1001300000227852D8FE22AA82AB837C007D00C3C5
:10014000EC9AED9B50227E14C002C003C004C0058F
:10015000C006120132D006D005D004D003D002DE92
:10016000E70CBC00DA0D80D722D2A5120132C2A55D
:10017000228582E0A2E79294A2E69296A2E5929767
:10018000A2E492A0A2E392A1A2E292A2A2E192A38F
:10019000A2E092A4020169AA82D2A78A8212017106
:1001A000900002020137AA82C2A78A8212017190CE
:1001B0000005020137C2A5C2A690001412013775CE
:1001C00082331201A67582331201A67582331201A1
:1001D000A67582381201A675820C1201A6758201DD
:1001E0001201A6900014020137AA82AB83ACF0740E
:1001F00002B52C047DC080027D808D82C002C003C8
:10020000C0041201A6900005120137D004D003D01B
:10021000027D00ED2AFEE43BFF8C008E828F8388F6
:10022000F0120AD6FE60188E82C002C003C004C05D
:1002300005120197D005D004D003D0020D80D43030
:1002400002148D02BA1000500D758220C0021201F6
:1002500097D0020A80EE227A2879FA78B8D8FED9A7
:10026000FADAF62275BD0075BF0075BE3075BD03A4
:100270007598527591007592002243841E5385E152
:10028000D2C675A12075A3F0759705E59730E3FBFD
:1002900022C28C74F055894401F589758CFE758AEB
:1002A00090D28CD2A9D2AF22C0E0C0D075D000C20B
:1002B0008C758CFE758A90D28C0527E527249C507E
:1002C00003752700C3E52795289285C3E52795295F
:1002D000928674012523F523E43524F5247410B5A2
:1002E00023207427B5241BD200E4F523F52405252B
:1002F000743CB5250D7525000526743CB52603759F
:10030000260030010B7401252AF52AE4352BF52B44
:10031000D0D0D0E032C20085D582120BF5AA82ABD4
:1003200083ACF0FDE4C0E0C0E0747FC0E07443C083
:10033000E08A828B838CF0ED120D2FAA82AB83AC06
:10034000F0FDE58124FCF581C002C003C004C005B6
:1003500090333375F0537440120B52AA82AB83ACC6
:10036000F0FDE58124FCF581C002C003C004C00596
:10037000747FC0E07400C0E07480C0E0742DC0E001
:100380007400C0E07440C0E0120CDEE58124F6F594
:1003900081752C01D20290002D75F0401201E9AA5E
:1003A000257B00AC267D00C002C003C004C00574DC
:1003B00087C0E07400C0E07480C0E0742DC0E074B9
:1003C00000C0E07440C0E0120CDEE58124F6F58147
:1003D000752C02D20290002D75F0400201E97542A1
:1003E00000E4F543F544F545FEFFF552F553C0062C
:1003F000C0071201191201B512026412027A120228
:1004000091D007D0067546007547007548007549BC
:10041000007C007D0085F582C004C005C006C007D1
:10042000120BF5AA82AB83A8F0F9E4C0E0C0E07437
:100430007FC0E07443C0E08A828B8388F0E9120DAC
:100440002FAA82AB83A8F0F9E58124FCF581C002D4
:10045000C003C000C00190333375F0537440120BD9
:100460005285825485835585F056F557E58124FCE5
:10047000F58185D682120BF5AA82AB83A8F0F9E448
:10048000C0E0C0E0747FC0E07443C0E08A828B8328
:1004900088F0E9120D2FAA82AB83A8F0F9E5812438
:1004A000FCF581C002C003C000C00190333375F079
:1004B000537440120B5285825885835985F05AF542
:1004C0005BE58124FCF58185D782120BF5AA82AB0E
:1004D00083A8F0F9E4C0E0C0E0747FC0E07443C0DA
:1004E000E08A828B8388F0E9120D2FAA82AB83A861
:1004F000F0F9E58124FCF581C002C003C000C00111
:1005000090333375F0537440120B5285825C8583AF
:100510005D85F05EF55FE58124FCF581D007D006AE
:10052000D005D004300013C004C005C006C00712B7
:100530000315D007D006D005D004C004C005C006FE
:10054000C007E4C0E0C0E0C0E0C0E0855882855943
:1005500083855AF0E55B120B22858260E58124FCDD
:10056000F581D007D006D005D004E560603EC00418
:10057000C005C006C007E4C0E0C0E0C0E0C0E08540
:100580005C82855D83855EF0E55F120B22AA82E5C1
:100590008124FCF581D007D006D005D004EA600C98
:1005A000754200754300754400754500E560603E86
:1005B000C004C005C006C007E4C0E0C0E0C0E0C0A1
:1005C000E0855C82855D83855EF0E55F120AF2AAB4
:1005D00082E58124FCF581D007D006D005D004EA5D
:1005E000600C7542007543007544807545BFC004BA
:1005F000C005C006C007E4C0E0C0E0C0E0C0E085C0
:100600005882855983855AF0E55B120AF2AA82E581
:100610008124FCF581D007D006D005D004EA6042E1
:10062000C002C004C005C006C007E4C0E0C0E0C00E
:10063000E0C0E0855C82855D83855EF0E55F120B3E
:1006400022AB82E58124FCF581D007D006D005D00D
:1006500004D002EB600C7542007543007544807550
:10066000453FEA70030206E5C004C005C006C007A6
:10067000E4C0E0C0E0C0E0C0E0855C82855D8385C9
:100680005EF0E55F120AF2AA82E58124FCF581D0D2
:1006900007D006D005D004EA604BC004C005C006F0
:1006A000C007E4C0E0C0E0C0E0C0E0854682854706
:1006B000838548F0E549120AF2AA82E58124FCF517
:1006C00081D007D006D005D004EA600C75420075D1
:1006D00043007544A0754540EA700AF542F543753C
:1006E00044A07545C0C004C005C006C007C046C0D0
:1006F00047C048C0498542828543838544F0E5452B
:10070000120D24AA82AB83A8F0F9E58124FCF581BF
:10071000746FC0E07412C0E07483C0E0743AC0E04B
:100720008A828B8388F0E9120D2FAA82AB83A8F00E
:10073000F9E58124FCF581C002C003C000C0018539
:1007400042828543838544F0E545120C0085823E54
:1007500085833F85F040F541E58124FCF581C03E6D
:10076000C03FC040C04190000075F0C87442120DF7
:100770002485824A85834B85F04CF54DE58124FC28
:10078000F581E4C0E0C0E074C8C0E07442C0E08518
:100790003E82853F838540F0E541120C0085824E04
:1007A00085834F85F050F551E58124FCF581E4C047
:1007B000E0C0E0C0E0C0E0854A82854B83854CF014
:1007C000E54D120B22AA82E58124FCF581D007D0E9
:1007D00006D005D004EA600C754A00754B00754CD4
:1007E00000754D00C004C005C006C007E4C0E0C0ED
:1007F000E074C8C0E07442C0E0854E82854F8385B6
:1008000050F0E551120AF2AA82E58124FCF581D06C
:1008100007D006D005D004EA600C754E00754F0075
:100820007550C8755142C004C005C006C007E4C079
:10083000E0C0E0C0E0C0E08542828543838544F0AB
:10084000E545120AF2AA82E58124FCF581D007D0A1
:1008500006D005D004EA6035854A82854B83854CF5
:10086000F0E54DC004C005C006C007120E4E8582DB
:1008700028854E82854F838550F0E551120E4E85B6
:100880008229D007D006D005D004020965C004C073
:1008900005C006C007E4C0E0C0E0C0E0C0E085429B
:1008A000828543838544F0E545120B22AA82E581C7
:1008B00024FCF581D007D006D005D004EA60348549
:1008C0004E82854F838550F0E551C004C005C006B7
:1008D000C007120E4E858228854A82854B83854C3F
:1008E000F0E54D120E4E858229D007D006D005D0F6
:1008F000048072C004C005C006C007E4C0E0C0E0C8
:10090000C0E0C0E08546828547838548F0E549120E
:100910000AF2AA82E58124FCF581D007D006D00531
:10092000D004EA60087528647529148038C004C0B2
:1009300005C006C007E4C0E0C0E0C0E0C0E08546F6
:10094000828547838548F0E549120B22AA82E5811A
:1009500024FCF581D007D006D005D004EA600675E6
:1009600029647528140CBC00010D85424685434757
:10097000854448854549BC1E50BD004DAA297B00D1
:10098000A8287900C004C005C006C007C002C00383
:10099000C000C001C05CC05DC05EC05FC058C0592F
:1009A000C05AC05BC042C043C044C0457491C0E05F
:1009B0007400C0E07480C0E0120C6EE58124EDF597
:1009C00081D007D006D005D004C004C005C006C041
:1009D00007E4C0E0C0E0C0E0C0E0855482855583F4
:1009E0008556F0E557120AF2AA82E58124FCF581CA
:1009F000D007D006D005D004EA7003020415EE4FEC
:100A000070090EBE00010FD20180050EBE00010F5D
:100A100074D0B52A127407B52B0DC201E4F52AF57E
:100A20002B755201E4F5537401B55206E4B5530237
:100A300080028076BE0205BF00028010BE0305BFA3
:100A400000028025BE045CBF0059803AC004C00586
:100A500074C6C0E07400C0E07480C0E0120C6E1573
:100A60008115811581D005D004C004C00574D6C09D
:100A7000E07400C0E07480C0E0120C6E1581158136
:100A80001581D005D004C004C00574E7C0E074002F
:100A9000C0E07480C0E0120C6E158115811581D004
:100AA00005D004E4F552F553FEFFC004C005C006AE
:100AB000C007C006C00774F3C0E07400C0E07480D3
:100AC000C0E0120C6EE58124FBF581D007D006D082
:100AD00005D00402041520F71430F6148883A88288
:100AE00020F507E6A88375830022E280F7E49322CD
:100AF000E022FFA8811818120E74D2D133E6400705
:100B000030E70B7582012220E70675820022C2D1F0
:100B1000120E56E97003F5822230D101B3E433F5A9
:100B20008222FFA8811818120E74D2D133E6400732
:100B300030E70B7582002220E70675820122C2D1C0
:100B4000120E56E97003F5822220D101B3E433F589
:100B50008222120F21BC0003020EC0EF60FA30D5D2
:100B600002B2D1E583B4FF03020ED6E582B4FF03DF
:100B7000020ED6258340072482400B020EC0248338
:100B8000145003020ED6F582EA8DF0A4A8F0EA8E86
:100B9000F0A428F8E435F0F9EB8DF0A428E935F05D
:100BA000F9E433CA8FF0A429F9EA35F0FAEBF88EAC
:100BB000F0A429F9EA35F0FAE433FBEC8DF0A4292E
:100BC000F9EA35F0FAE43BFBE88FF0A42AFAEB35BA
:100BD000F0FBE433CCFD8EF0A42AFAEB35F0FBE415
:100BE0003CFCED8FF0A42BFBEC35F0FC20E703126E
:100BF0000EEE020E9FE4AC82FBFAF97486020F58E7
:100C0000120F217900E583B58202800D5003120F87
:100C100062E583C39582120F7CE5D0C465D020E1E4
:100C200017EA2DFAEB3EFBEC3FFC50097401120F62
:100C30007CEC4480FC020E9FC3EA9DFAEB9EFBEC29
:100C40009FFC500FC3E499F9E49AFAE49BFBE49CFF
:100C5000FCB2D1120EEE020E9F02194B85826F85F7
:100C6000837085F071851072900C5902139EC00834
:100C7000858108E50824FBF572E50824FBF8866FFA
:100C8000088670088671900C5912139ED00822AA0B
:100C900082AB09AC0AAD0B8B828C838DF0EA121902
:100CA000600509E4B50902050A2285820985830ADF
:100CB00085F00B850C6F850D70850E71850F729018
:100CC0000C8F12139EAA82AB83AC09AD0AAE0B8CBB
:100CD000828D838EF0E41219608A828B8322C00891
:100CE000858108E50824F8F572E50824FBF88609F3
:100CF00008860A08860BE50824F8F8866F088670CF
:100D0000088671900C8F12139EAA82AB83AC09AD3A
:100D10000AAE0B8C828D838EF0E41219608A828B6E
:100D200083D00822A8811818C6B2E7C6020C0012A8
:100D30000F2130D502B2D1BF0009BC0003020EE37F
:100D4000020ED6BC0003020EC0E583B4FF0BE582A1
:100D5000B4FF03020EE3020EC0E582B4FF03020EED
:100D6000D6C395835007247F400B020EC024801405
:100D70005003020ED6C0E0E4CCCBCAF98D118E121E
:100D80008F13EF54F0C4F5147583068514F0EB84CB
:100D9000F582E9C4F9EAC4FAEBC4FBEC540FC47859
:100DA00003D6FC18EBD6FB18EAD6FA8582F0EDA440
:100DB000A8F0FD8582F0EEA428FEE435F0F88582E7
:100DC000F0EFA428FFE435F0F8E99DF9EA9EFAEB8C
:100DD0009FFBEC98FCAD11AE12AF1330E7101582FB
:100DE000E92DF9EA3EFAEB3FFBE43CFC80EDC082E2
:100DF000D58398C3E933F9EA33FAEB33FBEC33FCE0
:100E0000C3E99DEA9EEB9FEC9400B3E413F9D00292
:100E1000D0E0C44AFAD003D0E0C44BFBD004D0E009
:100E2000F5F0540FC44CFCD082158230F40FD3EC93
:100E300013FCEB13FBEA13FAE913F90582E930E737
:100E40000A74012AFAE43BFBE43CFC020EB77F86FD
:100E500012197FF582227901AA82E68F82B5821368
:100E600018E6B5F00E18E6B5830918E68A82B58251
:100E700002790022B4800FE5F0700AE5837006E580
:100E80008270027F00EFB6801518B6001018B60009
:100E90000B18B6000608080876002208080822B9D0
:100EA0008003EA13B34010EA2401FAE43BFBE43C7C
:100EB000FC50047C800582BC000EBB000BBA00080D
:100EC000E4F5F0F583F58222A2D1E582138CF0924D
:100ED000F78B838A8222E4F583F58275F080F4A291
:100EE000D11322E4F583F58275F0C0747F22780473
:100EF000EC7011E58224F8500AF582E4C9CACBFCF3
:100F0000D8EF22EC7820058220E713D5820122C396
:100F1000E933F9EA33FAEB33FBEC33FCD8EA158218
:100F200022AA82AB83A2F73392D16002D2F7F58274
:100F3000ACF0E58124F9F8E6FD08E6FE0886F00845
:100F4000E6A2F73392D56002D2F7F583AFF022FC28
:100F5000ABF0AA83A982749EC2D1F582120EEE0272
:100F60000E9FE582C583F582A2D133A2D592D1131B
:100F700092D5ECCFFCEBCEFBEACDFA226040F8250F
:100F800082500274FFF582E824F8501ECCCBCAF9D7
:100F9000E4CC24F85014CBCAF9E4CB24F8500BCAA3
:100FA000F9E4CA24F8500379002224086010F8C339
:100FB000EC13FCEB13FBEA13FAE913F9D8F122AABC
:100FC0008274D0C0E0740FC0E0C061C0628A822227
:100FD0000568E4B56802056922AA8274302AFA24F9
:100FE000C6500A74072AFA3003034302208A820299
:100FF0000FBFE582FAC4540FF582C002120FD9D098
:1010000002740F5AF582020FD9AA63AB64AC65ADC6
:1010100066AE67756E20EE2EFEED235401FF42068C
:10102000EA2AFAEB33FBEC33FCED33FDC3EE956AB1
:101030004008EEC3956AFE430201D56ED98A638BE0
:10104000648C658D668E6722787FE624D075F00A01
:10105000A4FA7880E624D02AFA787E8603BB2D0491
:10106000C3E49AFA756A01C3E464808AF063F0808D
:1010700095F05029756E038A0374F6256E401C05A1
:101080006AE56E142473F8E56E2473F98704A604E8
:10109000772E1BEBFA6004056E80DE8B02EA30E7E8
:1010A0000D787486037875A6037874762E0AE56C3D
:1010B000600AE56C04FB256AF56A8005300E0205BE
:1010C0006A78738603E4BB2D0104FB7006200903D4
:1010D000300A02056A30070302118F300857EB60AF
:1010E0000C75822DC002120FBFD002801C30090C7B
:1010F00075822BC002120FBFD002800D300A0A7514
:101100008220C002120FBFD00278748604BC2E0C5D
:10111000758230C002120FBFD002156BAC6B156B1D
:10112000C3E56A9C40030211D3758230C002120FDE
:10113000BFD00280E7AC6B156BC3E56A9C500C75A1
:101140008220C002120FBFD00280EA78738604BCEE
:101150002D0C75822DC002120FBFD002801C3009E9
:101160000C75822BC002120FBFD002800D300A0A0C
:10117000758220C002120FBFD00278748604BC2E84
:1011800052758230C002120FBFD002156B8044EB43
:10119000600E75822DC002120FBFD002156B802029
:1011A00030090E75822BC002120FBFD002156B8062
:1011B0000F300A0C758220C002120FBFD002156BCF
:1011C00078748603BB2E0C758230C002120FBFD01C
:1011D00002156B756E01C210E56E2473F88603BBB1
:1011E0004503021290BB2E348A03C3E464808BF063
:1011F00063F08095F0500F758230C003120FBFD09E
:10120000031B8B0280E48B02D210E56C7038200E39
:101210000302129075822E120FBF80743010278A3D
:1012200003EB30E71FC3E46480856CF063F08095C6
:10123000F0500C758230C003120FBFD003156C0B39
:101240008B0280DD8B0230100EC3E46480856CF06D
:1012500063F08095F05021E56E2473F886038B824D
:10126000C002120FBFD00230100EE56E2473F88654
:1012700003BB2E028002156C156BC3E46480856C81
:10128000F063F08095F04003201005056E0211D840
:10129000C3E46480856CF063F08095F0500A758239
:1012A00030120FBF156C80E830070FAA6B156BEA80
:1012B0006008758220120FBF80F122E56C70033048
:1012C0000E0D7407256CFAE56BC39AF56B8006E585
:1012D0006B24FAF56B756E0078738602BA2B0F20BB
:1012E000090C78737620200A05756E01056B2007BE
:1012F00019AA6BC3E464808AF063F08095F0500A09
:10130000758220120FBF156B80E7C210E56E247343
:10131000F88602BA00028069BA451F30030276657A
:10132000C3E46480856CF063F08095F0500A7582A8
:1013300030120FBF156C80E8D210C3E56E9402E442
:1013400033FA7014EA700EC3E46480856CF063F0C5
:101350008095F04003301016E56E2473F886028AFB
:1013600082120FBFE56E24FD5012156C800E7402C0
:10137000B56E09300E0675822E120FBF056E021370
:101380000C300719AA6BC3E464808AF063F080957F
:10139000F0500A758220120FBF156B80E7228582FC
:1013A00061858362E4F568F569AA6FAB70AC718AF8
:1013B000828B838CF0120AD6FD74012AF56FE43B10
:1013C000F5708C71EDFA7003021944BA250280039E
:1013D00002193CC207C208C209C20AC20BC20CC22F
:1013E0000DC20EC204C205C206756A00756B007597
:1013F0006CFFAB6FAC70AD718B828C838DF0120A79
:10140000D6FAA3AB82AC838B6F8C708D71BA250733
:101410008A82120FBF80928A06BE3000402E8A0652
:10142000EE24C6402774FFB56C13E56B75F00AA473
:10143000FEEA24D02EF56B70BFD20880BBE56C7538
:10144000F00AA4FEEA24D02EF56C80ACBA2E0A7401
:10145000FFB56CA4756C00809F8A06BE6100400ECB
:101460008A06EE248540075302DFD2038002C203BE
:10147000BA20028075BA23030214F9BA2A030214AF
:10148000FEBA2B02805FBA2D028055BA4202805FFD
:10149000BA4303021543BA440302167EBA45030257
:1014A0001698BA4603021694BA470302169CBA4924
:1014B0000302167EBA4C02803BBA4E030216A0BA53
:1014C0004F03021685BA5003021617BA53030215CA
:1014D00067BA550302168ABA580302168F0216CA53
:1014E000D2070213F8D2090213F8D20A0213F8D273
:1014F0000C0213F8D20D0213F8D20E0213F874FF87
:10150000B56C20300C0BE57214F88872866B0213F0
:10151000F8E57224FEF888728606088607188E6B36
:101520000213F8300C0BE57214F88872866C021303
:10153000F8E57224FEF888728606088607188E6C15
:101540000213F8300C0AE57214F888728602800FD4
:10155000E57224FEF888728603088604188B028AD6
:1015600082120FBF0216CFE57224FDF8887286033F
:1015700008860408860518188B638C648D658B8239
:101580008C838DF0121AC3AB82AC838B6D74FFB564
:101590006C03856D6C20071DC3E56D956B5016E5DA
:1015A0006BC3956DF56BAB6B156BEB6008758220AB
:1015B000120FBF80F18563828564838565F0120A0E
:1015C000D6FBFA6029AB6C156CC3E464808BF063C6
:1015D000F08095F050188A82120FBFAB63AC64ADF7
:1015E000650BBB00010C8B638C648D6580C7200785
:1015F000030216CFC3E56D956B40030216CFE56B72
:10160000C3956DF56BAB6B156BEB70030216CF7565
:101610008220120FBF80EEE57224FDF888728603E7
:1016200008860408860518188B638C648D65E5654B
:10163000FB30E7047A438013EB546060047A5080F7
:101640000AEB30E6047A4980027A588A82C0021294
:101650000FBF75823A120FBF758230120FBF7582AD
:1016600078120FBFD002BA4902800BBA500280062E
:10167000856482120FF2856382120FF28051D20BC1
:10168000756A0A804A756A088045756A0A804075DD
:101690006A10803BD2048037D2058033D206802F77
:1016A000E57224FDF888728603088604088605180A
:1016B000188B638C648D658B828C838DF0E568124A
:1016C0001960A3E56912196080058A82120FBF2094
:1016D0000406200503300670E57224FCF888728643
:1016E000030886040886050886061818188B638C7C
:1016F000648D658E66E563E564E565E5668B828CE1
:10170000838DF0EE1219A474FFB56C03756C06306E
:101710000627747F5566FB8B67E567EB2BFB8B67B2
:10172000E56530E70674014567F567E567246840BD
:1017300006749925674002D2053005061212BB02D5
:1017400013A91210480213A9E56A70030213A97BBA
:1017500078300C2BE57214F88872E6FC3395E0FDC6
:10176000FEFF8C638D648E658F66200B5EAC637D9F
:10177000007E007F008C638D648E658F66804C30A8
:101780000D1FE57224FCF888728604088605088619
:10179000060886071818188C638D648E658F66801E
:1017A0002AE57224FEF88872860408860518ED334F
:1017B00095E0FEFF8C638D648E658F66200B0CAC0C
:1017C00063AD647E007F008E658F66300E43E563F7
:1017D00045644565456660397408B56A0C758230A4
:1017E000C003120FBFD00380287410B56A2375821E
:1017F00030C003120FBFD00330030C758278C003D2
:10180000120FBFD003800A758258C003120FBFD0D9
:1018100003300B25AC63AD64AE65E566FF30E717BA
:10182000C3E49CFCE49DFDE49EFEE49FFF8C638D7D
:10183000648E658F668002C20B756D00D20F8B00BF
:10184000756700C000121009D000200F0DE567C4B5
:10185000FCE6FD4CF61888038002A667056DB20F02
:10186000E56345644565456670D68803E56B70039E
:10187000756B0120081A200717E56D04FCC3956BF2
:10188000500E758220C003120FBFD003156B80E984
:10189000300B0E75822DC003120FBFD003156B8065
:1018A00024E56D602030090E75822BC003120FBF36
:1018B000D003156B800F300A0C758220C003120F05
:1018C000BFD003156B20071EAC6B156BC3E56D9C79
:1018D00050273008047C3080027C208C82C00312A8
:1018E0000FBFD00380E2C3E56D956B5009E56BC374
:1018F000956DF56B8003756B008B00AB6D156DEB13
:101900006022B20F200F0A08E6C4540FFB8B6780D9
:10191000078603740F5BF567856782C000120FD9D5
:10192000D00080D72007030213A9AB6B156BEB70B7
:10193000030213A9758220120FBF80EE8A82120F54
:10194000BF0213A985688285698322AA82BA0A0820
:1019500010990280FB75990D10990280FB8A9922DB
:1019600020F71030F6118883A88220F507F6A883A7
:1019700075830022F280F7F022758200227F9E128A
:101980001AEB30D103020EC0C3EF9582500974FFE9
:10199000F5F0F583F582227900120F7C89828A8323
:1019A0008BF0EC22C0E0F84582458345F07009F5E4
:1019B000F0FBFCFDFE021A72E823A2F792E0F8A900
:1019C00082AA83D2F7ABF07C007E07C3749798405D
:1019D0004074FF2EFE740A89F0A4F985F082740A1F
:1019E0008AF0A4FA85F083740A8BF0A4FB740529AD
:1019F000F9EA3582FAEB3583FB740035F0FCC3EC71
:101A000013FCEB13FBEA13FAE913F908EC70EF800F
:101A1000BAE8C3947FF88B838EF0E4FBFCFDFEFFF5
:101A200008C3E933F9EA33FAE58333F583EB3BD4B2
:101A3000FBEC3CD4FCED3DD4FDEE3ED4FEEF3FD4B8
:101A4000FF602D05F074052BD4FBE43CD4FCE43D91
:101A5000D4FDE43ED4FEE43FD4FF758204C3EF130B
:101A6000FFEE13FEED13FDEC13FCEB13FBD582ED43
:101A7000D8AF7873D0E020E704762B8002762D086B
:101A80007906E7C4540F4430F608B90603762E08E9
:101A9000E7540F4430F60819B902E7764508E5F037
:101AA00020E704762B8004762DF4040875F00A8470
:101AB0004430F608E5F04430F608E4F6900073751B
:101AC000F04022AA82AB83ACF07D007E008A828B3C
:101AD000838CF0120AD6FFA3AA82AB83EF60070DB6
:101AE000BD00EA0E80E78D828E8322AA82AB83A29C
:101AF000F73392D16002D2F7F582ACF022000000F9
:00000001FF
