:1000000002000E0000000000000000020272758174
:100010007E12118DE582600302007A780079007A01
:10002000007B007C007D00EC4D601C88828983E4AD
:1000300093A3A882A9838A828B83F0A3AA82AB832D
:100040001CBCFFE31D80E07582007583007C007D91
:1000500000EC4D600AE4F0A31CBCFFF51D80F275B6
:1000600082007583007C007D00EC4D600AE4F0A303
:100070001CBCFFF51D80F21200A71203C980FE56BA
:10008000303A2025342E3266560056313A20253437
:100090002E32665600563D25352E3266002530320A
:1000A000643A2530326400E4F522F52375240075A6
:1000B0002500C2002275841E758500759100759219
:1000C0000075A40075A50075B10075B200227852C4
:1000D000D8FE22AA82AB837C007D00C3EC9AED9B04
:1000E00050227E14C002C003C004C005C006120026
:1000F000CED006D005D004D003D002DEE70CBC0081
:10010000DA0D80D722D2A51200CEC2A5228582E0C8
:10011000A2E79294A2E69296A2E59297A2E492A018
:10012000A2E392A1A2E292A2A2E192A3A2E092A4EF
:10013000020105AA82D2A78A8212010D9000020252
:1001400000D3AA82C2A78A8212010D900005020084
:10015000D3C2A5C2A69000141200D3758233120137
:100160004275823312014275823312014275823820
:1001700012014275820C12014275820112014290F5
:1001800000140200D3AA82AB83ACF07402B526043B
:100190007DC080027D808D82C002C003C004120138
:1001A000429000051200D3D004D003D0027D00EDB0
:1001B0002AFEE43BFF8C008E828F8388F01204A716
:1001C000FE60188E82C002C003C004C00512013355
:1001D000D005D004D003D0020D80D43001148D029C
:1001E000BA1000500D758220C002120133D0020AED
:1001F00080EE2275277375286F75296D752A6575D0
:100200002B74752C68752D69752E6E752F6775307A
:1002100000752602D20190002775F04012018580FA
:10022000D27A2879FA78B8D8FED9FADAF62275BDEA
:100230000075BF0075BE3075BD037598527591008D
:100240007592002243841E5385E1D2C675A12075A4
:10025000A3F0759705E59730E3FB22C28C74F05547
:10026000894401F589758CF1758A9AD28CD2A9D20C
:10027000AF22C0E0C0D075D000C28C758CF1758AF9
:100280009AD28C74012522F522E43523F52374E8F3
:10029000B522207403B5231BD200E4F522F5230513
:1002A00024743CB5240D7524000525743CB5250344
:1002B000752500D0D0D0E03285D582120566AA829D
:1002C000AB83ACF0FDC002C003C004C00590333363
:1002D00075F05374401204C3AA82AB83ACF0FDE501
:1002E0008124FCF581E4C0E0C0E0747FC0E0744389
:1002F000C0E08A828B838CF0ED120606AA82AB8363
:10030000ACF0FDE58124FCF581C002C003C004C04F
:1003100005747FC0E07400C0E07480C0E0743BC02E
:10032000E07400C0E07440C0E01205C0E58124F62E
:10033000F581752601D20190003B75F040120185D0
:1003400085D682120566AA82AB83ACF0FDC002C0DE
:1003500003C004C00590333375F05374401204C3D6
:10036000AA82AB83ACF0FDE58124FCF581E4C0E01A
:10037000C0E0747FC0E07443C0E08A828B838CF05D
:10038000ED120606AA82AB83ACF0FDE58124FCF5F4
:1003900081C002C003C004C005748AC0E07400C0FC
:1003A000E07480C0E0743BC0E07400C0E07440C002
:1003B000E01205C0E58124F6F581752602D2019090
:1003C000003B75F040020185221200B51201511266
:1003D000022E12024412025B10000280FB85D582BD
:1003E000120566AA82AB83ACF0FDE4C0E0C0E07405
:1003F0007FC0E07443C0E08A828B838CF0ED1206EC
:1004000006AA82AB83ACF0FDE58124FCF581C00235
:10041000C003C004C00590333375F0537440120418
:10042000C3AA82AB83ACF0FDE58124FCF581C00258
:10043000C003C004C0057495C0E07400C0E07480BF
:10044000C0E0744CC0E07400C0E07440C0E012052D
:10045000C0E58124F6F581752601D20190004C7526
:10046000F040120185AA247B00AC257D00C002C0AB
:1004700003C004C005749DC0E07400C0E07480C077
:10048000E0744CC0E07400C0E07440C0E01205C0ED
:10049000E58124F6F581752602D20190004C75F0B5
:1004A000401201850203D820F71430F6148883A87F
:1004B0008220F507E6A88375830022E280F7E493A3
:1004C00022E0221207A7BC0003020746EF60FA30C1
:1004D000D502B2D1E583B4FF0302075CE582B4FF25
:1004E0000302075C258340072482400B0207462451
:1004F0008314500302075CF582EA8DF0A4A8F0EAA9
:100500008EF0A428F8E435F0F9EB8DF0A428E93555
:10051000F0F9E433CA8FF0A429F9EA35F0FAEBF8E0
:100520008EF0A429F9EA35F0FAE433FBEC8DF0A45F
:1005300029F9EA35F0FAE43BFBE88FF0A42AFAEB5C
:1005400035F0FBE433CCFD8EF0A42AFAEB35F0FB5A
:10055000E43CFCED8FF0A42BFBEC35F0FC20E70332
:10056000120774020725E4AC82FBFAF974860207CD
:10057000DEAA82AB09AC0AAD0B8B828C838DF0EACC
:100580001211740509E4B50902050A22858209855C
:10059000830A85F00B850C6B850D6C850E6D850FC0
:1005A0006E900571120BC7AA82AB83AC09AD0AAE7F
:1005B0000B8C828D838EF0E41211748A828B8322DD
:1005C000C008858108E50824F8F56EE50824FBF8E5
:1005D000860908860A08860BE50824F8F8866B0861
:1005E000866C08866D900571120BC7AA82AB83AC2E
:1005F00009AD0AAE0B8C828D838EF0E41211748AE1
:10060000828B83D008221207A730D502B2D1BF0057
:1006100009BC000302076902075CBC00030207462D
:10062000E583B4FF0BE582B4FF03020769020746C6
:10063000E582B4FF0302075CC395835007247F4023
:100640000B020746248014500302075CC0E0E4CC90
:10065000CBCAF98D108E118F12EF54F0C4F51375BB
:1006600083068513F0EB84F582E9C4F9EAC4FAEB5A
:10067000C4FBEC540FC47803D6FC18EBD6FB18EA85
:10068000D6FA8582F0EDA4A8F0FD8582F0EEA428CC
:10069000FEE435F0F88582F0EFA428FFE435F0F8A9
:1006A000E99DF9EA9EFAEB9FFBEC98FCAD10AE11C8
:1006B000AF1230E7101582E92DF9EA3EFAEB3FFB65
:1006C000E43CFC80EDC082D58398C3E933F9EA337A
:1006D000FAEB33FBEC33FCC3E99DEA9EEB9FEC9411
:1006E00000B3E413F9D002D0E0C44AFAD003D0E05A
:1006F000C44BFBD004D0E0F5F0540FC44CFCD082C6
:10070000158230F40FD3EC13FCEB13FBEA13FAE978
:1007100013F90582E930E70A74012AFAE43BFBE4A5
:100720003CFC02073DB98003EA13B34010EA240100
:10073000FAE43BFBE43CFC50047C800582BC000EE8
:10074000BB000BBA0008E4F5F0F583F58222A2D1D4
:10075000E582138CF092F78B838A8222E4F583F58D
:100760008275F080F4A2D11322E4F583F58275F04E
:10077000C0747F227804EC7011E58224F8500AF5E9
:1007800082E4C9CACBFCD8EF22EC7820058220E7AE
:1007900013D5820122C3E933F9EA33FAEB33FBECD8
:1007A00033FCD8EA158222AA82AB83A2F73392D116
:1007B0006002D2F7F582ACF0E58124F9F8E6FD0895
:1007C000E6FE0886F008E6A2F73392D56002D2F77B
:1007D000F583AFF022FCABF0AA83A982749EC2D14C
:1007E000F582120774020725AA8274F9C0E0740723
:1007F000C0E0C05DC05E8A82220564E4B564020583
:100800006522AA8274302AFA24C6500A74072AFA8A
:100810003002034302208A820207E8E582FAC454C8
:100820000FF582C002120802D002740F5AF582023C
:100830000802AA5FAB60AC61AD62AE63756A20EE80
:100840002EFEED235401FF4206EA2AFAEB33FBECBD
:1008500033FCED33FDC3EE95664008EEC39566FEAE
:10086000430201D56AD98A5F8B608C618D628E6389
:1008700022787BE624D075F00AA4FA787CE624D0AE
:100880002AFA787A8603BB2D04C3E49AFA756601C6
:10089000C3E464808AF063F08095F05029756A03A0
:1008A0008A0374F6256A401C0566E56A14246FF80D
:1008B000E56A246FF98704A604772E1BEBFA60041F
:1008C000056A80DE8B02EA30E70D78708603787166
:1008D000A6037870762E0AE568600AE56804FB25B1
:1008E00066F5668005300D020566786F8603E4BB09
:1008F0002D0104FB7006200803300902056630064E
:10090000030209B8300757EB600C75822DC0021244
:1009100007E8D002801C30080C75822BC002120739
:10092000E8D002800D30090A758220C0021207E863
:10093000D00278708604BC2E0C758230C00212077B
:10094000E8D0021567AC671567C3E5669C400302F3
:1009500009FC758230C0021207E8D00280E7AC675C
:100960001567C3E5669C500C758220C0021207E82B
:10097000D00280EA786F8604BC2D0C75822DC002EF
:100980001207E8D002801C30080C75822BC00212BE
:1009900007E8D002800D30090A758220C0021207D4
:1009A000E8D00278708604BC2E52758230C00212E4
:1009B00007E8D00215678044EB600E75822DC002F7
:1009C0001207E8D0021567802030080E75822BC010
:1009D000021207E8D0021567800F30090C758220DB
:1009E000C0021207E8D002156778708603BB2E0C90
:1009F000758230C0021207E8D0021567756A01C21D
:100A00000FE56A246FF88603BB4503020AB9BB2EC3
:100A1000348A03C3E464808BF063F08095F0500F58
:100A2000758230C0031207E8D0031B8B0280E48B71
:100A300002D20FE5687038200D03020AB975822EC4
:100A40001207E88074300F278A03EB30E71FC3E4F6
:100A500064808568F063F08095F0500C758230C03A
:100A6000031207E8D00315680B8B0280DD8B023080
:100A70000F0EC3E464808568F063F08095F0502128
:100A8000E56A246FF886038B82C0021207E8D00261
:100A9000300F0EE56A246FF88603BB2E0280021524
:100AA000681567C3E464808568F063F08095F04062
:100AB00003200F05056A020A01C3E464808568F01B
:100AC00063F08095F0500A7582301207E81568804F
:100AD000E830060FAA671567EA60087582201207DA
:100AE000E880F122E5687003300D0D74072568FA7F
:100AF000E567C39AF5678006E56724FAF567756AC6
:100B000000786F8602BA2B0F20080C786F762020B1
:100B10000905756A010567200619AA67C3E46480A0
:100B20008AF063F08095F0500A7582201207E8156C
:100B30006780E7C20FE56A246FF88602BA00028078
:100B400069BA451F3002027665C3E464808568F0A7
:100B500063F08095F0500A7582301207E8156880BE
:100B6000E8D20FC3E56A9402E433FA7014EA700E17
:100B7000C3E464808568F063F08095F04003300F33
:100B800016E56A246FF886028A821207E8E56A246D
:100B9000FD50121568800E7402B56A09300D067595
:100BA000822E1207E8056A020B35300619AA67C3C0
:100BB000E464808AF063F08095F0500A7582201218
:100BC00007E8156780E72285825D85835EE4F5642A
:100BD000F565AA6BAB6CAC6D8A828B838CF01204CA
:100BE000A7FD74012AF56BE43BF56C8C6DEDFA7092
:100BF0000302116DBA25028003021165C206C20705
:100C0000C208C209C20AC20BC20CC20DC203C2048E
:100C1000C2057566007567007568FFAB6BAC6CAD9F
:100C20006D8B828C838DF01204A7FAA3AB82AC8308
:100C30008B6B8C6C8D6DBA25078A821207E88092C7
:100C40008A06BE3000402E8A06EE24C6402774FF76
:100C5000B56813E56775F00AA4FEEA24D02EF5679F
:100C600070BFD20780BBE56875F00AA4FEEA24D005
:100C70002EF56880ACBA2E0A74FFB568A4756800BA
:100C8000809F8A06BE6100400E8A06EE24854007DA
:100C90005302DFD2028002C202BA20028075BA2358
:100CA00003020D22BA2A03020D27BA2B02805FBA73
:100CB0002D028055BA4202805FBA4303020D6CBA1E
:100CC0004403020EA7BA4503020EC1BA4603020E40
:100CD000BDBA4703020EC5BA4903020EA7BA4C02B9
:100CE000803BBA4E03020EC9BA4F03020EAEBA5091
:100CF00003020E40BA5303020D90BA5503020EB31D
:100D0000BA5803020EB8020EF3D206020C21D20822
:100D1000020C21D209020C21D20B020C21D20C02AE
:100D20000C21D20D020C2174FFB56820300B0BE5AD
:100D30006E14F8886E8667020C21E56E24FEF88832
:100D40006E8606088607188E67020C21300B0BE5AD
:100D50006E14F8886E8668020C21E56E24FEF88811
:100D60006E8606088607188E68020C21300B0AE58D
:100D70006E14F8886E8602800FE56E24FEF8886E89
:100D80008603088604188B028A821207E8020EF88E
:100D9000E56E24FDF8886E8603088604088605182B
:100DA000188B5F8C608D618B828C838DF01212B0FA
:100DB000AB82AC838B6974FFB568038569682006D4
:100DC0001DC3E56995675016E567C39569F567AB7F
:100DD000671567EB60087582201207E880F1855F70
:100DE000828560838561F01204A7FBFA6029AB68F5
:100DF0001568C3E464808BF063F08095F050188A26
:100E0000821207E8AB5FAC60AD610BBB00010C8BDD
:100E10005F8C608D6180C7200603020EF8C3E56910
:100E200095674003020EF8E567C39569F567AB6700
:100E30001567EB7003020EF87582201207E880EE4A
:100E4000E56E24FDF8886E8603088604088605187A
:100E5000188B5F8C608D61E561FB30E7047A43801D
:100E600013EB546060047A50800AEB30E6047A4950
:100E700080027A588A82C0021207E875823A120705
:100E8000E87582301207E87582781207E8D002BA56
:100E90004902800BBA5002800685608212081B85C9
:100EA0005F8212081B8051D20A75660A804A7566F5
:100EB00008804575660A8040756610803BD20380C5
:100EC00037D2048033D205802FE56E24FDF8886E7A
:100ED000860308860408860518188B5F8C608D6170
:100EE0008B828C838DF0E564121174A3E565121179
:100EF0007480058A821207E8200306200403300567
:100F000070E56E24FCF8886E860308860408860562
:100F10000886061818188B5F8C608D618E62E55FFD
:100F2000E560E561E5628B828C838DF0EE121191B4
:100F300074FFB56803756806300527747F5562FB3A
:100F40008B63E563EB2BFB8B63E56130E706740194
:100F50004563F563E56324684006749925634002A0
:100F6000D204300406120AE4020BD2120871020BFA
:100F7000D2E5667003020BD27B74300B2BE56E1446
:100F8000F8886EE6FC3395E0FDFEFF8C5F8D608E89
:100F9000618F62200A5EAC5F7D007E007F008C5F07
:100FA0008D608E618F62804C300C1FE56E24FCF8E2
:100FB000886E8604088605088606088607181818AD
:100FC0008C5F8D608E618F62802AE56E24FEF888CA
:100FD0006E860408860518ED3395E0FEFF8C5F8D64
:100FE000608E618F62200A0CAC5FAD607E007F0076
:100FF0008E618F62300D43E55F45604561456260FB
:10100000397408B5660C758230C0031207E8D00346
:1010100080287410B56623758230C0031207E8D0AB
:101020000330020C758278C0031207E8D003800AEF
:10103000758258C0031207E8D003300A25AC5FADB3
:1010400060AE61E562FF30E717C3E49CFCE49DFD00
:10105000E49EFEE49FFF8C5F8D608E618F62800254
:10106000C20A756900D20E8B00756300C0001208B9
:1010700032D000200E0DE563C4FCE6FD4CF6188866
:10108000038002A6630569B20EE55F4560456145D0
:101090006270D68803E567700375670120071A2020
:1010A0000617E56904FCC39567500E758220C003DE
:1010B0001207E8D003156780E9300A0E75822DC04B
:1010C000031207E8D00315678024E5696020300823
:1010D0000E75822BC0031207E8D0031567800F300E
:1010E000090C758220C0031207E8D003156720069B
:1010F0001EAC671567C3E5699C50273007047C3038
:1011000080027C208C82C0031207E8D00380E2C3F7
:10111000E56995675009E567C39569F567800375CB
:1011200067008B00AB691569EB6022B20E200E0AD6
:1011300008E6C4540FFB8B6380078603740F5BF5CE
:1011400063856382C000120802D00080D7200603A6
:10115000020BD2AB671567EB7003020BD2758220CE
:101160001207E880EE8A821207E8020BD2856482B9
:101170008565832220F71030F6118883A88220F538
:1011800007F6A88375830022F280F7F022758200AB
:1011900022C0E0F84582458345F07009F5F0FBFC7C
:1011A000FDFE02125FE823A2F792E0F8A982AA836B
:1011B000D2F7ABF07C007E07C3749798404074FF71
:1011C0002EFE740A89F0A4F985F082740A8AF0A4CC
:1011D000FA85F083740A8BF0A4FB740529F9EA35CB
:1011E00082FAEB3583FB740035F0FCC3EC13FCEBA7
:1011F00013FBEA13FAE913F908EC70EF80BAE8C3BD
:10120000947FF88B838EF0E4FBFCFDFEFF08C3E9BE
:1012100033F9EA33FAE58333F583EB3BD4FBEC3C5B
:10122000D4FCED3DD4FDEE3ED4FEEF3FD4FF602D67
:1012300005F074052BD4FBE43CD4FCE43DD4FDE480
:101240003ED4FEE43FD4FF758204C3EF13FFEE13D8
:10125000FEED13FDEC13FCEB13FBD582EDD8AF785C
:101260006FD0E020E704762B8002762D087906E720
:10127000C4540F4430F608B90603762E08E7540F1D
:101280004430F60819B902E7764508E5F020E7048E
:10129000762B8004762DF4040875F00A844430F629
:1012A00008E5F04430F608E4F690006F75F040224F
:1012B000AA82AB83ACF07D007E008A828B838CF0A7
:1012C0001204A7FFA3AA82AB83EF60070DBD00EA5B
:1012D0000E80E78D828E8322000000000000000057
:00000001FF
