:1000000002000E00000000000000000202C4758122
:100010007F12188CE582600302007A780079007AFA
:10002000007B007C007D00EC4D601C88828983E4AD
:1000300093A3A882A9838A828B83F0A3AA82AB832D
:100040001CBCFFE31D80E07582007583007C007D91
:1000500000EC4D600AE4F0A31CBCFFF51D80F275B6
:1000600082007583007C007D00EC4D600AE4F0A303
:100070001CBCFFF51D80F21201201203FA80FE560F
:100080003D25352E326600253032643A2530326403
:10009000004572726F723A25352E3266204C6566C5
:1000A000743A25352E32662052696768743A2535D0
:1000B0002E3266204C6566745F4D6F746F723A2500
:1000C000642052696768745F4D6F746F723A25647B
:1000D0002020202020202020202020202020202020
:1000E0000D005455524E494E47204C454654200D64
:1000F0003B005455524E494E472052696768742060
:100100000D3B005374617274696E67200D3B006C87
:10011000696E6520636F756E7465723A20256400A0
:10012000E4F523F524752500752600E4F52AF52B62
:10013000C200C2012275841E7585007591007592FA
:100140000075A40075A50075B10075B20022785243
:10015000D8FE22AA82AB837C007D00C3EC9AED9B83
:1001600050227E14C002C003C004C005C0061201A4
:100170004ED006D005D004D003D002DEE70CBC0080
:10018000DA0D80D722D2A512014EC2A5228582E0C7
:10019000A2E79294A2E69296A2E59297A2E492A098
:1001A000A2E392A1A2E292A2A2E192A3A2E092A46F
:1001B000020185AA82D2A78A8212018D90000202D2
:1001C0000153AA82C2A78A8212018D900005020102
:1001D00053C2A5C2A69000141201537582331201B6
:1001E000C27582331201C27582331201C275823820
:1001F0001201C275820C1201C27582011201C290F5
:100200000014020153AA82AB83ACF07402B52C0433
:100210007DC080027D808D82C002C003C0041201B7
:10022000C2900005120153D004D003D0027D00ED2E
:100230002AFEE43BFF8C008E828F8388F01209E94E
:10024000FE60188E82C002C003C004C0051201B354
:10025000D005D004D003D0020D80D43002148D021A
:10026000BA1000500D758220C0021201B3D0020AEC
:1002700080EE227A2879FA78B8D8FED9FADAF6220E
:1002800075BD0075BF0075BE3075BD03759852759C
:1002900091007592002243841E5385E1D2C675A158
:1002A0002075A3F0759705E59730E3FB22C28C74A7
:1002B000F055894401F589758CFE758A90D28CD2EF
:1002C000A9D2AF22C0E0C0D075D000C28C758CFE20
:1002D000758A90D28C0527E527249C50037527004A
:1002E000C3E52795289285C3E52795299286740151
:1002F0002523F523E43524F5247410B52320742731
:10030000B5241BD200E4F523F5240525743CB5255E
:100310000D7525000526743CB526037526003001B1
:100320000B7401252AF52AE4352BF52BD0D0D0E02B
:1003300032C20085D582120B08AA82AB83ACF0FDD5
:10034000E4C0E0C0E0747FC0E07443C0E08A828B08
:10035000838CF0ED120C42AA82AB83ACF0FDE581F8
:1003600024FCF581C002C003C004C005903333757E
:10037000F0537440120A65AA82AB83ACF0FDE581AC
:1003800024FCF581C002C003C004C005747FC0E036
:100390007400C0E07480C0E0742DC0E07400C0E060
:1003A0007440C0E0120BF1E58124F6F581752C0153
:1003B000D20290002D75F040120205AA257B00ACF8
:1003C000267D00C002C003C004C0057487C0E0746D
:1003D00000C0E07480C0E0742DC0E07400C0E07420
:1003E00040C0E0120BF1E58124F6F581752C02D2B4
:1003F0000290002D75F040020205E4F542F543F548
:1004000044F545F54AF54BF54CF54DE5D6E5D7E510
:10041000F51201351201D11202801202961202ADBC
:1004200075460075470075480075490085D68212EB
:100430000B08AC82AD83AAF0FBE4C0E0C0E0747F9F
:10044000C0E07443C0E08C828D838AF0EB120C42D2
:10045000AA82AB83ACF0FDE58124FCF581C002C02B
:1004600003C004C00590333375F0537440120A651D
:1004700085824E85834F85F050F551E58124FCF54A
:100480008185D782120B08A882A983AAF0FBE4C059
:10049000E0C0E0747FC0E07443C0E0888289838A52
:1004A000F0EB120C42AA82AB83ACF0FDE58124FC98
:1004B000F581C002C003C004C00590333375F0530A
:1004C0007440120A6585825285835385F054F55530
:1004D000E58124FCF58185F582120B08A882A983A9
:1004E000AAF0FBE4C0E0C0E0747FC0E07443C0E069
:1004F000888289838AF0EB120C42AA82AB83ACF02B
:10050000FDE58124FCF581C002C003C004C0059054
:10051000333375F0537440120A65858256858357CC
:1005200085F058F559E58124FCF581C052C053C0CF
:1005300054C055854E82854F838550F0E551120C8D
:100540003785825A85835B85F05CF55DE58124FC07
:10055000F581300003120331C042C043C044C0459E
:1005600090000075F0A07441120A65AC82AD83AAB8
:10057000F0FBE58124FCF581C002C003C004C00586
:10058000C046C047C048C0498542828543838544F0
:10059000F0E545120C37A882A983AEF0FFE581246F
:1005A000FCF581746FC0E07412C0E07483C0E07425
:1005B0003AC0E0888289838EF0EF120C42AE82AF9F
:1005C00083A8F0F9E58124FCF581D005D004D0039F
:1005D000D002C006C007C000C0018C828D838AF0A3
:1005E000EB120B1385823E85833F85F040F541E594
:1005F0008124FCF581C05AC05BC05CC05D900000E6
:1006000075F08074BF120A35AE82E58124FCF58155
:10061000EE70030206E8E4C0E0C0E07480C0E0745D
:100620003FC0E0855A82855B83855CF0E55D120AF8
:1006300035AE82E58124FCF581EE70030206E8E424
:10064000C0E0C0E07480C0E0743FC0E0854E8285A9
:100650004F838550F0E551120A05AE82E58124FCF6
:10066000F581EE70030206E8E4C0E0C0E0C0E0748B
:1006700040C0E0854E82854F838550F0E551120AD7
:1006800035AE82E58124FCF581EE605CE4C0E0C01B
:10069000E07480C0E0743FC0E0855282855383855A
:1006A00054F0E555120A05AE82E58124FCF581EE91
:1006B0006036E4C0E0C0E0C0E07440C0E085528233
:1006C0008553838554F0E555120A35AE82E58124C1
:1006D000FCF581EE601275420075430075440075AB
:1006E0004500752864752964C05AC05BC05CC05D54
:1006F00090000075F080743F120A35AE82E58124C7
:10070000FCF581EE603C75420075430075448075D0
:10071000453FC03EC03FC040C04190000075F0C89A
:100720007442120C37AE82AF83A8F0F9E58124FC45
:10073000F5818E828F8388F0E9120D61858228759C
:100740002964E4C0E0C0E07480C0E074BFC0E0850C
:100750005A82855B83855CF0E55D120A35AE82E5E1
:100760008124FCF581EE60447542007543007544B8
:10077000807545BF752864E4C0E0C0E074C8C0E07F
:100780007442C0E0853E82853F838540F0E541129A
:100790000B13AE82AF83A8F0F9E58124FCF5818EBE
:1007A000828F8388F0E9120D61858229E4C0E0C060
:1007B000E0C0E0743FC0E0854E82854F838550F0F5
:1007C000E551120A35AE82E58124FCF581EE700315
:1007D0000208A1E4C0E0C0E0C0E0743FC0E0855280
:1007E000828553838554F0E555120A35AE82E58142
:1007F00024FCF581EE70030208A1E4C0E0C0E0C073
:10080000E0C0E08546828547838548F0E549120AC5
:1008100005AE82E58124FCF581EE604075420075ED
:1008200043007544A0754540752864C006C03EC0AD
:100830003FC040C04190000075F0C87442120C37B0
:10084000AF82A883A9F0FAE58124FCF5818F828824
:100850008389F0EA120D61858229D006EE7042F597
:1008600042F5437544A07545C0752864E4C0E0C0F6
:10087000E074C8C0E07442C0E0853E82853F838555
:1008800040F0E541120B13AA82AB83ACF0FDE58189
:1008900024FCF5818A828B838CF0ED120D618582B8
:1008A00029854246854347854448854549AA297B91
:1008B00000AC287D00C002C003C004C005C052C007
:1008C00053C054C055C04EC04FC050C051C042C0AC
:1008D00043C044C0457491C0E07400C0E07480C05F
:1008E000E0120B81E58124EDF581E4C0E0C0E0C0B9
:1008F000E07440C0E08556828557838558F0E559FD
:10090000120A05AA82E58124FCF581EA700302043B
:100910002CE54A454B700C054AE4B54A02054BD21A
:10092000018008054AE4B54A02054B74D0B52A1285
:100930007407B52B0DC201E4F52AF52B754C01E4C3
:10094000F54D7401B54C06E4B54D0280030209CDA6
:100950007402B54A06E4B54B0280187403B54A0622
:10096000E4B54B0280287404B54A06E4B54B028016
:1009700038805174E2C0E07400C0E07480C0E012BE
:100980000B8115811581158175286475291474F200
:10099000C0E07400C0E07480C0E0120B81158115C6
:1009A0008115817528147529647403C0E07401C031
:1009B000E07480C0E0120B811581158115817528C6
:1009C00064752964E4F54CF54DF54AF54BC04AC011
:1009D0004B740FC0E07401C0E07480C0E0120B8162
:1009E000E58124FBF58102042C20F71430F61488ED
:1009F00083A88220F507E6A88375830022E280F7AA
:100A0000E49322E022FFA8811818120D87D2D13377
:100A1000E6400730E70B7582012220E70675820069
:100A200022C2D1120D69E97003F5822230D101B3DF
:100A3000E433F58222FFA8811818120D87D2D13332
:100A4000E6400730E70B7582002220E70675820139
:100A500022C2D1120D69E97003F5822220D101B3BF
:100A6000E433F58222120E34BC0003020DD3EF6092
:100A7000FA30D502B2D1E583B4FF03020DE9E58275
:100A8000B4FF03020DE9258340072482400B020DC9
:100A9000D32483145003020DE9F582EA8DF0A4A853
:100AA000F0EA8EF0A428F8E435F0F9EB8DF0A428F4
:100AB000E935F0F9E433CA8FF0A429F9EA35F0FA00
:100AC000EBF88EF0A429F9EA35F0FAE433FBEC8D6B
:100AD000F0A429F9EA35F0FAE43BFBE88FF0A42A08
:100AE000FAEB35F0FBE433CCFD8EF0A42AFAEB35BB
:100AF000F0FBE43CFCED8FF0A42BFBEC35F0FC208C
:100B0000E703120E01020DB2E4AC82FBFAF974861F
:100B1000020E6B120E347900E583B58202800D500F
:100B200003120E75E583C39582120E8FE5D0C4655E
:100B3000D020E117EA2DFAEB3EFBEC3FFC500974A4
:100B400001120E8FEC4480FC020DB2C3EA9DFAEB59
:100B50009EFBEC9FFC500FC3E499F9E49AFAE49BE6
:100B6000FBE49CFCB2D1120E01020DB202185E85AC
:100B7000826C85836D85F06E85106F900B6C021210
:100B8000B1C008858108E50824FBF56FE50824FB62
:100B9000F8866C08866D08866E900B6C1212B1D0C8
:100BA0000822AA82AB09AC0AAD0B8B828C838DF034
:100BB000EA1218730509E4B50902050A22858209BB
:100BC00085830A85F00B850C6C850D6D850E6E8511
:100BD0000F6F900BA21212B1AA82AB83AC09AD0ABF
:100BE000AE0B8C828D838EF0E41218738A828B8315
:100BF00022C008858108E50824F8F56FE50824FB84
:100C0000F8860908860A08860BE50824F8F8866C39
:100C100008866D08866E900BA21212B1AA82AB8371
:100C2000AC09AD0AAE0B8C828D838EF0E412187382
:100C30008A828B83D00822A8811818C6B2E7C60220
:100C40000B13120E3430D502B2D1BF0009BC000321
:100C5000020DF6020DE9BC0003020DD3E583B4FFDB
:100C60000BE582B4FF03020DF6020DD3E582B4FF5B
:100C700003020DE9C395835007247F400B020DD377
:100C80002480145003020DE9C0E0E4CCCBCAF98DF6
:100C9000118E128F13EF54F0C4F51475830685146A
:100CA000F0EB84F582E9C4F9EAC4FAEBC4FBEC5436
:100CB0000FC47803D6FC18EBD6FB18EAD6FA858267
:100CC000F0EDA4A8F0FD8582F0EEA428FEE435F056
:100CD000F88582F0EFA428FFE435F0F8E99DF9EA01
:100CE0009EFAEB9FFBEC98FCAD11AE12AF1330E710
:100CF000101582E92DF9EA3EFAEB3FFBE43CFC805B
:100D0000EDC082D58398C3E933F9EA33FAEB33FBBC
:100D1000EC33FCC3E99DEA9EEB9FEC9400B3E41333
:100D2000F9D002D0E0C44AFAD003D0E0C44BFBD0E3
:100D300004D0E0F5F0540FC44CFCD082158230F49E
:100D40000FD3EC13FCEB13FBEA13FAE913F905825A
:100D5000E930E70A74012AFAE43BFBE43CFC020DAB
:100D6000CA7F86121892F582227901AA82E68F82C2
:100D7000B5821318E6B5F00E18E6B5830918E68AB1
:100D800082B58202790022B4800FE5F0700AE58313
:100D90007006E58270027F00EFB6801518B600106D
:100DA00018B6000B18B600060808087600220808D6
:100DB0000822B98003EA13B34010EA2401FAE43BA5
:100DC000FBE43CFC50047C800582BC000EBB000BA5
:100DD000BA0008E4F5F0F583F58222A2D1E582138A
:100DE0008CF092F78B838A8222E4F583F58275F08A
:100DF00080F4A2D11322E4F583F58275F0C0747FEC
:100E0000227804EC7011E58224F8500AF582E4C9D6
:100E1000CACBFCD8EF22EC7820058220E713D582DC
:100E20000122C3E933F9EA33FAEB33FBEC33FCD8A4
:100E3000EA158222AA82AB83A2F73392D16002D252
:100E4000F7F582ACF0E58124F9F8E6FD08E6FE0846
:100E500086F008E6A2F73392D56002D2F7F583AFA9
:100E6000F022FCABF0AA83A982749EC2D1F5821253
:100E70000E01020DB2E582C583F582A2D133A2D55F
:100E800092D11392D5ECCFFCEBCEFBEACDFA2260E7
:100E900040F82582500274FFF582E824F8501ECCF9
:100EA000CBCAF9E4CC24F85014CBCAF9E4CB24F82B
:100EB000500BCAF9E4CA24F85003790022240860D0
:100EC00010F8C3EC13FCEB13FBEA13FAE913F9D89F
:100ED000F122AA8274E3C0E0740EC0E0C05EC05F7D
:100EE0008A82220565E4B56502056622AA8274300D
:100EF0002AFA24C6500A74072AFA30030343022050
:100F00008A82020ED2E582FAC4540FF582C0021220
:100F10000EECD002740F5AF582020EECAA60AB619F
:100F2000AC62AD63AE64756B20EE2EFEED23540112
:100F3000FF4206EA2AFAEB33FBEC33FCED33FDC348
:100F4000EE95674008EEC39567FE430201D56BD965
:100F50008A608B618C628D638E6422787CE624D0FB
:100F600075F00AA4FA787DE624D02AFA787B860305
:100F7000BB2D04C3E49AFA756701C3E464808AF068
:100F800063F08095F05029756B038A0374F6256B26
:100F9000401C0567E56B142470F8E56B2470F98735
:100FA00004A604772E1BEBFA6004056B80DE8B022F
:100FB000EA30E70D787186037872A6037871762E91
:100FC0000AE569600AE56904FB2567F56780053075
:100FD0000E02056778708603E4BB2D0104FB7006E2
:100FE000200903300A0205673007030210A2300807
:100FF00057EB600C75822DC002120ED2D002801CFD
:1010000030090C75822BC002120ED2D002800D3036
:101010000A0A758220C002120ED2D00278718604AC
:10102000BC2E0C758230C002120ED2D0021568ACF4
:10103000681568C3E5679C40030210E6758230C0FE
:1010400002120ED2D00280E7AC681568C3E5679C37
:10105000500C758220C002120ED2D00280EA787045
:101060008604BC2D0C75822DC002120ED2D00280D7
:101070001C30090C75822BC002120ED2D002800DDA
:10108000300A0A758220C002120ED2D00278718610
:1010900004BC2E52758230C002120ED2D0021568E6
:1010A0008044EB600E75822DC002120ED2D0021564
:1010B00068802030090E75822BC002120ED2D00239
:1010C0001568800F300A0C758220C002120ED2D033
:1010D00002156878718603BB2E0C758230C002122F
:1010E0000ED2D0021568756B01C210E56B2470F842
:1010F0008603BB45030211A3BB2E348A03C3E464F9
:10110000808BF063F08095F0500F758230C0031231
:101110000ED2D0031B8B0280E48B02D210E56970E3
:1011200038200E030211A375822E120ED280743065
:1011300010278A03EB30E71FC3E464808569F063FE
:10114000F08095F0500C758230C003120ED2D0039F
:1011500015690B8B0280DD8B0230100EC3E46480B6
:101160008569F063F08095F05021E56B2470F88676
:10117000038B82C002120ED2D00230100EE56B2417
:1011800070F88603BB2E02800215691568C3E464FB
:10119000808569F063F08095F04003201005056BB1
:1011A0000210EBC3E464808569F063F08095F05031
:1011B0000A758230120ED2156980E830070FAA68CE
:1011C0001568EA6008758220120ED280F122E56966
:1011D0007003300E0D74072569FAE568C39AF56847
:1011E0008006E56824FAF568756B0078708602BAA7
:1011F0002B0F20090C78707620200A05756B0105ED
:1012000068200719AA68C3E464808AF063F08095B7
:10121000F0500A758220120ED2156880E7C210E5E0
:101220006B2470F88602BA00028069BA451F300349
:10123000027665C3E464808569F063F08095F050C0
:101240000A758230120ED2156980E8D210C3E56BA0
:101250009402E433FA7014EA700EC3E46480856982
:10126000F063F08095F04003301016E56B2470F8C1
:1012700086028A82120ED2E56B24FD501215698017
:101280000E7402B56B09300E0675822E120ED20551
:101290006B02121F300719AA68C3E464808AF063E6
:1012A000F08095F0500A758220120ED2156880E702
:1012B0002285825E85835FE4F565F566AA6CAB6D79
:1012C000AC6E8A828B838CF01209E9FD74012AF5D9
:1012D0006CE43BF56D8C6EEDFA7003021857BA257D
:1012E00002800302184FC207C208C209C20AC20B19
:1012F000C20CC20DC20EC204C205C20675670075DB
:1013000068007569FFAB6CAC6DAD6E8B828C838DA4
:10131000F01209E9FAA3AB82AC838B6C8C6D8D6EF5
:10132000BA25078A82120ED280928A06BE30004009
:101330002E8A06EE24C6402774FFB56913E568754A
:10134000F00AA4FEEA24D02EF56870BFD20880BB54
:10135000E56975F00AA4FEEA24D02EF56980ACBADE
:101360002E0A74FFB569A4756900809F8A06BE6164
:1013700000400E8A06EE248540075302DFD2038028
:1013800002C203BA20028075BA230302140CBA2ADF
:1013900003021411BA2B02805FBA2D028055BA42A3
:1013A00002805FBA4303021456BA4403021591BA8D
:1013B00045030215ABBA46030215A7BA4703021547
:1013C000AFBA4903021591BA4C02803BBA4E0302F0
:1013D00015B3BA4F03021598BA500302152ABA532F
:1013E0000302147ABA550302159DBA58030215A2D6
:1013F0000215DDD20702130BD20902130BD20A0227
:10140000130BD20C02130BD20D02130BD20E0213CC
:101410000B74FFB56920300C0BE56F14F8886F86EC
:101420006802130BE56F24FEF8886F8606088607AE
:10143000188E6802130B300C0BE56F14F8886F865A
:101440006902130BE56F24FEF8886F86060886078D
:10145000188E6902130B300C0AE56F14F8886F863A
:1014600002800FE56F24FEF8886F86030886041853
:101470008B028A82120ED20215E2E56F24FDF888F3
:101480006F860308860408860518188B608C618DAA
:10149000628B828C838DF01219D6AB82AC838B6AFF
:1014A00074FFB56903856A6920071DC3E56A9568FD
:1014B0005016E568C3956AF568AB681568EB600877
:1014C000758220120ED280F18560828561838562EB
:1014D000F01209E9FBFA6029AB691569C3E464807D
:1014E0008BF063F08095F050188A82120ED2AB60B8
:1014F000AC61AD620BBB00010C8B608C618D6280B6
:10150000C72007030215E2C3E56A95684003021588
:10151000E2E568C3956AF568AB681568EB7003028D
:1015200015E2758220120ED280EEE56F24FDF88858
:101530006F860308860408860518188B608C618DF9
:1015400062E562FB30E7047A438013EB5460600489
:101550007A50800AEB30E6047A4980027A588A820F
:10156000C002120ED275823A120ED2758230120E5D
:10157000D2758278120ED2D002BA4902800BBA50CC
:10158000028006856182120F05856082120F058038
:1015900051D20B75670A804A756708804575670ADE
:1015A0008040756710803BD2048037D2058033D2EB
:1015B00006802FE56F24FDF8886F860308860408EF
:1015C000860518188B608C618D628B828C838DF000
:1015D000E565121873A3E56612187380058A8212F6
:1015E0000ED2200406200503300670E56F24FCF8B7
:1015F000886F86030886040886050886061818186A
:101600008B608C618D628E63E560E561E562E56308
:101610008B828C838DF0EE1218B774FFB569037559
:101620006906300627747F5563FB8B64E564EB2BFA
:10163000FB8B64E56230E70674014564F564E5649C
:1016400024684006749925644002D20530050612CC
:1016500011CE0212BC120F5B0212BCE567700302CE
:1016600012BC7B75300C2BE56F14F8886FE6FC33E9
:1016700095E0FDFEFF8C608D618E628F63200B5EB6
:10168000AC607D007E007F008C608D618E628F6318
:10169000804C300D1FE56F24FCF8886F86040886A7
:1016A000050886060886071818188C608D618E62FA
:1016B0008F63802AE56F24FEF8886F86040886050C
:1016C00018ED3395E0FEFF8C608D618E628F632094
:1016D0000B0CAC60AD617E007F008E628F63300EBC
:1016E00043E56045614562456360397408B5670C40
:1016F000758230C003120ED2D00380287410B567F3
:1017000023758230C003120ED2D00330030C7582D1
:1017100078C003120ED2D003800A758258C003121B
:101720000ED2D003300B25AC60AD61AE62E563FF35
:1017300030E717C3E49CFCE49DFDE49EFEE49FFFBC
:101740008C608D618E628F638002C20B756A00D2DD
:101750000F8B00756400C000120F1CD000200F0D0D
:10176000E564C4FCE6FD4CF61888038002A6640517
:101770006AB20FE56045614562456370D68803E54E
:1017800068700375680120081A200717E56A04FCD1
:10179000C39568500E758220C003120ED2D0031577
:1017A0006880E9300B0E75822DC003120ED2D00373
:1017B00015688024E56A602030090E75822BC0030D
:1017C000120ED2D0031568800F300A0C758220C02B
:1017D00003120ED2D003156820071EAC681568C32B
:1017E000E56A9C50273008047C3080027C208C8283
:1017F000C003120ED2D00380E2C3E56A9568500997
:10180000E568C3956AF56880037568008B00AB6A6C
:10181000156AEB6022B20F200F0A08E6C4540FFBD2
:101820008B6480078603740F5BF564856482C00057
:10183000120EECD00080D72007030212BCAB681553
:1018400068EB70030212BC758220120ED280EE8A01
:1018500082120ED20212BC85658285668322AA821C
:10186000BA0A0810990280FB75990D10990280FB45
:101870008A992220F71030F6118883A88220F50774
:10188000F6A88375830022F280F7F0227582002289
:101890007F9E1219FE30D103020DD3C3EF95825003
:1018A0000974FFF5F0F583F582227900120E8F8915
:1018B000828A838BF0EC22C0E0F84582458345F0B4
:1018C0007009F5F0FBFCFDFE021985E823A2F792F2
:1018D000E0F8A982AA83D2F7ABF07C007E07C3743C
:1018E0009798404074FF2EFE740A89F0A4F985F0A1
:1018F00082740A8AF0A4FA85F083740A8BF0A4FB40
:10190000740529F9EA3582FAEB3583FB740035F06A
:10191000FCC3EC13FCEB13FBEA13FAE913F908EC34
:1019200070EF80BAE8C3947FF88B838EF0E4FBFC01
:10193000FDFEFF08C3E933F9EA33FAE58333F583A3
:10194000EB3BD4FBEC3CD4FCED3DD4FDEE3ED4FEB1
:10195000EF3FD4FF602D05F074052BD4FBE43CD49D
:10196000FCE43DD4FDE43ED4FEE43FD4FF758204A4
:10197000C3EF13FFEE13FEED13FDEC13FCEB13FBB3
:10198000D582EDD8AF7870D0E020E704762B8002C6
:10199000762D087906E7C4540F4430F608B90603DB
:1019A000762E08E7540F4430F60819B902E7764559
:1019B00008E5F020E704762B8004762DF404087502
:1019C000F00A844430F608E5F04430F608E4F69076
:1019D000007075F04022AA82AB83ACF07D007E00DF
:1019E0008A828B838CF01209E9FFA3AA82AB83EF72
:1019F00060070DBD00EA0E80E78D828E8322AA82E9
:101A0000AB83A2F73392D16002D2F7F582ACF02219
:00000001FF
