:1000000002000E00000000000000000202C4758122
:100010007D121930E582600302007A780079007A57
:10002000007B007C007D00EC4D601C88828983E4AD
:1000300093A3A882A9838A828B83F0A3AA82AB832D
:100040001CBCFFE31D80E07582007583007C007D91
:1000500000EC4D600AE4F0A31CBCFFF51D80F275B6
:1000600082007583007C007D00EC4D600AE4F0A303
:100070001CBCFFF51D80F21201201203FA80FE560F
:100080003D25352E326600253032643A2530326403
:10009000004572726F723A25352E3266204C6566C5
:1000A000743A25352E32662052696768743A2535D0
:1000B0002E3266204C6566745F4D6F746F723A2500
:1000C000642052696768745F4D6F746F723A25647B
:1000D0002020202020202020202020202020202020
:1000E0000D005455524E494E47204C454654200D64
:1000F0003B005455524E494E472052696768742060
:100100000D3B005374617274696E67200D3B006C87
:10011000696E6520636F756E7465723A20256400A0
:10012000E4F523F524752500752600E4F52AF52B62
:10013000C200C2012275841E7585007591007592FA
:100140000075A40075A50075B10075B20022785243
:10015000D8FE22AA82AB837C007D00C3EC9AED9B83
:1001600050227E14C002C003C004C005C0061201A4
:100170004ED006D005D004D003D002DEE70CBC0080
:10018000DA0D80D722D2A512014EC2A5228582E0C7
:10019000A2E79294A2E69296A2E59297A2E492A098
:1001A000A2E392A1A2E292A2A2E192A3A2E092A46F
:1001B000020185AA82D2A78A8212018D90000202D2
:1001C0000153AA82C2A78A8212018D900005020102
:1001D00053C2A5C2A69000141201537582331201B6
:1001E000C27582331201C27582331201C275823820
:1001F0001201C275820C1201C27582011201C290F5
:100200000014020153AA82AB83ACF07402B52C0433
:100210007DC080027D808D82C002C003C0041201B7
:10022000C2900005120153D004D003D0027D00ED2E
:100230002AFEE43BFF8C008E828F8388F0120A8DA9
:10024000FE60188E82C002C003C004C0051201B354
:10025000D005D004D003D0020D80D43002148D021A
:10026000BA1000500D758220C0021201B3D0020AEC
:1002700080EE227A2879FA78B8D8FED9FADAF6220E
:1002800075BD0075BF0075BE3075BD03759852759C
:1002900091007592002243841E5385E1D2C675A158
:1002A0002075A3F0759705E59730E3FB22C28C74A7
:1002B000F055894401F589758CFE758A90D28CD2EF
:1002C000A9D2AF22C0E0C0D075D000C28C758CFE20
:1002D000758A90D28C0527E527249C50037527004A
:1002E000C3E52795289285C3E52795299286740151
:1002F0002523F523E43524F5247410B52320742731
:10030000B5241BD200E4F523F5240525743CB5255E
:100310000D7525000526743CB526037526003001B1
:100320000B7401252AF52AE4352BF52BD0D0D0E02B
:1003300032C20085D582120BACAA82AB83ACF0FD31
:10034000E4C0E0C0E0747FC0E07443C0E08A828B08
:10035000838CF0ED120CE6AA82AB83ACF0FDE58154
:1003600024FCF581C002C003C004C005903333757E
:10037000F0537440120B09AA82AB83ACF0FDE58107
:1003800024FCF581C002C003C004C005747FC0E036
:100390007400C0E07480C0E0742DC0E07400C0E060
:1003A0007440C0E0120C95E58124F6F581752C01AE
:1003B000D20290002D75F040120205AA257B00ACF8
:1003C000267D00C002C003C004C0057487C0E0746D
:1003D00000C0E07480C0E0742DC0E07400C0E07420
:1003E00040C0E0120C95E58124F6F581752C02D20F
:1003F0000290002D75F04002020575420075430021
:10040000754400E4F545FEFFF54EF54FC006C00704
:100410001201351201D11202801202961202ADD0E1
:1004200007D006754600E4F547F548F54985D682BC
:10043000C006C007120BACAC82AD83AAF0FBE4C0CF
:10044000E0C0E0747FC0E07443C0E08C828D838A9A
:10045000F0EB120CE6AA82AB83ACF0FDE58124FC44
:10046000F581C002C003C004C00590333375F0535A
:100470007440120B0985825085835185F052F553E3
:10048000E58124FCF58185D782120BACA882A98373
:10049000AAF0FBE4C0E0C0E0747FC0E07443C0E0B9
:1004A000888289838AF0EB120CE6AA82AB83ACF0D7
:1004B000FDE58124FCF581C002C003C004C00590A5
:1004C000333375F0537440120B098582548583557C
:1004D00085F056F557E58124FCF58185F582120BF0
:1004E000ACA882A983AAF0FBE4C0E0C0E0747FC09E
:1004F000E07443C0E0888289838AF0EB120CE6AA9C
:1005000082AB83ACF0FDE58124FCF581C002C00321
:10051000C004C00590333375F0537440120B098545
:10052000825885835985F05AF55BE58124FCF58175
:10053000D007D00630000BC006C007120331D00729
:10054000D006C006C007E4C0E0C0E0C0E07440C010
:10055000E08550828551838552F0E553120AD9A86F
:1005600082E58124FCF581D007D006E8603CC00616
:10057000C007C000E4C0E0C0E0C0E07440C0E08557
:1005800054828555838556F0E557120AD9A982E52C
:100590008124FCF581D000D007D006E9600C7542BB
:1005A00000754300754400754500E86038C006C01A
:1005B00007E4C0E0C0E0C0E07440C0E0855482853C
:1005C00055838556F0E557120AA9A882E58124FCD7
:1005D000F581D007D006E8600C75420075430075C0
:1005E00044807545BFC006C007E4C0E0C0E0C0E07D
:1005F0007440C0E08550828551838552F0E55312E6
:100600000AA9A882E58124FCF581D007D006E8601C
:100610003CC006C007C000E4C0E0C0E0C0E07440D9
:10062000C0E08554828555838556F0E557120AD976
:10063000A982E58124FCF581D000D007D006E960CD
:100640000C75420075430075448075453FE8606F46
:10065000C006C007E4C0E0C0E0C0E07440C0E08570
:1006600054828555838556F0E557120AA9A882E57C
:100670008124FCF581D007D006E86043C006C0079E
:10068000E4C0E0C0E0C0E0C0E085468285478385E5
:1006900048F0E549120AA9A882E58124FCF581D039
:1006A00007D006E8600C7542007543007544A075DC
:1006B0004540E8700AF542F5437544A07545C0C051
:1006C00006C007C046C047C048C04985428285432E
:1006D000838544F0E545120CDBA882A983AAF0FBD0
:1006E000E58124FCF581746FC0E07412C0E074836E
:1006F000C0E0743AC0E0888289838AF0EB120CE68D
:10070000AA82AB83ACF0FDE58124FCF581C002C078
:1007100003C004C0058542828543838544F0E545D6
:10072000120BB785823E85833F85F040F541E58118
:1007300024FCF581C03EC03FC040C0419000007520
:10074000F0C87442120CDB85824A85834B85F04CDD
:10075000F54DE58124FCF581E4C0E0C0E074C8C03B
:10076000E07442C0E0853E82853F838540F0E541EC
:10077000120BB7AC82AD83AAF0FBE58124FCF581B6
:10078000D007D006C002C003C004C005C006C00721
:10079000E4C0E0C0E0C0E0C0E0854A82854B8385CC
:1007A0004CF0E54D120AD9A882E58124FCF581D0F0
:1007B00007D006D005D004D003D002E8600C754AFB
:1007C00000754B00754C00754D00C002C003C0049D
:1007D000C005C006C007E4C0E0C0E074C8C0E07453
:1007E00042C0E08C828D838AF0EB120AA9A882E5D0
:1007F0008124FCF581D007D006D005D004D003D0E9
:1008000002E860087C007D007AC87B42C002C00319
:10081000C004C005C006C007E4C0E0C0E0C0E0C03E
:10082000E08542828543838544F0E545120AA9A804
:1008300082E58124FCF581D007D006D005D004D014
:1008400003D002E86041854A82854B83854CF0E500
:100850004DC002C003C004C005C006C007120E058B
:10086000858228D007D006D005D004D003D0028CD2
:10087000828D838AF0EBC006C007120E058582299F
:10088000D007D00602094BC002C003C004C005C097
:1008900006C007E4C0E0C0E0C0E0C0E08542828559
:1008A00043838544F0E545120AD9A882E58124FCFA
:1008B000F581D007D006D005D004D003D002E8607F
:1008C000288C828D838AF0EBC006C007120E058546
:1008D0008228854A82854B83854CF0E54D120E05B2
:1008E000858229D007D0068062C006C007E4C0E038
:1008F000C0E0C0E0C0E08546828547838548F0E5DA
:1009000049120AA9AA82E58124FCF581D007D00604
:10091000EA60087528647529148030C006C007E4B1
:10092000C0E0C0E0C0E0C0E08546828547838548DE
:10093000F0E549120AD9AA82E58124FCF581D007A5
:10094000D006EA60067529647528148542468543F9
:1009500047854448854549AA297B00AC287D00C0CD
:1009600006C007C002C003C004C005C054C055C0C3
:1009700056C057C050C051C052C053C042C043C0FF
:1009800044C0457491C0E07400C0E07480C0E012BF
:100990000C25E58124EDF581E4C0E0C0E0C0E07401
:1009A00040C0E0855882855983855AF0E55B120A7C
:1009B000A9AA82E58124FCF581D007D006EA70035C
:1009C00002042DEE4F70090EBE00010FD20180050A
:1009D0000EBE00010F74D0B52A127407B52B0DC2DC
:1009E00001E4F52AF52B754E01E4F54F7401B54E7F
:1009F00006E4B54F0280028070BE0205BF0002808F
:100A000010BE0305BF00028023BE0456BF00538002
:100A10003674E2C0E07400C0E07480C0E0120C25BF
:100A200015811581158175286475291474F2C0E04B
:100A30007400C0E07480C0E0120C2515811581158A
:100A4000817528147529647403C0E07401C0E074D2
:100A500080C0E0120C2515811581158175286475FB
:100A60002964E4F54EF54FFEFFC006C007C006C07E
:100A700007740FC0E07401C0E07480C0E0120C2560
:100A8000E58124FBF581D007D00602042D20F71460
:100A900030F6148883A88220F507E6A883758300C2
:100AA00022E280F7E49322E022FFA8811818120EB8
:100AB0002BD2D133E6400730E70B7582012220E7C5
:100AC0000675820022C2D1120E0DE97003F5822252
:100AD00030D101B3E433F58222FFA8811818120E39
:100AE0002BD2D133E6400730E70B7582002220E796
:100AF0000675820122C2D1120E0DE97003F5822221
:100B000020D101B3E433F58222120ED8BC000302D7
:100B10000E77EF60FA30D502B2D1E583B4FF03025D
:100B20000E8DE582B4FF03020E8D258340072482DB
:100B3000400B020E772483145003020E8DF582EAD7
:100B40008DF0A4A8F0EA8EF0A428F8E435F0F9EBD3
:100B50008DF0A428E935F0F9E433CA8FF0A429F91F
:100B6000EA35F0FAEBF88EF0A429F9EA35F0FAE468
:100B700033FBEC8DF0A429F9EA35F0FAE43BFBE80D
:100B80008FF0A42AFAEB35F0FBE433CCFD8EF0A411
:100B90002AFAEB35F0FBE43CFCED8FF0A42BFBECE8
:100BA00035F0FC20E703120EA5020E56E4AC82FBE2
:100BB000FAF97486020F0F120ED87900E583B58218
:100BC00002800D5003120F19E583C39582120F3373
:100BD000E5D0C465D020E117EA2DFAEB3EFBEC3FEF
:100BE000FC50097401120F33EC4480FC020E56C312
:100BF000EA9DFAEB9EFBEC9FFC500FC3E499F9E4ED
:100C00009AFAE49BFBE49CFCB2D1120EA5020E56AC
:100C100002190285826A85836B85F06C85106D9060
:100C20000C10021355C008858108E50824FBF56DFA
:100C3000E50824FBF8866A08866B08866C900C1021
:100C4000121355D00822AA82AB09AC0AAD0B8B82D5
:100C50008C838DF0EA1219170509E4B50902050A1B
:100C60002285820985830A85F00B850C6A850D6BC8
:100C7000850E6C850F6D900C46121355AA82AB83BE
:100C8000AC09AD0AAE0B8C828D838EF0E41219177D
:100C90008A828B8322C008858108E50824F8F56DD7
:100CA000E50824FBF8860908860A08860BE508246F
:100CB000F8F8866A08866B08866C900C4612135505
:100CC000AA82AB83AC09AD0AAE0B8C828D838EF009
:100CD000E41219178A828B83D00822A8811818C6BB
:100CE000B2E7C6020BB7120ED830D502B2D1BF00A0
:100CF00009BC0003020E9A020E8DBC0003020E779F
:100D0000E583B4FF0BE582B4FF03020E9A020E776F
:100D1000E582B4FF03020E8DC395835007247F4004
:100D20000B020E772480145003020E8DC0E0E4CC39
:100D3000CBCAF98D118E128F13EF54F0C4F51475D0
:100D400083068514F0EB84F582E9C4F9EAC4FAEB72
:100D5000C4FBEC540FC47803D6FC18EBD6FB18EA9E
:100D6000D6FA8582F0EDA4A8F0FD8582F0EEA428E5
:100D7000FEE435F0F88582F0EFA428FFE435F0F8C2
:100D8000E99DF9EA9EFAEB9FFBEC98FCAD11AE12DF
:100D9000AF1330E7101582E92DF9EA3EFAEB3FFB7D
:100DA000E43CFC80EDC082D58398C3E933F9EA3393
:100DB000FAEB33FBEC33FCC3E99DEA9EEB9FEC942A
:100DC00000B3E413F9D002D0E0C44AFAD003D0E073
:100DD000C44BFBD004D0E0F5F0540FC44CFCD082DF
:100DE000158230F40FD3EC13FCEB13FBEA13FAE992
:100DF00013F90582E930E70A74012AFAE43BFBE4BF
:100E00003CFC020E6E7F86121936F582227901AA09
:100E100082E68F82B5821318E6B5F00E18E6B58328
:100E20000918E68A82B58202790022B4800FE5F0C3
:100E3000700AE5837006E58270027F00EFB68015C8
:100E400018B6001018B6000B18B600060808087689
:100E5000002208080822B98003EA13B34010EA24EC
:100E600001FAE43BFBE43CFC50047C800582BC00BE
:100E70000EBB000BBA0008E4F5F0F583F58222A260
:100E8000D1E582138CF092F78B838A8222E4F5837A
:100E9000F58275F080F4A2D11322E4F583F5827512
:100EA000F0C0747F227804EC7011E58224F8500AB7
:100EB000F582E4C9CACBFCD8EF22EC782005822069
:100EC000E713D5820122C3E933F9EA33FAEB33FBA6
:100ED000EC33FCD8EA158222AA82AB83A2F73392C4
:100EE000D16002D2F7F582ACF0E58124F9F8E6FD95
:100EF00008E6FE0886F008E6A2F73392D56002D233
:100F0000F7F583AFF022FCABF0AA83A982749EC2EE
:100F1000D1F582120EA5020E56E582C583F582A296
:100F2000D133A2D592D11392D5ECCFFCEBCEFBEA14
:100F3000CDFA226040F82582500274FFF582E82441
:100F4000F8501ECCCBCAF9E4CC24F85014CBCAF923
:100F5000E4CB24F8500BCAF9E4CA24F85003790012
:100F60002224086010F8C3EC13FCEB13FBEA13FA1D
:100F7000E913F9D8F122AA827487C0E0740FC0E0A7
:100F8000C05CC05D8A82220563E4B5630205642209
:100F9000AA8274302AFA24C6500A74072AFA300347
:100FA000034302208A82020F76E582FAC4540FF5C9
:100FB00082C002120F90D002740F5AF582020F9075
:100FC000AA5EAB5FAC60AD61AE62756920EE2EFECD
:100FD000ED235401FF4206EA2AFAEB33FBEC33FC23
:100FE000ED33FDC3EE95654008EEC39565FE430203
:100FF00001D569D98A5E8B5F8C608D618E622278A3
:101000007AE624D075F00AA4FA787BE624D02AFA8E
:1010100078798603BB2D04C3E49AFA756501C3E4AD
:1010200064808AF063F08095F050297569038A0323
:1010300074F62569401C0565E56914246EF8E569B8
:10104000246EF98704A604772E1BEBFA6004056969
:1010500080DE8B02EA30E70D786F86037870A60396
:10106000786F762E0AE567600AE56704FB2565F56B
:10107000658005300E020565786E8603E4BB2D01A0
:1010800004FB7006200903300A02056530070302DD
:101090001146300857EB600C75822DC002120F7696
:1010A000D002801C30090C75822BC002120F76D042
:1010B00002800D300A0A758220C002120F76D0021B
:1010C000786F8604BC2E0C758230C002120F76D069
:1010D000021566AC661566C3E5659C400302118A7D
:1010E000758230C002120F76D00280E7AC661566BA
:1010F000C3E5659C500C758220C002120F76D002A9
:1011000080EA786E8604BC2D0C75822DC002120F09
:1011100076D002801C30090C75822BC002120F762B
:10112000D002800D300A0A758220C002120F76D0DC
:1011300002786F8604BC2E52758230C002120F7680
:10114000D00215668044EB600E75822DC002120F2E
:1011500076D0021566802030090E75822BC00212EF
:101160000F76D0021566800F300A0C758220C002FF
:10117000120F76D0021566786F8603BB2E0C75822F
:1011800030C002120F76D0021566756901C210E5F3
:1011900069246EF88603BB4503021247BB2E348ACE
:1011A00003C3E464808BF063F08095F0500F758288
:1011B00030C003120F76D0031B8B0280E48B02D267
:1011C00010E5677038200E0302124775822E120F49
:1011D0007680743010278A03EB30E71FC3E4648005
:1011E0008567F063F08095F0500C758230C0031273
:1011F0000F76D00315670B8B0280DD8B0230100E4B
:10120000C3E464808567F063F08095F05021E56960
:10121000246EF886038B82C002120F76D002301043
:101220000EE569246EF88603BB2E02800215671551
:1012300066C3E464808567F063F08095F040032026
:101240001005056902118FC3E464808567F063F0BF
:101250008095F0500A758230120F76156780E8305D
:10126000070FAA661566EA6008758220120F76805D
:10127000F122E5677003300E0D74072567FAE56605
:10128000C39AF5668006E56624FAF5667569007806
:101290006E8602BA2B0F20090C786E7620200A0584
:1012A0007569010566200719AA66C3E464808AF09F
:1012B00063F08095F0500A758220120F76156680D3
:1012C000E7C210E569246EF88602BA00028069BAA6
:1012D000451F3003027665C3E464808567F063F0E0
:1012E0008095F0500A758230120F76156780E8D22B
:1012F00010C3E5699402E433FA7014EA700EC3E493
:1013000064808567F063F08095F04003301016E547
:1013100069246EF886028A82120F76E56924FD50F0
:10132000121567800E7402B56909300E0675822E9B
:10133000120F7605690212C3300719AA66C3E46466
:10134000808AF063F08095F0500A758220120F7643
:10135000156680E72285825C85835DE4F563F5642C
:10136000AA6AAB6BAC6C8A828B838CF0120A8DFDFF
:1013700074012AF56AE43BF56B8C6CEDFA7003029C
:1013800018FBBA250280030218F3C207C208C2097B
:10139000C20AC20BC20CC20DC20EC204C205C206F2
:1013A0007565007566007567FFAB6AAC6BAD6C8BDD
:1013B000828C838DF0120A8DFAA3AB82AC838B6A88
:1013C0008C6B8D6CBA25078A82120F7680928A0602
:1013D000BE3000402E8A06EE24C6402774FFB56753
:1013E00013E56675F00AA4FEEA24D02EF56670BFF8
:1013F000D20880BBE56775F00AA4FEEA24D02EF57A
:101400006780ACBA2E0A74FFB567A4756700809F29
:101410008A06BE6100400E8A06EE2485400753020C
:10142000DFD2038002C203BA20028075BA2303020E
:1014300014B0BA2A030214B5BA2B02805FBA2D0287
:101440008055BA4202805FBA43030214FABA4403D9
:10145000021635BA450302164FBA460302164BBAB6
:101460004703021653BA4903021635BA4C02803BB1
:10147000BA4E03021657BA4F0302163CBA50030283
:1014800015CEBA530302151EBA5503021641BA58B7
:1014900003021646021681D2070213AFD2090213C5
:1014A000AFD20A0213AFD20C0213AFD20D0213AFA8
:1014B000D20E0213AF74FFB56720300C0BE56D142C
:1014C000F8886D86660213AFE56D24FEF8886D8698
:1014D00006088607188E660213AF300C0BE56D14F4
:1014E000F8886D86670213AFE56D24FEF8886D8677
:1014F00006088607188E670213AF300C0AE56D14D4
:10150000F8886D8602800FE56D24FEF8886D8603ED
:10151000088604188B028A82120F76021686E56D01
:1015200024FDF8886D860308860408860518188B44
:101530005E8C5F8D608B828C838DF0121A7AAB8209
:10154000AC838B6874FFB5670385686720071DC38C
:10155000E56895665016E566C39568F566AB661551
:1015600066EB6008758220120F7680F1855E8285B9
:101570005F838560F0120A8DFBFA6029AB671567FF
:10158000C3E464808BF063F08095F050188A821277
:101590000F76AB5EAC5FAD600BBB00010C8B5E8C5D
:1015A0005F8D6080C7200703021686C3E5689566D5
:1015B0004003021686E566C39568F566AB66156658
:1015C000EB7003021686758220120F7680EEE56DB1
:1015D00024FDF8886D860308860408860518188B94
:1015E0005E8C5F8D60E560FB30E7047A438013EB2F
:1015F000546060047A50800AEB30E6047A49800235
:101600007A588A82C002120F7675823A120F767566
:101610008230120F76758278120F76D002BA4902A4
:10162000800BBA50028006855F82120FA9855E8208
:10163000120FA98051D20B75650A804A7565088022
:101640004575650A8040756510803BD2048037D2AD
:10165000058033D206802FE56D24FDF8886D860362
:1016600008860408860518188B5E8C5F8D608B8257
:101670008C838DF0E563121917A3E56412191780A6
:10168000058A82120F76200406200503300670E5D5
:101690006D24FCF8886D8603088604088605088694
:1016A000061818188B5E8C5F8D608E61E55EE55FB5
:1016B000E560E5618B828C838DF0EE12195B74FF1F
:1016C000B56703756706300627747F5561FB8B622B
:1016D000E562EB2BFB8B62E56030E7067401456247
:1016E000F562E56224684006749925624002D205DD
:1016F000300506121272021360120FFF021360E52A
:101700006570030213607B73300C2BE56D14F88851
:101710006DE6FC3395E0FDFEFF8C5E8D5F8E608F85
:1017200061200B5EAC5E7D007E007F008C5E8D5F75
:101730008E608F61804C300D1FE56D24FCF8886D44
:1017400086040886050886060886071818188C5E21
:101750008D5F8E608F61802AE56D24FEF8886D862E
:101760000408860518ED3395E0FEFF8C5E8D5F8ED4
:10177000608F61200B0CAC5EAD5F7E007F008E60E1
:101780008F61300E43E55E455F45604561603974A9
:1017900008B5650C758230C003120F76D00380281F
:1017A0007410B56523758230C003120F76D00330F4
:1017B000030C758278C003120F76D003800A7582FD
:1017C00058C003120F76D003300B25AC5EAD5FAE70
:1017D00060E561FF30E717C3E49CFCE49DFDE49EF7
:1017E000FEE49FFF8C5E8D5F8E608F618002C20B76
:1017F000756800D20F8B00756200C000120FC0D058
:1018000000200F0DE562C4FCE6FD4CF6188803804D
:1018100002A6620568B20FE55E455F4560456170EE
:10182000D68803E566700375660120081A2007173D
:10183000E56804FCC39566500E758220C003120F44
:1018400076D003156680E9300B0E75822DC0031229
:101850000F76D00315668024E568602030090E7588
:10186000822BC003120F76D0031566800F300A0C4E
:10187000758220C003120F76D003156620071EACB8
:10188000661566C3E5689C50273008047C308002EA
:101890007C208C82C003120F76D00380E2C3E568FF
:1018A00095665009E566C39568F566800375660020
:1018B0008B00AB681568EB6022B20F200F0A08E6B8
:1018C000C4540FFB8B6280078603740F5BF562853F
:1018D0006282C000120F90D00080D720070302134D
:1018E00060AB661566EB7003021360758220120F01
:1018F0007680EE8A82120F76021360856382856499
:101900008322AA82BA0A0810990280FB75990D10E9
:10191000990280FB8A992220F71030F6118883A85B
:101920008220F507F6A88375830022F280F7F02263
:10193000758200227F9E121AA230D103020E77C355
:10194000EF9582500974FFF5F0F583F58222790056
:10195000120F3389828A838BF0EC22C0E0F8458233
:10196000458345F07009F5F0FBFCFDFE021A29E8FD
:1019700023A2F792E0F8A982AA83D2F7ABF07C0009
:101980007E07C3749798404074FF2EFE740A89F056
:10199000A4F985F082740A8AF0A4FA85F083740AA7
:1019A0008BF0A4FB740529F9EA3582FAEB3583FB49
:1019B000740035F0FCC3EC13FCEB13FBEA13FAE9FB
:1019C00013F908EC70EF80BAE8C3947FF88B838E2C
:1019D000F0E4FBFCFDFEFF08C3E933F9EA33FAE566
:1019E0008333F583EB3BD4FBEC3CD4FCED3DD4FDE1
:1019F000EE3ED4FEEF3FD4FF602D05F074052BD4EE
:101A0000FBE43CD4FCE43DD4FDE43ED4FEE43FD40E
:101A1000FF758204C3EF13FFEE13FEED13FDEC130D
:101A2000FCEB13FBD582EDD8AF786ED0E020E70455
:101A3000762B8002762D087906E7C4540F4430F6E1
:101A400008B90603762E08E7540F4430F60819B992
:101A500002E7764508E5F020E704762B8004762D32
:101A6000F4040875F00A844430F608E5F04430F6D2
:101A700008E4F690006E75F04022AA82AB83ACF0C9
:101A80007D007E008A828B838CF0120A8DFFA3AAD0
:101A900082AB83EF60070DBD00EA0E80E78D828E7A
:101AA0008322AA82AB83A2F73392D16002D2F7F5E8
:101AB00082ACF022000000000000000000000000E6
:00000001FF
