:1000000002000E00000000000000000202D975810D
:10001000831219ADE582600302007A780079007AD4
:10002000007B007C007D00EC4D601C88828983E4AD
:1000300093A3A882A9838A828B83F0A3AA82AB832D
:100040001CBCFFE31D80E07582007583007C007D91
:1000500000EC4D600AE4F0A31CBCFFF51D80F275B6
:1000600082007583007C007D00EC4D600AE4F0A303
:100070001CBCFFF51D80F212012712049F80FE4C6C
:10008000533D25352E3266004C433D2564205354A4
:100090003D25640053746174653A25326420436FD2
:1000A0006D6D616E643A2533642053656E736F72B3
:1000B0003A25352E32662054696D65723A20253214
:1000C00064202020202020202020202020202020EC
:1000D00020200D0A0068656164656420746F202526
:1000E00032642066726F6D20310A00686561646554
:1000F0006420746F202532642066726F6D20320A8E
:100100000068656164656420746F20253264206630
:10011000726F6D20330A0045524D41474552443AB3
:1001200020253264200A00E4F523F52475250075A6
:100130002600E4F52AF52BE4F52CF52DE4F52EF553
:100140002FC200C201D202C2032275841E7585002F
:1001500075910075920075A40075A50075B10075C4
:10016000B200227852D8FE22AA82AB837C007D00A6
:10017000C3EC9AED9B50227E14C002C003C004C0A1
:1001800005C006120163D006D005D004D003D0020A
:10019000DEE70CBC00DA0D80D722D2A5120163C2C3
:1001A000A5228582E0A2E79294A2E69296A2E59229
:1001B00097A2E492A0A2E392A1A2E292A2A2E1926B
:1001C000A3A2E092A402019AAA82D2A78A82120173
:1001D000A2900002020168AA82C2A78A821201A22A
:1001E000900005020168C2A5C2A690001412016821
:1001F0007582331201D77582331201D7758233129B
:1002000001D77582381201D775820C1201D7758219
:10021000011201D7900014020168AA82AB83ACF0EE
:100220007402B530047DC080027D808D82C002C022
:1002300003C0041201D7900005120168D004D00356
:10024000D0027D00ED2AFEE43BFF8C008E828F837E
:1002500088F0120B0AFE60188E82C002C003C00430
:10026000C0051201C8D005D004D003D0020D80D43F
:100270003004148D02BA1000500D758220C0021295
:1002800001C8D0020A80EE227A2879FA78B8D8FE1E
:10029000D9FADAF62275BD0075BF0075BE3075BD9E
:1002A000037598527591007592002243841E538500
:1002B000E1D2C675A12075A3F0759705E59730E3E7
:1002C000FB22C28C74F055894401F589758CFE754A
:1002D0008A90D28CD2A9D2AF22C0E0C0D075D00013
:1002E000C28C758CFE758A90D28C0527E527249CDC
:1002F0005003752700C3E52795289285C3E5279508
:1003000029928674012523F523E43524F5247410FD
:10031000B523207427B5241BD200E4F523F524056A
:1003200025743CB5250D7525000526743CB52603BE
:1003300075260030010B7401252AF52AE4352BF5CA
:100340002B30031C7401252CF52CE4352DF52D7470
:1003500088B52C0C7413B52D07E4F52CF52DC203CC
:10036000D0D0D0E032C20085F582120C29AA82AB2F
:1003700083ACF0FDE4C0E0C0E0747FC0E07443C033
:10038000E08A828B838CF0ED120D63AA82AB83AC82
:10039000F0FDE58124FCF581C002C003C004C00566
:1003A00090333375F0537440120B86AA82AB83AC42
:1003B000F0FDE58124FCF581C002C003C004C00546
:1003C000747FC0E07400C0E07480C0E07431C0E0AD
:1003D0007400C0E07440C0E0120D12E58124F6F50F
:1003E00081753001D20490003175F04012021AA2DA
:1003F00003E433FA7B00C002C003C02EC02F748810
:10040000C0E07400C0E07480C0E07431C0E07400EB
:10041000C0E07440C0E0120D12E58124F6F581754C
:100420003002D20490003175F04002021AE4F52A3D
:10043000F52BD20175281475296474D0B52AF5748A
:1004400007B52BF0C201E4F52AF52B22E4F52AF5D5
:100450002BD20175286475291474D0B52AF5740758
:10046000B52BF0C201E4F52AF52B22752800752979
:100470000080F8AA82AB83BA0205BB00028010BAE2
:100480000305BB0002800BBA0414BB0011800612E6
:10049000042D12044C10020280012202046B22E49B
:1004A000F546F547F548F549E5D6E5D7E5F5E4F530
:1004B0005EF55FF560F5617E017F00C006C0071242
:1004C000014A1201E61202951202AB1202C2D007D3
:1004D000D006754A00754B00754C00754D0085D6E9
:1004E00082C006C007120C29AA82AB83ACF0FDE4DF
:1004F000C0E0C0E0747FC0E07443C0E08A828B83B8
:100500008CF0ED120D63AA82AB83ACF0FDE5812483
:10051000FCF581C002C003C004C00590333375F000
:10052000537440120B8685824E85834F85F050F5BB
:1005300051E58124FCF58185D782120C29A882A976
:1005400083AAF0FBE4C0E0C0E0747FC0E07443C065
:10055000E0888289838AF0EB120D63AA82AB83ACB8
:10056000F0FDE58124FCF581C002C003C004C00594
:1005700090333375F0537440120B86858252858315
:100580005385F054F555E58124FCF58185F58212FB
:100590000C29A882A983AAF0FBE4C0E0C0E0747F24
:1005A000C0E07443C0E0888289838AF0EB120D6357
:1005B000AA82AB83ACF0FDE58124FCF581C002C0CA
:1005C00003C004C00590333375F0537440120B869A
:1005D00085825685835785F058F559E58124FCF5C9
:1005E00081C052C053C054C055854E82854F83850B
:1005F00050F0E551120D5885825A85835B85F05C79
:10060000F55DE58124FCF581D007D00630000BC0F4
:1006100006C007120365D007D006C006C007C04653
:10062000C047C048C04990000075F0C87441120B23
:100630008685824285834385F044F545E58124FC27
:10064000F581C04EC04FC050C05190CCCD75F0CC9C
:10065000743E120B56A882E58124FCF581D007D0A8
:1006600006E870030206F9C006C0077433C0E0C094
:10067000E0C0E0743FC0E0854E82854F838550F036
:10068000E551120B56A882E58124FCF581D007D0F4
:1006900006E86065C006C007C052C053C054C055CC
:1006A00090CCCD75F0CC743E120B56A882E5812417
:1006B000FCF581D007D006E8603FC006C007743360
:1006C000C0E0C0E0C0E0743FC0E085528285538343
:1006D0008554F0E555120B56A882E58124FCF5817E
:1006E000D007D006E86012754600754700754800CF
:1006F000754900752864752964C006C007C05AC0D2
:100700005BC05CC05D900000E4F5F0743F120B56D6
:10071000A882E58124FCF581D007D006E860447505
:100720004600754700754840754940C006C007C07F
:1007300042C043C044C04590000075F0C8744212E6
:100740000D58A882A983AAF0FBE58124FCF58188D5
:100750008289838AF0EB120E82858228D007D00628
:10076000752964C006C007E4C0E0C0E0C0E074BF03
:10077000C0E0855A82855B83855CF0E55D120B568F
:10078000AA82E58124FCF581D007D006EA604C7589
:1007900046007547007548407549C0752864C00615
:1007A000C007E4C0E0C0E074C8C0E07442C0E085A7
:1007B00042828543838544F0E545120C34AA82AB1E
:1007C00083ACF0FDE58124FCF5818A828B838CF07B
:1007D000ED120E82858229D007D006C006C00774AC
:1007E000CDC0E074CCC0E0C0E0743EC0E0854E8275
:1007F000854F838550F0E551120B56AA82E581247E
:10080000FCF581D007D006EA7003020923C006C0B8
:100810000774CDC0E074CCC0E0C0E0743EC0E08599
:1008200052828553838554F0E555120B56AA82E512
:100830008124FCF581D007D006EA7003020923C0A9
:1008400006C007E4C0E0C0E0C0E0C0E0854A8285A1
:100850004B83854CF0E54D120B26AA82E58124FCE2
:10086000F581D007D006EA604475460075470075EB
:1008700048A0754940C006C007C042C043C044C03C
:100880004590000075F0C87442120D58AA82AB83DF
:10089000ACF0FDE58124FCF5818A828B838CF0ED40
:1008A000120E82858228D007D006752964C006C042
:1008B00007E4C0E0C0E0C0E0C0E0854A82854B8329
:1008C000854CF0E54D120B56AA82E58124FCF5819A
:1008D000D007D006EA604C7546007547007548A001
:1008E0007549C0752864C006C007E4C0E0C0E07464
:1008F000C8C0E07442C0E08542828543838544F0ED
:10090000E545120C34AA82AB83ACF0FDE58124FCF2
:10091000F5818A828B838CF0ED120E82858229D03C
:1009200007D00685464A85474B85484C85494DA2E8
:1009300003E433FA7B00C006C007C002C003C05600
:10094000C057C058C059C060C061C006C007749489
:10095000C0E07400C0E07480C0E0120CA2E5812405
:10096000F3F581D007D006BE0105BF0002801DBE91
:100970000205BF00028069BE0306BF0003020A43EE
:10098000BE0406BF0003020AB20204DEC006C007AE
:10099000E4C0E0C0E0C0E0743FC0E0855682855707
:1009A000838558F0E559120B26AA82E58124FCF5CF
:1009B00081D007D006EA60047E027F00C006C0072F
:1009C000C006C00774D5C0E07400C0E07480C0E009
:1009D000120CA2E58124FBF581D007D0060204DECB
:1009E000C006C0077429C0E0745CC0E0748FC0E02A
:1009F000743DC0E08556828557838558F0E55912CD
:100A00000B56AA82E58124FCF581D007D006EA6066
:100A10000E055EE4B55E02055FD2037E037F00C073
:100A200006C007C006C00774EBC0E07400C0E074E5
:100A300080C0E0120CA2E58124FBF581D007D0062E
:100A40000204DE300339C006C007E4C0E0C0E0C0E5
:100A5000E0743FC0E08556828557838558F0E5599C
:100A6000120B26AA82E58124FCF581D007D006EA84
:100A7000601CC203E4F52CF52D7E027F00800F85FB
:100A80005E60855F61E4F55EF55F7E047F00C00611
:100A9000C007C006C0077401C0E07401C0E07480E4
:100AA000C0E0120CA2E58124FBF581D007D006023C
:100AB00004DEC006C007E4C0E0C0E0C0E0743FC090
:100AC000E08556828557838558F0E559120B26AA92
:100AD00082E58124FCF581D007D006EA7003020488
:100AE000DEC060C0617417C0E07401C0E07480C0F3
:100AF000E0120CA2E58124FBF5818560828561838B
:100B00001204737E017F000204DE20F71430F61415
:100B10008883A88220F507E6A88375830022E280F7
:100B2000F7E49322E022FFA8811818120EA8D2D170
:100B300033E6400730E70B7582012220E706758215
:100B40000022C2D1120E8AE97003F5822230D1014F
:100B5000B3E433F58222FFA8811818120EA8D2D16F
:100B600033E6400730E70B7582002220E7067582E6
:100B70000122C2D1120E8AE97003F5822220D1012E
:100B8000B3E433F58222120F55BC0003020EF4EFDA
:100B900060FA30D502B2D1E583B4FF03020F0AE553
:100BA00082B4FF03020F0A258340072482400B0210
:100BB0000EF42483145003020F0AF582EA8DF0A488
:100BC000A8F0EA8EF0A428F8E435F0F9EB8DF0A453
:100BD00028E935F0F9E433CA8FF0A429F9EA35F0B1
:100BE000FAEBF88EF0A429F9EA35F0FAE433FBECDD
:100BF0008DF0A429F9EA35F0FAE43BFBE88FF0A484
:100C00002AFAEB35F0FBE433CCFD8EF0A42AFAEBA4
:100C100035F0FBE43CFCED8FF0A42BFBEC35F0FC55
:100C200020E703120F22020ED3E4AC82FBFAF97420
:100C300086020F8C120F557900E583B58202800D74
:100C40005003120F96E583C39582120FB0E5D0C40E
:100C500065D020E117EA2DFAEB3EFBEC3FFC500992
:100C60007401120FB0EC4480FC020ED3C3EA9DFA6B
:100C7000EB9EFBEC9FFC500FC3E499F9E49AFAE475
:100C80009BFBE49CFCB2D1120F22020ED302197F0F
:100C900085827085837185F072851073900C8D024A
:100CA00013D2C008858108E50824FBF573E5082404
:100CB000FBF88670088671088672900C8D1213D22C
:100CC000D00822AA82AB09AC0AAD0B8B828C838D33
:100CD000F0EA1219940509E4B50902050A22858291
:100CE0000985830A85F00B850C70850D71850E7260
:100CF000850F73900CC31213D2AA82AB83AC09ADDB
:100D00000AAE0B8C828D838EF0E41219948A828B4A
:100D10008322C008858108E50824F8F573E50824D6
:100D2000FBF8860908860A08860BE50824F8F88689
:100D300070088671088672900CC31213D2AA82AB17
:100D400083AC09AD0AAE0B8C828D838EF0E4121950
:100D5000948A828B83D00822A8811818C6B2E7C66D
:100D6000020C34120F5530D502B2D1BF0009BC00BD
:100D700003020F17020F0ABC0003020EF4E583B44E
:100D8000FF0BE582B4FF03020F17020EF4E582B4F5
:100D9000FF03020F0AC395835007247F400B020E06
:100DA000F42480145003020F0AC0E0E4CCCBCAF94B
:100DB0008D118E128F13EF54F0C4F51475830685D0
:100DC00014F0EB84F582E9C4F9EAC4FAEBC4FBEC55
:100DD000540FC47803D6FC18EBD6FB18EAD6FA8574
:100DE00082F0EDA4A8F0FD8582F0EEA428FEE435A3
:100DF000F0F88582F0EFA428FFE435F0F8E99DF9DA
:100E0000EA9EFAEB9FFBEC98FCAD11AE12AF1330EB
:100E1000E7101582E92DF9EA3EFAEB3FFBE43CFCD2
:100E200080EDC082D58398C3E933F9EA33FAEB3316
:100E3000FBEC33FCC3E99DEA9EEB9FEC9400B3E42A
:100E400013F9D002D0E0C44AFAD003D0E0C44BFB7F
:100E5000D004D0E0F5F0540FC44CFCD082158230A1
:100E6000F40FD3EC13FCEB13FBEA13FAE913F905C7
:100E700082E930E70A74012AFAE43BFBE43CFC0215
:100E80000EEB7F861219B3F582227901AA82E68FD2
:100E900082B5821318E6B5F00E18E6B5830918E698
:100EA0008A82B58202790022B4800FE5F0700AE5EB
:100EB000837006E58270027F00EFB6801518B600D9
:100EC0001018B6000B18B6000608080876002208AD
:100ED000080822B98003EA13B34010EA2401FAE4B7
:100EE0003BFBE43CFC50047C800582BC000EBB0054
:100EF0000BBA0008E4F5F0F583F58222A2D1E58271
:100F0000138CF092F78B838A8222E4F583F5827545
:100F1000F080F4A2D11322E4F583F58275F0C07459
:100F20007F227804EC7011E58224F8500AF582E4FF
:100F3000C9CACBFCD8EF22EC7820058220E713D574
:100F4000820122C3E933F9EA33FAEB33FBEC33FCD9
:100F5000D8EA158222AA82AB83A2F73392D160022B
:100F6000D2F7F582ACF0E58124F9F8E6FD08E6FE5B
:100F70000886F008E6A2F73392D56002D2F7F5832F
:100F8000AFF022FCABF0AA83A982749EC2D1F58295
:100F9000120F22020ED3E582C583F582A2D133A2BD
:100FA000D592D11392D5ECCFFCEBCEFBEACDFA2251
:100FB0006040F82582500274FFF582E824F8501E44
:100FC000CCCBCAF9E4CC24F85014CBCAF9E4CB2436
:100FD000F8500BCAF9E4CA24F85003790022240817
:100FE0006010F8C3EC13FCEB13FBEA13FAE913F9F6
:100FF000D8F122AA827404C0E07410C0E0C062C0BC
:10100000638A82220569E4B56902056A22AA8274AC
:10101000302AFA24C6500A74072AFA30050343021C
:10102000208A82020FF3E582FAC4540FF582C002CF
:1010300012100DD002740F5AF58202100DAA64AB83
:1010400065AC66AD67AE68756F20EE2EFEED23547D
:1010500001FF4206EA2AFAEB33FBEC33FCED33FDE9
:10106000C3EE956B4008EEC3956BFE430201D56F4E
:10107000D98A648B658C668D678E68227880E624B9
:10108000D075F00AA4FA7881E624D02AFA787F860F
:1010900003BB2D04C3E49AFA756B01C3E464808A30
:1010A000F063F08095F05029756F038A0374F6257C
:1010B0006F401C056BE56F142474F8E56F2474F918
:1010C0008704A604772E1BEBFA6004056F80DE8B85
:1010D00002EA30E70D787586037876A60378757690
:1010E0002E0AE56D600AE56D04FB256BF56B800546
:1010F000301002056B78748603E4BB2D0104FB708D
:1011000006200B03300C02056B3009030211C330BB
:101110000A57EB600C75822DC002120FF3D00280CB
:101120001C300B0C75822BC002120FF3D002800D05
:10113000300C0A758220C002120FF3D00278758637
:1011400004BC2E0C758230C002120FF3D002156C55
:10115000AC6C156CC3E56B9C4003021207758230C2
:10116000C002120FF3D00280E7AC6C156CC3E56BC4
:101170009C500C758220C002120FF3D00280EA78D6
:10118000748604BC2D0C75822DC002120FF3D002A0
:10119000801C300B0C75822BC002120FF3D0028022
:1011A0000D300C0A758220C002120FF3D002787540
:1011B0008604BC2E52758230C002120FF3D0021585
:1011C0006C8044EB600E75822DC002120FF3D002CA
:1011D000156C8020300B0E75822BC002120FF3D0DD
:1011E00002156C800F300C0C758220C002120FF3B8
:1011F000D002156C78758603BB2E0C758230C00248
:10120000120FF3D002156C756F01C212E56F2474D2
:10121000F88603BB45030212C4BB2E348A03C3E421
:1012200064808BF063F08095F0500F758230C003BE
:10123000120FF3D0031B8B0280E48B02D212E56DF8
:1012400070382010030212C475822E120FF38074BE
:101250003012278A03EB30E71FC3E46480856DF00A
:1012600063F08095F0500C758230C003120FF3D0FC
:1012700003156D0B8B0280DD8B0230120EC3E4640C
:1012800080856DF063F08095F05021E56F2474F84F
:1012900086038B82C002120FF3D00230120EE56F6C
:1012A0002474F88603BB2E028002156D156CC3E40E
:1012B0006480856DF063F08095F040032012050591
:1012C0006F02120CC3E46480856DF063F08095F0CA
:1012D000500A758230120FF3156D80E830090FAA9D
:1012E0006C156CEA6008758220120FF380F122E51C
:1012F0006D700330100D7407256DFAE56CC39AF517
:101300006C8006E56C24FAF56C756F0078748602C3
:10131000BA2B0F200B0C78747620200C05756F010A
:10132000056C200919AA6CC3E464808AF063F0801C
:1013300095F0500A758220120FF3156C80E7C212E7
:10134000E56F2474F88602BA00028069BA451F303E
:1013500005027665C3E46480856DF063F08095F0E6
:10136000500A758230120FF3156D80E8D212C3E572
:101370006F9402E433FA7014EA700EC3E46480855B
:101380006DF063F08095F04003301216E56F247421
:10139000F886028A82120FF3E56F24FD5012156D54
:1013A000800E7402B56F0930100675822E120FF38D
:1013B000056F021340300919AA6CC3E464808AF0F7
:1013C00063F08095F0500A758220120FF3156C803F
:1013D000E722858262858363E4F569F56AAA70ABCA
:1013E00071AC728A828B838CF0120B0AFD74012A15
:1013F000F570E43BF5718C72EDFA7003021978BA5E
:1014000025028003021970C209C20AC20BC20CC2B3
:101410000DC20EC20FC210C206C207C208756B0011
:10142000756C00756DFFAB70AC71AD728B828C8387
:101430008DF0120B0AFAA3AB82AC838B708C718D8A
:1014400072BA25078A82120FF380928A06BE300094
:10145000402E8A06EE24C6402774FFB56D13E56C56
:1014600075F00AA4FEEA24D02EF56C70BFD20A8073
:10147000BBE56D75F00AA4FEEA24D02EF56D80ACB4
:10148000BA2E0A74FFB56DA4756D00809F8A06BEE2
:101490006100400E8A06EE248540075302DFD20524
:1014A0008002C205BA20028075BA230302152DBA44
:1014B0002A03021532BA2B02805FBA2D028055BA78
:1014C0004202805FBA4303021577BA44030216B2A0
:1014D000BA45030216CCBA46030216C8BA4703023D
:1014E00016D0BA49030216B2BA4C02803BBA4E0378
:1014F0000216D4BA4F030216B9BA500302164BBAF9
:10150000530302159BBA55030216BEBA58030216BE
:10151000C30216FED20902142CD20B02142CD20CD8
:1015200002142CD20E02142CD20F02142CD2100250
:10153000142C74FFB56D20300E0BE57314F888730E
:10154000866C02142CE57324FEF8887386060886E0
:1015500007188E6C02142C300E0BE57314F8887388
:10156000866D02142CE57324FEF8887386060886BF
:1015700007188E6D02142C300E0AE57314F8887368
:101580008602800FE57324FEF888738603088604BC
:10159000188B028A82120FF3021703E57324FDF8F9
:1015A0008873860308860408860518188B648C6582
:1015B0008D668B828C838DF0121AF7AB82AC838B95
:1015C0006E74FFB56D03856E6D20091DC3E56E95C4
:1015D0006C5016E56CC3956EF56CAB6C156CEB60DE
:1015E00008758220120FF380F185648285658385FA
:1015F00066F0120B0AFBFA6029AB6D156DC3E4644B
:10160000808BF063F08095F050188A82120FF3AB54
:1016100064AC65AD660BBB00010C8B648C658D669C
:1016200080C7200903021703C3E56E956C400302CF
:101630001703E56CC3956EF56CAB6C156CEB700322
:10164000021703758220120FF380EEE57324FDF874
:101650008873860308860408860518188B648C65D1
:101660008D66E566FB30E7047A438013EB546060D7
:10167000047A50800AEB30E6047A4980027A588A6C
:1016800082C002120FF375823A120FF37582301284
:101690000FF3758278120FF3D002BA4902800BBAA9
:1016A00050028006856582121026856482121026FB
:1016B0008051D20D756B0A804A756B088045756B39
:1016C0000A8040756B10803BD2068037D20780338A
:1016D000D208802FE57324FDF888738603088604FA
:1016E00008860518188B648C658D668B828C838DBB
:1016F000F0E569121994A3E56A12199480058A82AB
:10170000120FF3200606200703300870E57324FC4F
:10171000F888738603088604088605088606181864
:10172000188B648C658D668E67E564E565E566E516
:10173000678B828C838DF0EE1219D874FFB56D0320
:10174000756D06300827747F5567FB8B68E568EB7D
:101750002BFB8B68E56630E70674014568F568E5A4
:101760006824684006749925684002D2073007064D
:101770001212EF0213DD12107C0213DDE56B700311
:101780000213DD7B79300E2BE57314F88873E6FCC9
:101790003395E0FDFEFF8C648D658E668F67200DAE
:1017A0005EAC647D007E007F008C648D658E668FEC
:1017B00067804C300F1FE57324FCF888738604089B
:1017C00086050886060886071818188C648D658EAD
:1017D000668F67802AE57324FEF88873860408867E
:1017E0000518ED3395E0FEFF8C648D658E668F677E
:1017F000200D0CAC64AD657E007F008E668F673077
:101800001043E56445654566456760397408B56B06
:101810000C758230C003120FF3D00380287410B50A
:101820006B23758230C003120FF3D00330050C75A3
:101830008278C003120FF3D003800A758258C00368
:10184000120FF3D003300D25AC64AD65AE66E567CD
:10185000FF30E717C3E49CFCE49DFDE49EFEE49F9B
:10186000FF8C648D658E668F678002C20D756E0079
:10187000D2118B00756800C00012103DD0002011FD
:101880000DE568C4FCE6FD4CF61888038002A668E6
:10189000056EB211E56445654566456770D68803F7
:1018A000E56C7003756C01200A1A200917E56E04B7
:1018B000FCC3956C500E758220C003120FF3D00349
:1018C000156C80E9300D0E75822DC003120FF3D018
:1018D00003156C8024E56E6020300B0E75822BC0E2
:1018E00003120FF3D003156C800F300C0C7582209F
:1018F000C003120FF3D003156C20091EAC6C156CDD
:10190000C3E56E9C5027300A047C3080027C208C1A
:1019100082C003120FF3D00380E2C3E56E956C50D2
:1019200009E56CC3956EF56C8003756C008B00AB9C
:101930006E156EEB6022B21120110A08E6C4540F36
:10194000FB8B6880078603740F5BF568856882C02F
:101950000012100DD00080D72009030213DDAB6CFC
:10196000156CEB70030213DD758220120FF380EE0D
:101970008A82120FF30213DD856982856A8322AAA7
:1019800082BA0A0810990280FB75990D109902809D
:10199000FB8A992220F71030F6118883A88220F55F
:1019A00007F6A88375830022F280F7F02275820083
:1019B000227F9E121B1F30D103020EF4C3EF9582CB
:1019C000500974FFF5F0F583F582227900120FB00B
:1019D00089828A838BF0EC22C0E0F84582458345FA
:1019E000F07009F5F0FBFCFDFE021AA6E823A2F751
:1019F00092E0F8A982AA83D2F7ABF07C007E07C3FD
:101A0000749798404074FF2EFE740A89F0A4F985FB
:101A1000F082740A8AF0A4FA85F083740A8BF0A429
:101A2000FB740529F9EA3582FAEB3583FB7400353E
:101A3000F0FCC3EC13FCEB13FBEA13FAE913F9080F
:101A4000EC70EF80BAE8C3947FF88B838EF0E4FBF0
:101A5000FCFDFEFF08C3E933F9EA33FAE58333F509
:101A600083EB3BD4FBEC3CD4FCED3DD4FDEE3ED40B
:101A7000FEEF3FD4FF602D05F074052BD4FBE43C52
:101A8000D4FCE43DD4FDE43ED4FEE43FD4FF7582B3
:101A900004C3EF13FFEE13FEED13FDEC13FCEB1389
:101AA000FBD582EDD8AF7874D0E020E704762B80A8
:101AB00002762D087906E7C4540F4430F608B906BB
:101AC00003762E08E7540F4430F60819B902E7767A
:101AD0004508E5F020E704762B8004762DF4040811
:101AE00075F00A844430F608E5F04430F608E4F670
:101AF00090007475F04022AA82AB83ACF07D007E2A
:101B0000008A828B838CF0120B0AFFA3AA82AB831C
:101B1000EF60070DBD00EA0E80E78D828E8322AA5A
:101B200082AB83A2F73392D16002D2F7F582ACF098
:101B30002200000000000000000000000000000083
:00000001FF
