:1000000002000E00000000000000000202A875813E
:100010008412199CE582600302007A780079007AE4
:10002000007B007C007D00EC4D601C88828983E4AD
:1000300093A3A882A9838A828B83F0A3AA82AB832D
:100040001CBCFFE31D80E07582007583007C007D91
:1000500000EC4D600AE4F0A31CBCFFF51D80F275B6
:1000600082007583007C007D00EC4D600AE4F0A303
:100070001CBCFFF51D80F21201041203DE80FE5647
:100080003D25352E326600253032643A2530326403
:10009000004572726F723A25352E3266204C6566C5
:1000A000743A25352E32662052696768743A2535D0
:1000B0002E326620202020202020202020202020DA
:1000C000202020200D005455524E494E47204C45CB
:1000D0004654200D3B005455524E494E472052691C
:1000E000676874200D3B005374617274696E6720F9
:1000F0000D3B006C696E6520636F756E7465723AB6
:1001000020256400E4F523F524752500752600E418
:10011000F52AF52BC200C2012275841E7585007573
:10012000910075920075A40075A50075B10075B2B7
:1001300000227852D8FE22AA82AB837C007D00C3C5
:10014000EC9AED9B50227E14C002C003C004C0058F
:10015000C006120132D006D005D004D003D002DE92
:10016000E70CBC00DA0D80D722D2A5120132C2A55D
:10017000228582E0A2E79294A2E69296A2E5929767
:10018000A2E492A0A2E392A1A2E292A2A2E192A38F
:10019000A2E092A4020169AA82D2A78A8212017106
:1001A000900002020137AA82C2A78A8212017190CE
:1001B0000005020137C2A5C2A690001412013775CE
:1001C00082331201A67582331201A67582331201A1
:1001D000A67582381201A675820C1201A6758201DD
:1001E0001201A6900014020137AA82AB83ACF0740E
:1001F00002B52C047DC080027D808D82C002C003C8
:10020000C0041201A6900005120137D004D003D01B
:10021000027D00ED2AFEE43BFF8C008E828F8388F6
:10022000F0120AF9FE60188E82C002C003C004C03A
:1002300005120197D005D004D003D0020D80D43030
:1002400002148D02BA1000500D758220C0021201F6
:1002500097D0020A80EE227A2879FA78B8D8FED9A7
:10026000FADAF62275BD0075BF0075BE3075BD03A4
:100270007598527591007592002243841E5385E152
:10028000D2C675A12075A3F0759705E59730E3FBFD
:1002900022C28C74F055894401F589758CFE758AEB
:1002A00090D28CD2A9D2AF22C0E0C0D075D000C20B
:1002B0008C758CFE758A90D28C0527E527249C507E
:1002C00003752700C3E52795289285C3E52795295F
:1002D000928674012523F523E43524F5247410B5A2
:1002E00023207427B5241BD200E4F523F52405252B
:1002F000743CB5250D7525000526743CB52603759F
:10030000260030010B7401252AF52AE4352BF52B44
:10031000D0D0D0E032C20085D582120C18AA82ABB0
:1003200083ACF0FDE4C0E0C0E0747FC0E07443C083
:10033000E08A828B838CF0ED120D52AA82AB83ACE3
:10034000F0FDE58124FCF581C002C003C004C005B6
:1003500090333375F0537440120B75AA82AB83ACA3
:10036000F0FDE58124FCF581C002C003C004C00596
:10037000747FC0E07400C0E07480C0E0742DC0E001
:100380007400C0E07440C0E0120D01E58124F6F570
:1003900081752C01D20290002D75F0401201E9AA5E
:1003A000257B00AC267D00C002C003C004C00574DC
:1003B00087C0E07400C0E07480C0E0742DC0E074B9
:1003C00000C0E07440C0E0120D01E58124F6F58123
:1003D000752C02D20290002D75F0400201E97542A1
:1003E00000E4F543F544F545FEFFF552F553C0062C
:1003F000C0071201191201B512026412027A120228
:1004000091D007D0067546007547007548007549BC
:10041000007C007D0085F582C004C005C006C007D1
:10042000120C18AA82AB83A8F0F9E4C0E0C0E07413
:100430007FC0E07443C0E08A828B8388F0E9120DAC
:1004400052AA82AB83A8F0F9E58124FCF581C002B1
:10045000C003C000C00190333375F0537440120BD9
:100460007585825685835785F058F559E58124FCBA
:10047000F58185D682120C18AA82AB83A8F0F9E424
:10048000C0E0C0E0747FC0E07443C0E08A828B8328
:1004900088F0E9120D52AA82AB83A8F0F9E5812415
:1004A000FCF581C002C003C000C00190333375F079
:1004B000537440120B7585825A85835B85F05CF519
:1004C0005DE58124FCF58185D782120C18AA82ABE8
:1004D00083A8F0F9E4C0E0C0E0747FC0E07443C0DA
:1004E000E08A828B8388F0E9120D52AA82AB83A83E
:1004F000F0F9E58124FCF581C002C003C000C00111
:1005000090333375F0537440120B7585825E85838A
:100510005F85F060F561E58124FCF581D007D006A8
:10052000D005D004300013C004C005C006C00712B7
:100530000315D007D006D005D004C004C005C006FE
:10054000C007E4C0E0C0E0C0E0C0E0855A82855B3F
:1005500083855CF0E55D120B45858262E58124FCB4
:10056000F581D007D006D005D004E562603EC00416
:10057000C005C006C007E4C0E0C0E0C0E0C0E08540
:100580005E82855F838560F0E561120B45AA82E596
:100590008124FCF581D007D006D005D004EA600C98
:1005A000754200754300754400754500E562603E84
:1005B000C004C005C006C007E4C0E0C0E0C0E0C0A1
:1005C000E0855E82855F838560F0E561120B15AA88
:1005D00082E58124FCF581D007D006D005D004EA5D
:1005E000600C7542007543007544807545BFC004BA
:1005F000C005C006C007E4C0E0C0E0C0E0C0E085C0
:100600005A82855B83855CF0E55D120B15AA82E555
:100610008124FCF581D007D006D005D004EA6042E1
:10062000C002C004C005C006C007E4C0E0C0E0C00E
:10063000E0C0E0855E82855F838560F0E561120B36
:1006400045AB82E58124FCF581D007D006D005D0EA
:1006500004D002EB600C7542007543007544807550
:10066000453FEA70030206E5C004C005C006C007A6
:10067000E4C0E0C0E0C0E0C0E0855E82855F8385C5
:1006800060F0E561120B15AA82E58124FCF581D0AA
:1006900007D006D005D004EA604BC004C005C006F0
:1006A000C007E4C0E0C0E0C0E0C0E0854682854706
:1006B000838548F0E549120B15AA82E58124FCF5F3
:1006C00081D007D006D005D004EA600C75420075D1
:1006D00043007544A0754540EA700AF542F543753C
:1006E00044A07545C0C004C005C006C007C046C0D0
:1006F00047C048C0498542828543838544F0E5452B
:10070000120D47AA82AB83A8F0F9E58124FCF5819C
:10071000746FC0E07412C0E07483C0E0743AC0E04B
:100720008A828B8388F0E9120D52AA82AB83A8F0EB
:10073000F9E58124FCF581C002C003C000C0018539
:1007400042828543838544F0E545120C2385823E31
:1007500085833F85F040F541E58124FCF581C03E6D
:10076000C03FC040C04190000075F0C87442120DF7
:100770004785824A85834B85F04CF54DE58124FC05
:10078000F581E4C0E0C0E074C8C0E07442C0E08518
:100790003E82853F838540F0E541120C2385824EE1
:1007A00085834F85F050F551E58124FCF581E4C047
:1007B000E0C0E0C0E0C0E0854A82854B83854CF014
:1007C000E54D120B45AA82E58124FCF581D007D0C6
:1007D00006D005D004EA600C754A00754B00754CD4
:1007E00000754D00C004C005C006C007E4C0E0C0ED
:1007F000E074C8C0E07442C0E0854E82854F8385B6
:1008000050F0E551120B15AA82E58124FCF581D048
:1008100007D006D005D004EA600C754E00754F0075
:100820007550C8755142C004C005C006C007E4C079
:10083000E0C0E0C0E0C0E08542828543838544F0AB
:10084000E545120B15AA82E58124FCF581D007D07D
:1008500006D005D004EA6035854A82854B83854CF5
:10086000F0E54DC004C005C006C007120E718582B8
:1008700028854E82854F838550F0E551120E718593
:100880008229D007D006D005D004020965C004C073
:1008900005C006C007E4C0E0C0E0C0E0C0E085429B
:1008A000828543838544F0E545120B45AA82E581A4
:1008B00024FCF581D007D006D005D004EA60348549
:1008C0004E82854F838550F0E551C004C005C006B7
:1008D000C007120E71858228854A82854B83854C1C
:1008E000F0E54D120E71858229D007D006D005D0D3
:1008F000048072C004C005C006C007E4C0E0C0E0C8
:10090000C0E0C0E08546828547838548F0E549120E
:100910000B15AA82E58124FCF581D007D006D0050D
:10092000D004EA60087528647529148038C004C0B2
:1009300005C006C007E4C0E0C0E0C0E0C0E08546F6
:10094000828547838548F0E549120B45AA82E581F7
:1009500024FCF581D007D006D005D004EA600675E6
:1009600029647528140CBC00010D85424685434757
:10097000854448854549BC1E50BD004DAA297B00D1
:10098000A8287900C004C005C006C007C002C00383
:10099000C000C001C05EC05FC060C061C05AC05B23
:1009A000C05CC05DC042C043C044C0457491C0E05B
:1009B0007400C0E07480C0E0120C91E58124EDF574
:1009C00081D007D006D005D004C004C005C006C041
:1009D00007E4C0E0C0E0C0E0C0E0855682855783F0
:1009E0008558F0E559120B15AA82E58124FCF581A2
:1009F000D007D006D005D004EA7003020415EE4FEC
:100A000070090EBE00010FD20180050EBE00010F5D
:100A100074D0B52A127407B52B0DC201E4F52AF57E
:100A20002B755201E4F5537401B55206E4B5530237
:100A30008003020ACDBE0205BF00028012BE03057C
:100A4000BF0002802DBE0405BF000280488077C031
:100A500004C00574C6C0E07400C0E07480C0E01239
:100A60000C91158115811581D005D0047528647508
:100A70002914C004C00574D6C0E07400C0E07480BE
:100A8000C0E0120C91158115811581D005D0047537
:100A90002814752964C004C00574E7C0E07400C060
:100AA000E07480C0E0120C91158115811581D0058C
:100AB000D004E5544555600875286475296480069E
:100AC000752900752800E4F552F553FEFFC004C0F7
:100AD00005C006C007C006C00774F3C0E07400C0BC
:100AE000E07480C0E0120C91E58124FBF581D00711
:100AF000D006D005D00402041520F71430F614886F
:100B000083A88220F507E6A88375830022E280F798
:100B1000E49322E022FFA8811818120E97D2D13355
:100B2000E6400730E70B7582012220E70675820058
:100B300022C2D1120E79E97003F5822230D101B3BD
:100B4000E433F58222FFA8811818120E97D2D13310
:100B5000E6400730E70B7582002220E70675820128
:100B600022C2D1120E79E97003F5822220D101B39D
:100B7000E433F58222120F44BC0003020EE3EF605F
:100B8000FA30D502B2D1E583B4FF03020EF9E58253
:100B9000B4FF03020EF9258340072482400B020EA6
:100BA000E32483145003020EF9F582EA8DF0A4A821
:100BB000F0EA8EF0A428F8E435F0F9EB8DF0A428E3
:100BC000E935F0F9E433CA8FF0A429F9EA35F0FAEF
:100BD000EBF88EF0A429F9EA35F0FAE433FBEC8D5A
:100BE000F0A429F9EA35F0FAE43BFBE88FF0A42AF7
:100BF000FAEB35F0FBE433CCFD8EF0A42AFAEB35AA
:100C0000F0FBE43CFCED8FF0A42BFBEC35F0FC207A
:100C1000E703120F11020EC2E4AC82FBFAF97486EC
:100C2000020F7B120F447900E583B58202800D50DC
:100C300003120F85E583C39582120F9FE5D0C4652B
:100C4000D020E117EA2DFAEB3EFBEC3FFC50097493
:100C500001120F9FEC4480FC020EC2C3EA9DFAEB26
:100C60009EFBEC9FFC500FC3E499F9E49AFAE49BD5
:100C7000FBE49CFCB2D1120F11020EC202196E8568
:100C8000827185837285F073851074900C7C0213D9
:100C9000C1C008858108E50824FBF574E50824FB3C
:100CA000F88671088672088673900C7C1213C1D086
:100CB0000822AA82AB09AC0AAD0B8B828C838DF023
:100CC000EA1219830509E4B50902050A2285820999
:100CD00085830A85F00B850C71850D72850E7385F1
:100CE0000F74900CB21213C1AA82AB83AC09AD0A87
:100CF000AE0B8C828D838EF0E41219838A828B83F3
:100D000022C008858108E50824F8F574E50824FB6D
:100D1000F8860908860A08860BE50824F8F8867123
:100D2000088672088673900CB21213C1AA82AB8334
:100D3000AC09AD0AAE0B8C828D838EF0E412198360
:100D40008A828B83D00822A8811818C6B2E7C6020F
:100D50000C23120F4430D502B2D1BF0009BC0003EE
:100D6000020F06020EF9BC0003020EE3E583B4FF96
:100D70000BE582B4FF03020F06020EE3E582B4FF27
:100D800003020EF9C395835007247F400B020EE344
:100D90002480145003020EF9C0E0E4CCCBCAF98DD4
:100DA000118E128F13EF54F0C4F514758306851459
:100DB000F0EB84F582E9C4F9EAC4FAEBC4FBEC5425
:100DC0000FC47803D6FC18EBD6FB18EAD6FA858256
:100DD000F0EDA4A8F0FD8582F0EEA428FEE435F045
:100DE000F88582F0EFA428FFE435F0F8E99DF9EAF0
:100DF0009EFAEB9FFBEC98FCAD11AE12AF1330E7FF
:100E0000101582E92DF9EA3EFAEB3FFBE43CFC8049
:100E1000EDC082D58398C3E933F9EA33FAEB33FBAB
:100E2000EC33FCC3E99DEA9EEB9FEC9400B3E41322
:100E3000F9D002D0E0C44AFAD003D0E0C44BFBD0D2
:100E400004D0E0F5F0540FC44CFCD082158230F48D
:100E50000FD3EC13FCEB13FBEA13FAE913F9058249
:100E6000E930E70A74012AFAE43BFBE43CFC020E99
:100E7000DA7F861219A2F582227901AA82E68F8290
:100E8000B5821318E6B5F00E18E6B5830918E68AA0
:100E900082B58202790022B4800FE5F0700AE58302
:100EA0007006E58270027F00EFB6801518B600105C
:100EB00018B6000B18B600060808087600220808C5
:100EC0000822B98003EA13B34010EA2401FAE43B94
:100ED000FBE43CFC50047C800582BC000EBB000B94
:100EE000BA0008E4F5F0F583F58222A2D1E5821379
:100EF0008CF092F78B838A8222E4F583F58275F079
:100F000080F4A2D11322E4F583F58275F0C0747FDA
:100F1000227804EC7011E58224F8500AF582E4C9C5
:100F2000CACBFCD8EF22EC7820058220E713D582CB
:100F30000122C3E933F9EA33FAEB33FBEC33FCD893
:100F4000EA158222AA82AB83A2F73392D16002D241
:100F5000F7F582ACF0E58124F9F8E6FD08E6FE0835
:100F600086F008E6A2F73392D56002D2F7F583AF98
:100F7000F022FCABF0AA83A982749EC2D1F5821242
:100F80000F11020EC2E582C583F582A2D133A2D52C
:100F900092D11392D5ECCFFCEBCEFBEACDFA2260D6
:100FA00040F82582500274FFF582E824F8501ECCE8
:100FB000CBCAF9E4CC24F85014CBCAF9E4CB24F81A
:100FC000500BCAF9E4CA24F85003790022240860BF
:100FD00010F8C3EC13FCEB13FBEA13FAE913F9D88E
:100FE000F122AA8274F3C0E0740FC0E0C063C06451
:100FF0008A8222056AE4B56A02056B22AA827430ED
:101000002AFA24C6500A74072AFA3003034302203E
:101010008A82020FE2E582FAC4540FF582C00212FE
:101020000FFCD002740F5AF582020FFCAA65AB6662
:10103000AC67AD68AE69757020EE2EFEED235401ED
:10104000FF4206EA2AFAEB33FBEC33FCED33FDC337
:10105000EE956C4008EEC3956CFE430201D570D945
:101060008A658B668C678D688E69227881E624D0CC
:1010700075F00AA4FA7882E624D02AFA78808603EA
:10108000BB2D04C3E49AFA756C01C3E464808AF052
:1010900063F08095F050297570038A0374F625700B
:1010A000401C056CE570142475F8E5702475F9870B
:1010B00004A604772E1BEBFA6004057080DE8B0219
:1010C000EA30E70D787686037877A6037876762E71
:1010D0000AE56E600AE56E04FB256CF56C80053050
:1010E0000E02056C78758603E4BB2D0104FB7006C7
:1010F000200903300A02056C3007030211B23008E0
:1011000057EB600C75822DC002120FE2D002801CDA
:1011100030090C75822BC002120FE2D002800D3014
:101120000A0A758220C002120FE2D0027876860485
:10113000BC2E0C758230C002120FE2D002156DACCD
:101140006D156DC3E56C9C40030211F6758230C0CD
:1011500002120FE2D00280E7AC6D156DC3E56C9C06
:10116000500C758220C002120FE2D00280EA78751E
:101170008604BC2D0C75822DC002120FE2D00280B5
:101180001C30090C75822BC002120FE2D002800DB8
:10119000300A0A758220C002120FE2D002787686E9
:1011A00004BC2E52758230C002120FE2D002156DBF
:1011B0008044EB600E75822DC002120FE2D0021542
:1011C0006D802030090E75822BC002120FE2D00212
:1011D000156D800F300A0C758220C002120FE2D00C
:1011E00002156D78768603BB2E0C758230C0021214
:1011F0000FE2D002156D757001C210E5702475F80C
:101200008603BB45030212B3BB2E348A03C3E464D6
:10121000808BF063F08095F0500F758230C0031220
:101220000FE2D0031B8B0280E48B02D210E56E70BC
:1012300038200E030212B375822E120FE280743032
:1012400010278A03EB30E71FC3E46480856EF063E8
:10125000F08095F0500C758230C003120FE2D0037D
:10126000156E0B8B0280DD8B0230100EC3E46480A0
:10127000856EF063F08095F05021E5702475F88656
:10128000038B82C002120FE2D00230100EE57024F0
:1012900075F88603BB2E028002156E156DC3E464DB
:1012A00080856EF063F08095F04003201005057096
:1012B0000211FBC3E46480856EF063F08095F0500A
:1012C0000A758230120FE2156E80E830070FAA6DA2
:1012D000156DEA6008758220120FE280F122E56E3A
:1012E0007003300E0D7407256EFAE56DC39AF56D27
:1012F0008006E56D24FAF56D75700078758602BA82
:101300002B0F20090C78757620200A0575700105D1
:101310006D200719AA6DC3E464808AF063F080959C
:10132000F0500A758220120FE2156D80E7C210E5B9
:10133000702475F88602BA00028069BA451F30032E
:10134000027665C3E46480856EF063F08095F050AA
:101350000A758230120FE2156E80E8D210C3E57074
:101360009402E433FA7014EA700EC3E46480856E6C
:10137000F063F08095F04003301016E5702475F8A6
:1013800086028A82120FE2E57024FD5012156E80EB
:101390000E7402B57009300E0675822E120FE2052A
:1013A0007002132F300719AA6DC3E464808AF063BA
:1013B000F08095F0500A758220120FE2156D80E7DB
:1013C00022858263858364E4F56AF56BAA71AB724A
:1013D000AC738A828B838CF0120AF9FD74012AF5B2
:1013E00071E43BF5728C73EDFA7003021967BA254C
:1013F00002800302195FC207C208C209C20AC20BF7
:10140000C20CC20DC20EC204C205C206756C0075C4
:101410006D00756EFFAB71AC72AD738B828C838D7A
:10142000F0120AF9FAA3AB82AC838B718C728D73C4
:10143000BA25078A82120FE280928A06BE300040E7
:101440002E8A06EE24C6402774FFB56E13E56D752F
:10145000F00AA4FEEA24D02EF56D70BFD20880BB3E
:10146000E56E75F00AA4FEEA24D02EF56E80ACBAC3
:101470002E0A74FFB56EA4756E00809F8A06BE6149
:1014800000400E8A06EE248540075302DFD2038017
:1014900002C203BA20028075BA230302151CBA2ABD
:1014A00003021521BA2B02805FBA2D028055BA4281
:1014B00002805FBA4303021566BA44030216A1BA5A
:1014C00045030216BBBA46030216B7BA4703021613
:1014D000BFBA49030216A1BA4C02803BBA4E0302BE
:1014E00016C3BA4F030216A8BA500302163ABA53EB
:1014F0000302158ABA55030216ADBA58030216B292
:101500000216EDD20702141BD20902141BD20A02E2
:10151000141BD20C02141BD20D02141BD20E021487
:101520001B74FFB56E20300C0BE57414F8887486BC
:101530006D02141BE57424FEF8887486060886077D
:10154000188E6D02141B300C0BE57414F888748629
:101550006E02141BE57424FEF8887486060886075C
:10156000188E6E02141B300C0AE57414F888748609
:1015700002800FE57424FEF8887486030886041838
:101580008B028A82120FE20216F2E57424FDF888BB
:1015900074860308860408860518188B658C668D8A
:1015A000678B828C838DF0121AE6AB82AC838B6FD3
:1015B00074FFB56E03856F6E20071DC3E56F956DD3
:1015C0005016E56DC3956FF56DAB6D156DEB60084D
:1015D000758220120FE280F18565828566838567BA
:1015E000F0120AF9FBFA6029AB6E156EC3E4648051
:1015F0008BF063F08095F050188A82120FE2AB6591
:10160000AC66AD670BBB00010C8B658C668D67808B
:10161000C72007030216F2C3E56F956D400302165B
:10162000F2E56DC3956FF56DAB6D156DEB70030253
:1016300016F2758220120FE280EEE57424FDF88820
:1016400074860308860408860518188B658C668DD9
:1016500067E567FB30E7047A438013EB546060046E
:101660007A50800AEB30E6047A4980027A588A82FE
:10167000C002120FE275823A120FE2758230120F29
:10168000E2758278120FE2D002BA4902800BBA509A
:1016900002800685668212101585658212101580FB
:1016A00051D20B756C0A804A756C088045756C0ABE
:1016B0008040756C10803BD2048037D2058033D2D5
:1016C00006802FE57424FDF88874860308860408D4
:1016D000860518188B658C668D678B828C838DF0E0
:1016E000E56A121983A3E56B12198380058A8212B9
:1016F0000FE2200406200503300670E57424FCF890
:101700008874860308860408860508860618181853
:101710008B658C668D678E68E565E566E567E568CF
:101720008B828C838DF0EE1219C774FFB56E037532
:101730006E06300627747F5568FB8B69E569EB2BD5
:10174000FB8B69E56730E70674014569F569E56972
:1017500024684006749925694002D20530050612B6
:1017600012DE0213CC12106B0213CCE56C70030274
:1017700013CC7B7A300C2BE57414F88874E6FC33B8
:1017800095E0FDFEFF8C658D668E678F68200B5E91
:10179000AC657D007E007F008C658D668E678F68EE
:1017A000804C300D1FE57424FCF88874860408868C
:1017B000050886060886071818188C658D668E67DA
:1017C0008F68802AE57424FEF888748604088605EC
:1017D00018ED3395E0FEFF8C658D668E678F68206F
:1017E0000B0CAC65AD667E007F008E678F68300E97
:1017F00043E56545664567456860397408B56C0C16
:10180000758230C003120FE2D00380287410B56CCB
:1018100023758230C003120FE2D00330030C7582AF
:1018200078C003120FE2D003800A758258C00312F9
:101830000FE2D003300B25AC65AD66AE67E568FFFF
:1018400030E717C3E49CFCE49DFDE49EFEE49FFFAB
:101850008C658D668E678F688002C20B756F00D2B3
:101860000F8B00756900C00012102CD000200F0DE6
:10187000E569C4FCE6FD4CF61888038002A66905FC
:101880006FB20FE56545664567456870D68803E524
:101890006D7003756D0120081A200717E56F04FCB1
:1018A000C3956D500E758220C003120FE2D0031550
:1018B0006D80E9300B0E75822DC003120FE2D0034C
:1018C000156D8024E56F602030090E75822BC003F2
:1018D000120FE2D003156D800F300A0C758220C004
:1018E00003120FE2D003156D20071EAC6D156DC3FA
:1018F000E56F9C50273008047C3080027C208C826D
:10190000C003120FE2D00380E2C3E56F956D50096A
:10191000E56DC3956FF56D8003756D008B00AB6F42
:10192000156FEB6022B20F200F0A08E6C4540FFBBC
:101930008B6980078603740F5BF569856982C00037
:10194000120FFCD00080D72007030213CCAB6D151B
:101950006DEB70030213CC758220120FE280EE8AC9
:1019600082120FE20213CC856A82856B8322AA82DF
:10197000BA0A0810990280FB75990D10990280FB34
:101980008A992220F71030F6118883A88220F50763
:10199000F6A88375830022F280F7F0227582002278
:1019A0007F9E121B0E30D103020EE3C3EF958250CF
:1019B0000974FFF5F0F583F582227900120F9F89F3
:1019C000828A838BF0EC22C0E0F84582458345F0A3
:1019D0007009F5F0FBFCFDFE021A95E823A2F792D0
:1019E000E0F8A982AA83D2F7ABF07C007E07C3742B
:1019F0009798404074FF2EFE740A89F0A4F985F090
:101A000082740A8AF0A4FA85F083740A8BF0A4FB2E
:101A1000740529F9EA3582FAEB3583FB740035F059
:101A2000FCC3EC13FCEB13FBEA13FAE913F908EC23
:101A300070EF80BAE8C3947FF88B838EF0E4FBFCF0
:101A4000FDFEFF08C3E933F9EA33FAE58333F58392
:101A5000EB3BD4FBEC3CD4FCED3DD4FDEE3ED4FEA0
:101A6000EF3FD4FF602D05F074052BD4FBE43CD48C
:101A7000FCE43DD4FDE43ED4FEE43FD4FF75820493
:101A8000C3EF13FFEE13FEED13FDEC13FCEB13FBA2
:101A9000D582EDD8AF7875D0E020E704762B8002B0
:101AA000762D087906E7C4540F4430F608B90603CA
:101AB000762E08E7540F4430F60819B902E7764548
:101AC00008E5F020E704762B8004762DF4040875F1
:101AD000F00A844430F608E5F04430F608E4F69065
:101AE000007575F04022AA82AB83ACF07D007E00C9
:101AF0008A828B838CF0120AF9FFA3AA82AB83EF50
:101B000060070DBD00EA0E80E78D828E8322AA82D7
:101B1000AB83A2F73392D16002D2F7F582ACF02208
:00000001FF
