:1000000002000E000000000000000002029775814F
:10001000811219D7E582600302007A780079007AAC
:10002000007B007C007D00EC4D601C88828983E4AD
:1000300093A3A882A9838A828B83F0A3AA82AB832D
:100040001CBCFFE31D80E07582007583007C007D91
:1000500000EC4D600AE4F0A31CBCFFF51D80F275B6
:1000600082007583007C007D00EC4D600AE4F0A303
:100070001CBCFFF51D80F21200E512045D80FE4CF1
:10008000533D25352E3266004C433D2564205354A4
:100090003D2564004572726F723A25352E32662016
:1000A0004C6566743A25352E32662052696768744D
:1000B0003A25352E3266204C6566745F4D6F746F3D
:1000C000723A25642052696768745F4D6F746F726D
:1000D0003A256420202020202020202020202020BD
:1000E0002020200D00E4F523F52475250075260059
:1000F000E4F52AF52BE4F52CF52DE4F52EF52FC2C9
:1001000000C201D202C2032275841E75850075915A
:100110000075920075A40075A50075B10075B20058
:10012000227852D8FE22AA82AB837C007D00C3ECE9
:100130009AED9B50227E14C002C003C004C005C0CB
:1001400006120121D006D005D004D003D002DEE78C
:100150000CBC00DA0D80D722D2A5120121C2A52243
:100160008582E0A2E79294A2E69296A2E59297A2F7
:10017000E492A0A2E392A1A2E292A2A2E192A3A29F
:10018000E092A4020158AA82D2A78A82120160904A
:100190000002020126AA82C2A78A82120160900090
:1001A00005020126C2A5C2A690001412012675827E
:1001B00033120195758233120195758233120195C0
:1001C00075823812019575820C12019575820112A3
:1001D0000195900014020126AA82AB83ACF0740250
:1001E000B530047DC080027D808D82C002C003C016
:1001F00004120195900005120126D004D003D0020C
:100200007D00ED2AFEE43BFF8C008E828F8388F018
:10021000120B27FE60188E82C002C003C004C00506
:10022000120186D005D004D003D0020D80D4300452
:10023000148D02BA1000500D758220C00212018682
:10024000D0020A80EE227A2879FA78B8D8FED9FA54
:10025000DAF62275BD0075BF0075BE3075BD037539
:1002600098527591007592002243841E5385E1D205
:10027000C675A12075A3F0759705E59730E3FB22BD
:10028000C28C74F055894401F589758CFE758A908D
:10029000D28CD2A9D2AF22C0E0C0D075D000C28C1F
:1002A000758CFE758A90D28C0527E527249C500317
:1002B000752700C3E52795289285C3E527952992E0
:1002C0008674012523F523E43524F5247410B52321
:1002D000207427B5241BD200E4F523F524052574EA
:1002E0003CB5250D7525000526743CB526037526FD
:1002F0000030010B7401252AF52AE4352BF52B304B
:10030000031C7401252CF52CE4352DF52D7420B536
:100310002C0C744EB52D07E4F52CF52DC203D0D06E
:10032000D0E032C20085F582120C46AA82AB83ACC3
:10033000F0FDE4C0E0C0E0747FC0E07443C0E08A38
:10034000828B838CF0ED120D8DAA82AB83ACF0FD15
:10035000E58124FCF581C002C003C004C0059033D0
:100360003375F0537440120BA3AA82AB83ACF0FD3B
:10037000E58124FCF581C002C003C004C005747F80
:10038000C0E07400C0E07480C0E07431C0E074006C
:10039000C0E07440C0E0120D2FE58124F6F58175B0
:1003A0003001D20490003175F0401201D8A203E46C
:1003B00033FA7B00C002C003C02EC02F7488C0E097
:1003C0007400C0E07480C0E07431C0E07400C0E02C
:1003D0007440C0E0120D2FE58124F6F581753002DE
:1003E000D20490003175F0400201D8E4F52AF52BD3
:1003F000D20175281475296474D0B52AF57407B52F
:100400002BF0C201E4F52AF52B22E4F52AF52BD2D4
:100410000175286475291474D0B52AF57407B52BB5
:10042000F0C201E4F52AF52B227528007529008019
:10043000F8AA82AB83BA0205BB00028010BA03059A
:10044000BB0002800BBA0414BB001180061203EB40
:1004500012040A10020280012202042922E4F54655
:10046000F547F548F549E5D6E5D7E5F5E4F55AF55C
:100470005BF55CF55D755E01E4F55F120108120144
:10048000A4120253120269120280754A00754B00D1
:10049000754C00754D0085D682120C46AA82AB833E
:1004A000ACF0FDE4C0E0C0E0747FC0E07443C0E0A5
:1004B0008A828B838CF0ED120D8DAA82AB83ACF017
:1004C000FDE58124FCF581C002C003C004C0059095
:1004D000333375F0537440120BA3AA82AB83ACF094
:1004E000FDE58124FCF58185D782C002C003C004EC
:1004F000C005120C46A882A983AEF0FFE4C0E0C09C
:10050000E0747FC0E07443C0E0888289838EF0EF9E
:10051000120D8DAE82AF83A8F0F9E58124FCF58140
:10052000C006C007C000C00190333375F05374405B
:10053000120BA385824E85834F85F050F551E581DE
:1005400024FCF58185F582120C46AE82AF83A8F0BB
:10055000F9E4C0E0C0E0747FC0E07443C0E08E8284
:100560008F8388F0E9120D8DAE82AF83A8F0F9E594
:100570008124FCF581C006C007C000C00190333360
:1005800075F0537440120BA385825285835385F016
:1005900054F555E58124FCF581D005D004D003D075
:1005A00002C002C003C004C005C04EC04FC050C04E
:1005B000518A828B838CF0ED120D7585825685836E
:1005C0005785F058F559E58124FCF581D005D00414
:1005D000D003D002300013C002C003C004C0051213
:1005E0000323D005D004D003D002C002C003C0044E
:1005F000C005C046C047C048C04990000075F0C85B
:100600007441120BA385824285834385F044F545EE
:10061000E58124FCF581D005D004D003D002C002CE
:10062000C003C004C005C002C003C004C00590CC14
:10063000CD75F0CC743E120B73AE82E58124FCF5CF
:1006400081D005D004D003D002EE70030206F5C0BD
:1006500002C003C004C0057433C0E0C0E0C0E07451
:100660003FC0E08A828B838CF0ED120B73AE82E583
:100670008124FCF581D005D004D003D002EE607552
:10068000C002C003C004C005C04EC04FC050C0511E
:1006900090CCCD75F0CC743E120B73AE82E5812404
:1006A000FCF581D005D004D003D002EE6047C00233
:1006B000C003C004C0057433C0E0C0E0C0E0743FB4
:1006C000C0E0854E82854F838550F0E551120B7353
:1006D000AE82E58124FCF581D005D004D003D002A0
:1006E000EE60127546007547007548007549007543
:1006F0002864752964C002C003C004C005C056C088
:1007000057C058C059900000E4F5F0743F120B73C5
:10071000AE82E58124FCF581D005D004D003D0025F
:10072000EE604C754600754700754840754940C0FD
:1007300002C003C004C005C042C043C044C04590CD
:10074000000075F0C87442120D75AE82AF83A8F038
:10075000F9E58124FCF5818E828F8388F0E9120E01
:10076000AC858228D005D004D003D002752964C09E
:1007700002C003C004C005E4C0E0C0E0C0E074BF34
:10078000C0E08556828557838558F0E559120B7372
:10079000AE82E58124FCF581D005D004D003D002DF
:1007A000EE60547546007547007548407549C07540
:1007B0002864C002C003C004C005E4C0E0C0E07407
:1007C000C8C0E07442C0E08542828543838544F01E
:1007D000E545120C51AE82AF83A8F0F9E58124FC07
:1007E000F5818E828F8388F0E9120EAC858229D044
:1007F00005D004D003D002C002C003C004C00574F9
:10080000CDC0E074CCC0E0C0E0743EC0E08A828B12
:10081000838CF0ED120B73AE82E58124FCF581D060
:1008200005D004D003D002EE700302096BC002C0F1
:1008300003C004C00574CDC0E074CCC0E0C0E07457
:100840003EC0E0854E82854F838550F0E551120B06
:1008500073AE82E58124FCF581D005D004D003D0AD
:1008600002EE700302096BC002C003C004C005E4BD
:10087000C0E0C0E0C0E0C0E0854A82854B83854C83
:10088000F0E54D120B43AE82E58124FCF581D005E5
:10089000D004D003D002EE604C7546007547007559
:1008A00048A0754940C002C003C004C005C042C092
:1008B00043C044C04590000075F0C87442120D75E5
:1008C000AE82AF83A8F0F9E58124FCF5818E828F9A
:1008D0008388F0E9120EAC858228D005D004D003BD
:1008E000D002752964C002C003C004C005E4C0E0A2
:1008F000C0E0C0E0C0E0854A82854B83854CF0E5CE
:100900004D120B73AE82E58124FCF581D005D00435
:10091000D003D002EE60547546007547007548A0BC
:100920007549C0752864C002C003C004C005E4C096
:10093000E0C0E074C8C0E07442C0E08542828543F4
:10094000838544F0E545120C51AE82AF83A8F0F9DF
:10095000E58124FCF5818E828F8388F0E9120EAC4C
:10096000858229D005D004D003D00285464A854728
:100970004B85484C85494DAE297F00A8287900C099
:1009800006C007C000C001C04EC04FC050C051C01B
:1009900002C003C004C005C046C047C048C0497477
:1009A00094C0E07400C0E07480C0E0120CBFE58128
:1009B00024EDF581E4B55E06E4B55F028032740192
:1009C000B55E06E4B55F0280587402B55E07E4B513
:1009D0005F03020A6A7403B55E07E4B55F03020AA7
:1009E000BB7404B55E07E4B55F03020ADB0204963C
:1009F00074CDC0E074CCC0E0744CC0E0743FC0E083
:100A00008552828553838554F0E555120B43AA82A3
:100A1000E58124FCF581EA6008D203755E02E4F505
:100A20005F74CDC0E074CCC0E0744CC0E0743FC0D3
:100A3000E08552828553838554F0E555120B43AA15
:100A400082E58124FCF581EA6006755E02E4F55FCB
:100A5000300303020496855A5C855B5DE4F55AF524
:100A60005B755E04E4F55F0204967429C0E0745C73
:100A7000C0E0748FC0E0743DC0E08552828553832E
:100A80008554F0E555120B73AA82E58124FCF581AB
:100A9000EA600E055AE4B55A02055B755E03E4F59B
:100AA0005F300303020496855A5C855B5DE4F55A6A
:100AB000F55B755E04E4F55F020496200314855A25
:100AC0005C855B5DE4F55AF55B755E04E4F55F02F9
:100AD0000496755E01E4F55F020496855A82855B93
:100AE00083120D80AA82AB83ACF0FD74CDC0E0749C
:100AF000CCC0E0744CC0E0743FC0E08A828B838C31
:100B0000F0ED120B43AA82E58124FCF581EA700323
:100B1000020496120429855C82855D83120431E407
:100B2000F55EF55F02049620F71430F6148883A86A
:100B30008220F507E6A88375830022E280F7E4931C
:100B400022E022FFA8811818120ED2D2D133E6403B
:100B50000730E70B7582012220E70675820022C26A
:100B6000D1120EB4E97003F5822230D101B3E4331F
:100B7000F58222FFA8811818120ED2D2D133E64096
:100B80000730E70B7582002220E70675820122C23A
:100B9000D1120EB4E97003F5822220D101B3E433FF
:100BA000F58222120F7FBC0003020F1EEF60FA30A5
:100BB000D502B2D1E583B4FF03020F34E582B4FF5E
:100BC00003020F34258340072482400B020F1E24AA
:100BD00083145003020F34F582EA8DF0A4A8F0EAE2
:100BE0008EF0A428F8E435F0F9EB8DF0A428E9356F
:100BF000F0F9E433CA8FF0A429F9EA35F0FAEBF8FA
:100C00008EF0A429F9EA35F0FAE433FBEC8DF0A478
:100C100029F9EA35F0FAE43BFBE88FF0A42AFAEB75
:100C200035F0FBE433CCFD8EF0A42AFAEB35F0FB73
:100C3000E43CFCED8FF0A42BFBEC35F0FC20E7034B
:100C4000120F4C020EFDE4AC82FBFAF97486020F1F
:100C5000B6120F7F7900E583B58202800D50031232
:100C60000FC0E583C39582120FDAE5D0C465D020AA
:100C7000E117EA2DFAEB3EFBEC3FFC500974011240
:100C80000FDAEC4480FC020EFDC3EA9DFAEB9EFBFA
:100C9000EC9FFC500FC3E499F9E49AFAE49BFBE45F
:100CA0009CFCB2D1120F4C020EFD0219A985826E76
:100CB00085836F85F070851071900CAA0213FCC0BB
:100CC00008858108E50824FBF571E50824FBF88612
:100CD0006E08866F088670900CAA1213FCD008224A
:100CE000AA82AB09AC0AAD0B8B828C838DF0EA1221
:100CF00019BE0509E4B50902050A22858209858322
:100D00000A85F00B850C6E850D6F850E70850F7151
:100D1000900CE01213FCAA82AB83AC09AD0AAE0BB7
:100D20008C828D838EF0E41219BE8A828B8322C05E
:100D300008858108E50824F8F571E50824FBF886A4
:100D40000908860A08860BE50824F8F8866E0886E6
:100D50006F088670900CE01213FCAA82AB83AC097A
:100D6000AD0AAE0B8C828D838EF0E41219BE8A829E
:100D70008B83D00822A8811818C6B2E7C6020C518E
:100D8000AC83AB827A007900748E0219E4120F7F73
:100D900030D502B2D1BF0009BC0003020F41020FDF
:100DA00034BC0003020F1EE583B4FF0BE582B4FFE1
:100DB00003020F41020F1EE582B4FF03020F34C38A
:100DC00095835007247F400B020F1E24801450038C
:100DD000020F34C0E0E4CCCBCAF98D118E128F1310
:100DE000EF54F0C4F5147583068514F0EB84F58296
:100DF000E9C4F9EAC4FAEBC4FBEC540FC47803D697
:100E0000FC18EBD6FB18EAD6FA8582F0EDA4A8F020
:100E1000FD8582F0EEA428FEE435F0F88582F0EF3F
:100E2000A428FFE435F0F8E99DF9EA9EFAEB9FFB70
:100E3000EC98FCAD11AE12AF1330E7101582E92D1E
:100E4000F9EA3EFAEB3FFBE43CFC80EDC082D5833F
:100E500098C3E933F9EA33FAEB33FBEC33FCC3E92B
:100E60009DEA9EEB9FEC9400B3E413F9D002D0E02E
:100E7000C44AFAD003D0E0C44BFBD004D0E0F5F074
:100E8000540FC44CFCD082158230F40FD3EC13FC09
:100E9000EB13FBEA13FAE913F90582E930E70A7468
:100EA000012AFAE43BFBE43CFC020F157F86121A90
:100EB0000AF582227901AA82E68F82B5821318E6AA
:100EC000B5F00E18E6B5830918E68A82B582027974
:100ED0000022B4800FE5F0700AE5837006E58270A9
:100EE000027F00EFB6801518B6001018B6000B1878
:100EF000B6000608080876002208080822B9800310
:100F0000EA13B34010EA2401FAE43BFBE43CFC5052
:100F1000047C800582BC000EBB000BBA0008E4F51F
:100F2000F0F583F58222A2D1E582138CF092F78B43
:100F3000838A8222E4F583F58275F080F4A2D113CE
:100F400022E4F583F58275F0C0747F227804EC709A
:100F500011E58224F8500AF582E4C9CACBFCD8EF27
:100F600022EC7820058220E713D5820122C3E933E1
:100F7000F9EA33FAEB33FBEC33FCD8EA158222AA08
:100F800082AB83A2F73392D16002D2F7F582ACF044
:100F9000E58124F9F8E6FD08E6FE0886F008E6A2F9
:100FA000F73392D56002D2F7F583AFF022FCABF0B5
:100FB000AA83A982749EC2D1F582120F4C020EFD43
:100FC000E582C583F582A2D133A2D592D11392D501
:100FD000ECCFFCEBCEFBEACDFA226040F825825044
:100FE0000274FFF582E824F8501ECCCBCAF9E4CC99
:100FF00024F85014CBCAF9E4CB24F8500BCAF9E416
:10100000CA24F8500379002224086010F8C3EC13B6
:10101000FCEB13FBEA13FAE913F9D8F122AA827464
:101020002EC0E07410C0E0C060C0618A82220567F3
:10103000E4B56702056822AA8274302AFA24C650F1
:101040000A74072AFA3005034302208A8202101D1F
:10105000E582FAC4540FF582C002121037D0027430
:101060000F5AF582021037AA62AB63AC64AD65AE6D
:1010700066756D20EE2EFEED235401FF4206EA2A2E
:10108000FAEB33FBEC33FCED33FDC3EE956940081E
:10109000EEC39569FE430201D56DD98A628B638CDC
:1010A000648D658E6622787EE624D075F00AA4FAF7
:1010B000787FE624D02AFA787D8603BB2D04C3E42A
:1010C0009AFA756901C3E464808AF063F08095F050
:1010D0005029756D038A0374F6256D401C0569E57A
:1010E0006D142472F8E56D2472F98704A604772E36
:1010F0001BEBFA6004056D80DE8B02EA30E70D78A9
:101100007386037874A6037873762E0AE56B600AFB
:10111000E56B04FB2569F5698005301002056978E7
:10112000728603E4BB2D0104FB7006200B03300C18
:101130000205693009030211ED300A57EB600C75A6
:10114000822DC00212101DD002801C300B0C758243
:101150002BC00212101DD002800D300C0A758220A7
:10116000C00212101DD00278738604BC2E0C75824A
:1011700030C00212101DD002156AAC6A156AC3E5B0
:10118000699C4003021231758230C00212101DD0DA
:101190000280E7AC6A156AC3E5699C500C75822031
:1011A000C00212101DD00280EA78728604BC2D0C99
:1011B00075822DC00212101DD002801C300B0C75E0
:1011C000822BC00212101DD002800D300C0A7582D5
:1011D00020C00212101DD00278738604BC2E5275F6
:1011E0008230C00212101DD002156A8044EB600EDE
:1011F00075822DC00212101DD002156A8020300B9E
:101200000E75822BC00212101DD002156A800F309D
:101210000C0C758220C00212101DD002156A787362
:101220008603BB2E0C758230C00212101DD0021531
:101230006A756D01C212E56D2472F88603BB450321
:101240000212EEBB2E348A03C3E464808BF063F099
:101250008095F0500F758230C00312101DD0031B13
:101260008B0280E48B02D212E56B703820100302EF
:1012700012EE75822E12101D80743012278A03EB35
:1012800030E71FC3E46480856BF063F08095F05015
:101290000C758230C00312101DD003156B0B8B022E
:1012A00080DD8B0230120EC3E46480856BF063F046
:1012B0008095F05021E56D2472F886038B82C00280
:1012C00012101DD00230120EE56D2472F88603BB99
:1012D0002E028002156B156AC3E46480856BF0638F
:1012E000F08095F04003201205056D021236C3E42C
:1012F0006480856BF063F08095F0500A758230123F
:10130000101D156B80E830090FAA6A156AEA60089B
:1013100075822012101D80F122E56B700330100DD4
:101320007407256BFAE56AC39AF56A8006E56A24B4
:10133000FAF56A756D0078728602BA2B0F200B0CD5
:1013400078727620200C05756D01056A200919AAAE
:101350006AC3E464808AF063F08095F0500A758275
:101360002012101D156A80E7C212E56D2472F886FE
:1013700002BA00028069BA451F3005027665C3E4EF
:101380006480856BF063F08095F0500A75823012AE
:10139000101D156B80E8D212C3E56D9402E433FA98
:1013A0007014EA700EC3E46480856BF063F080957E
:1013B000F04003301216E56D2472F886028A82121C
:1013C000101DE56D24FD5012156B800E7402B56D75
:1013D0000930100675822E12101D056D02136A3039
:1013E0000919AA6AC3E464808AF063F08095F0501A
:1013F0000A75822012101D156A80E7228582608599
:101400008361E4F567F568AA6EAB6FAC708A828B76
:10141000838CF0120B27FD74012AF56EE43BF56F07
:101420008C70EDFA70030219A2BA2502800302192A
:101430009AC209C20AC20BC20CC20DC20EC20FC2AE
:1014400010C206C207C208756900756A00756BFF95
:10145000AB6EAC6FAD708B828C838DF0120B27FA64
:10146000A3AB82AC838B6E8C6F8D70BA25078A829A
:1014700012101D80928A06BE3000402E8A06EE248D
:10148000C6402774FFB56B13E56A75F00AA4FEEA3F
:1014900024D02EF56A70BFD20A80BBE56B75F00AC6
:1014A000A4FEEA24D02EF56B80ACBA2E0A74FFB5E8
:1014B0006BA4756B00809F8A06BE6100400E8A0691
:1014C000EE248540075302DFD2058002C205BA2010
:1014D000028075BA2303021557BA2A0302155CBAB3
:1014E0002B02805FBA2D028055BA4202805FBA4358
:1014F000030215A1BA44030216DCBA45030216F62C
:10150000BA46030216F2BA47030216FABA490302B0
:1015100016DCBA4C02803BBA4E030216FEBA4F03E9
:101520000216E3BA5003021675BA53030215C5BA80
:1015300055030216E8BA58030216ED021728D2091D
:10154000021456D20B021456D20C021456D20E02BA
:101550001456D20F021456D21002145674FFB56BF3
:1015600020300E0BE57114F88871866A021456E576
:101570007124FEF888718606088607188E6A0214A0
:1015800056300E0BE57114F88871866B021456E51F
:101590007124FEF888718606088607188E6B02147F
:1015A00056300E0AE57114F888718602800FE571D5
:1015B00024FEF888718603088604188B028A82123A
:1015C000101D02172DE57124FDF888718603088629
:1015D0000408860518188B628C638D648B828C835B
:1015E0008DF0121B4EAB82AC838B6C74FFB56B031A
:1015F000856C6B20091DC3E56C956A5016E56AC3BE
:10160000956CF56AAB6A156AEB600875822012105A
:101610001D80F18562828563838564F0120B27FB50
:10162000FA6029AB6B156BC3E464808BF063F080C8
:1016300095F050188A8212101DAB62AC63AD640B3A
:10164000BB00010C8B628C638D6480C72009030290
:10165000172DC3E56C956A400302172DE56AC39503
:101660006CF56AAB6A156AEB700302172D75822060
:1016700012101D80EEE57124FDF88871860308863E
:101680000408860518188B628C638D64E564FB3052
:10169000E7047A438013EB546060047A50800AEBCD
:1016A00030E6047A4980027A588A82C00212101DFC
:1016B00075823A12101D75823012101D75827812D3
:1016C000101DD002BA4902800BBA50028006856311
:1016D000821210508562821210508051D20D7569AD
:1016E0000A804A756908804575690A8040756910E5
:1016F000803BD2068037D2078033D208802FE57135
:1017000024FDF88871860308860408860518188B5E
:10171000628C638D648B828C838DF0E5671219BEB9
:10172000A3E5681219BE80058A8212101D200606E4
:10173000200703300870E57124FCF88871860308DF
:1017400086040886050886061818188B628C638D37
:10175000648E65E562E563E564E5658B828C838D67
:10176000F0EE121A2F74FFB56B03756B0630082765
:10177000747F5565FB8B66E566EB2BFB8B66E5643A
:1017800030E70674014566F566E566246840067430
:101790009925664002D20730070612131902140772
:1017A0001210A6021407E56970030214077B773054
:1017B0000E2BE57114F88871E6FC3395E0FDFEFF11
:1017C0008C628D638E648F65200D5EAC627D007EC1
:1017D000007F008C628D638E648F65804C300F1F9C
:1017E000E57124FCF88871860408860508860608D9
:1017F00086071818188C628D638E648F65802AE5C1
:101800007124FEF88871860408860518ED3395E08A
:10181000FEFF8C628D638E648F65200D0CAC62AD13
:10182000637E007F008E648F65301043E562456300
:101830004564456560397408B5690C758230C0032C
:1018400012101DD00380287410B56923758230C032
:101850000312101DD00330050C758278C0031210DE
:101860001DD003800A758258C00312101DD00330AA
:101870000D25AC62AD63AE64E565FF30E717C3E4E8
:101880009CFCE49DFDE49EFEE49FFF8C628D638ED4
:10189000648F658002C20D756C00D2118B00756675
:1018A00000C000121067D00020110DE566C4FCE6F0
:1018B000FD4CF61888038002A666056CB211E5623D
:1018C00045634564456570D68803E56A7003756AAB
:1018D00001200A1A200917E56C04FCC3956A500E12
:1018E000758220C00312101DD003156A80E9300DE7
:1018F0000E75822DC00312101DD003156A8024E5D9
:101900006C6020300B0E75822BC00312101DD003AB
:10191000156A800F300C0C758220C00312101DD088
:1019200003156A20091EAC6A156AC3E56C9C502732
:10193000300A047C3080027C208C82C00312101D8F
:10194000D00380E2C3E56C956A5009E56AC3956CE3
:10195000F56A8003756A008B00AB6C156CEB602236
:10196000B21120110A08E6C4540FFB8B668007866B
:1019700003740F5BF566856682C000121037D000D5
:1019800080D7200903021407AB6A156AEB700302C3
:10199000140775822012101D80EE8A8212101D021B
:1019A000140785678285688322AA82BA0A0810997B
:1019B0000280FB75990D10990280FB8A992220F70D
:1019C0001030F6118883A88220F507F6A883758366
:1019D0000022F280F7F02275820022FCABF0AA838D
:1019E000A982749EF582C2D1EC30E716D2D1E9F417
:1019F0002401F9EAF43400FAEBF43400FBECF4349B
:101A000000FC120F4C020EFD7F9E121B7630D1039C
:101A1000020F1EC3EF9582500974FFF5F0F583F5B0
:101A200082227900120FDA89828A838BF0EC22C03D
:101A3000E0F84582458345F07009F5F0FBFCFDFEBA
:101A4000021AFDE823A2F792E0F8A982AA83D2F74E
:101A5000ABF07C007E07C3749798404074FF2EFE65
:101A6000740A89F0A4F985F082740A8AF0A4FA85D0
:101A7000F083740A8BF0A4FB740529F9EA3582FA25
:101A8000EB3583FB740035F0FCC3EC13FCEB13FB6C
:101A9000EA13FAE913F908EC70EF80BAE8C3947F0F
:101AA000F88B838EF0E4FBFCFDFEFF08C3E933F9FD
:101AB000EA33FAE58333F583EB3BD4FBEC3CD4FC0F
:101AC000ED3DD4FDEE3ED4FEEF3FD4FF602D05F09A
:101AD00074052BD4FBE43CD4FCE43DD4FDE43ED4BB
:101AE000FEE43FD4FF758204C3EF13FFEE13FEED57
:101AF00013FDEC13FCEB13FBD582EDD8AF7872D05D
:101B0000E020E704762B8002762D087906E7C4549E
:101B10000F4430F608B90603762E08E7540F443018
:101B2000F60819B902E7764508E5F020E704762BB8
:101B30008004762DF4040875F00A844430F608E534
:101B4000F04430F608E4F690007275F04022AA8264
:101B5000AB83ACF07D007E008A828B838CF0120B0D
:101B600027FFA3AA82AB83EF60070DBD00EA0E80BA
:101B7000E78D828E8322AA82AB83A2F73392D16053
:101B800002D2F7F582ACF022000000000000000055
:00000001FF
