:1000000002000E00000000000000000202A4758142
:10001000811214DCE582600302007A780079007AAC
:10002000007B007C007D00EC4D601C88828983E4AD
:1000300093A3A882A9838A828B83F0A3AA82AB832D
:100040001CBCFFE31D80E07582007583007C007D91
:1000500000EC4D600AE4F0A31CBCFFF51D80F275B6
:1000600082007583007C007D00EC4D600AE4F0A303
:100070001CBCFFF51D80F21200D912041480FE563C
:10008000303A2025342E3266560056313A20253437
:100090002E32665600563D25352E3266002530320A
:1000A000643A25303264007475726E206C65667433
:1000B00020202020200D007475726E207269676800
:1000C0007420202020200D00676F207374726169F6
:1000D000676874202020200D00E4F522F5237524A4
:1000E00000752500C2002275841E7585007591007B
:1000F00075920075A40075A50075B10075B2002257
:100100007852D8FE22AA82AB837C007D00C3EC9A91
:10011000ED9B50227E14C002C003C004C005C0067F
:10012000120100D006D005D004D003D002DEE70CC7
:10013000BC00DA0D80D722D2A5120100C2A522850B
:1001400082E0A2E79294A2E69296A2E59297A2E4B8
:1001500092A0A2E392A1A2E292A2A2E192A3A2E0C3
:1001600092A4020137AA82D2A78A8212013F90008C
:1001700002020105AA82C2A78A8212013F900005ED
:10018000020105C2A5C2A6900014120105758233B2
:100190001201747582331201747582331201747501
:1001A000823812017475820C120174758201120179
:1001B00074900014020105AA82AB83ACF07402B5FE
:1001C00029047DC080027D808D82C002C003C004EE
:1001D000120174900005120105D004D003D0027DF5
:1001E00000ED2AFEE43BFF8C008E828F8388F012A4
:1001F0000702FE60188E82C002C003C004C0051250
:100200000165D005D004D003D0020D80D430011494
:100210008D02BA1000500D758220C002120165D007
:10022000020A80EE22752A73752B6F752C6D752D61
:1002300065752E74752F6875306975316E75326706
:10024000753300752902D20190002A75F040120121
:10025000B780D27A2879FA78B8D8FED9FADAF622B5
:1002600075BD0075BF0075BE3075BD0375985275BC
:1002700091007592002243841E5385E1D2C675A178
:100280002075A3F0759705E59730E3FB22C28C74C7
:10029000F055894401F589758CFE758A90D28CD20F
:1002A000A9D2AF22C0E0C0D075D000C28C758CFE40
:1002B000758A90D28C0526E526249C50037526006D
:1002C000C3E52695279285C3E52695289286740175
:1002D0002522F522E43523F5237410B52220742756
:1002E000B5231BD200E4F522F5230524743CB52484
:1002F0000D7524000525743CB52503752500D0D067
:10030000D0E03285D582120821AA82AB83ACF0FD01
:10031000C002C003C004C00590333375F05374406D
:1003200012077EAA82AB83ACF0FDE58124FCF58147
:10033000E4C0E0C0E0747FC0E07443C0E08A828B18
:10034000838CF0ED1208F7AA82AB83ACF0FDE58157
:1003500024FCF581C002C003C004C005747FC0E066
:100360007400C0E07480C0E0743EC0E07400C0E07F
:100370007440C0E01208B1E58124F6F581752901C9
:10038000D20190003E75F0401201B785D682120866
:1003900021AA82AB83ACF0FDC002C003C004C0053B
:1003A00090333375F053744012077EAA82AB83AC4E
:1003B000F0FDE58124FCF581E4C0E0C0E0747FC07D
:1003C000E07443C0E08A828B838CF0ED1208F7AAB8
:1003D00082AB83ACF0FDE58124FCF581C002C00353
:1003E000C004C005748AC0E07400C0E07480C0E03E
:1003F000743EC0E07400C0E07440C0E01208B1E593
:100400008124F6F581752902D20190003E75F040F5
:100410000201B7221200E712018312026012027673
:1004200012028D1000030204F085D582120821AA61
:1004300082AB83ACF0FDE4C0E0C0E0747FC0E07448
:1004400043C0E08A828B838CF0ED1208F7AA82AB5E
:1004500083ACF0FDE58124FCF581C002C003C0043B
:10046000C00590333375F053744012077EAA82ABF7
:1004700083ACF0FDE58124FCF581C002C003C0041B
:10048000C0057495C0E07400C0E07480C0E0744F93
:10049000C0E07400C0E07440C0E01208B1E58124FF
:1004A000F6F581752901D20190004F75F0401201D7
:1004B000B7AA247B00AC257D00C002C003C004C0E5
:1004C00005749DC0E07400C0E07480C0E0744FC04B
:1004D000E07400C0E07440C0E01208B1E58124F689
:1004E000F581752902D20190004F75F0401201B7D5
:1004F00085D682120821AA82AB83ACF0FDE4C0E06D
:10050000C0E0747FC0E07443C0E08A828B838CF0CB
:10051000ED1208F7AA82AB83ACF0FDE58124FCF56F
:1005200081C002C003C004C00590333375F053741A
:100530004012077EAA82AB83ACF0FDE58124FCF576
:1005400081E4C0E0C0E0C0E07440C0E08A828B83F8
:100550008CF0ED12071EAA82E58124FCF581EA7079
:10056000030205ED85D782120821AA82AB83ACF085
:10057000FDE4C0E0C0E0747FC0E07443C0E08A8264
:100580008B838CF0ED1208F7AA82AB83ACF0FDE50B
:100590008124FCF581C002C003C004C00590333340
:1005A00075F053744012077EAA82AB83ACF0FDE570
:1005B0008124FCF581E4C0E0C0E0C0E07440C0E00C
:1005C0008A828B838CF0ED12074EAA82E58124FC8F
:1005D000F581EA601874A7C0E07400C0E07480C0C0
:1005E000E012084115811581158102042385D68208
:1005F000120821AA82AB83ACF0FDE4C0E0C0E07435
:100600007FC0E07443C0E08A828B838CF0ED1208D7
:10061000F7AA82AB83ACF0FDE58124FCF581C00232
:10062000C003C004C00590333375F0537440120703
:100630007EAA82AB83ACF0FDE58124FCF581E4C0A9
:10064000E0C0E0C0E07440C0E08A828B838CF0EDB3
:1006500012074EAA82E58124FCF581EA70030206A6
:10066000EA85D782120821AA82AB83ACF0FDE4C0F0
:10067000E0C0E0747FC0E07443C0E08A828B838C6A
:10068000F0ED1208F7AA82AB83ACF0FDE58124FC03
:10069000F581C002C003C004C00590333375F05328
:1006A000744012077EAA82AB83ACF0FDE58124FC86
:1006B000F581E4C0E0C0E0C0E07440C0E08A828B15
:1006C000838CF0ED12071EAA82E58124FCF581EAF5
:1006D000601874B7C0E07400C0E07480C0E0120815
:1006E0004115811581158102042374C8C0E074008E
:1006F000C0E07480C0E012084115811581158102A7
:10070000042320F71430F6148883A88220F507E626
:10071000A88375830022E280F7E49322E022FFA8F9
:10072000811818120A34D2D133E6400730E70B752E
:1007300082012220E70675820022C2D1120A16E940
:100740007003F5822230D101B3E433F58222FFA891
:10075000811818120A34D2D133E6400730E70B75FE
:1007600082002220E70675820122C2D1120A16E910
:100770007003F5822220D101B3E433F58222120AFC
:10078000E1BC0003020A80EF60FA30D502B2D1E585
:1007900083B4FF03020A96E582B4FF03020A96259A
:1007A0008340072482400B020A80248314500302F2
:1007B0000A96F582EA8DF0A4A8F0EA8EF0A428F853
:1007C000E435F0F9EB8DF0A428E935F0F9E433CA0B
:1007D0008FF0A429F9EA35F0FAEBF88EF0A429F9A4
:1007E000EA35F0FAE433FBEC8DF0A429F9EA35F0B0
:1007F000FAE43BFBE88FF0A42AFAEB35F0FBE43394
:10080000CCFD8EF0A42AFAEB35F0FBE43CFCED8F36
:10081000F0A42BFBEC35F0FC20E703120AAE020A31
:100820005FE4AC82FBFAF97486020B180214AE8501
:10083000826E85836F85F07085107190082C020F91
:1008400001C008858108E50824FBF571E50824FB53
:10085000F8866E08866F08867090082C120F01D0FB
:100860000822AA82AB09AC0AAD0B8B828C838DF077
:10087000EA1214C30509E4B50902050A22858209B2
:1008800085830A85F00B850C6E850D6F850E70854E
:100890000F71900862120F01AA82AB83AC09AD0AF6
:1008A000AE0B8C828D838EF0E41214C38A828B830C
:1008B00022C008858108E50824F8F571E50824FBC5
:1008C000F8860908860A08860BE50824F8F8866E7B
:1008D00008866F088670900862120F01AA82AB83A7
:1008E000AC09AD0AAE0B8C828D838EF0E41214C37A
:1008F0008A828B83D00822120AE130D502B2D1BF9E
:100900000009BC0003020AA3020A96BC0003020A03
:1009100080E583B4FF0BE582B4FF03020AA3020A59
:1009200080E582B4FF03020A96C395835007247FB3
:10093000400B020A802480145003020A96C0E0E4AF
:10094000CCCBCAF98D118E128F13EF54F0C4F5146D
:100950007583068514F0EB84F582E9C4F9EAC4FADC
:10096000EBC4FBEC540FC47803D6FC18EBD6FB1891
:10097000EAD6FA8582F0EDA4A8F0FD8582F0EEA417
:1009800028FEE435F0F88582F0EFA428FFE435F086
:10099000F8E99DF9EA9EFAEB9FFBEC98FCAD11AEED
:1009A00012AF1330E7101582E92DF9EA3EFAEB3F5A
:1009B000FBE43CFC80EDC082D58398C3E933F9EABF
:1009C00033FAEB33FBEC33FCC3E99DEA9EEB9FEC7F
:1009D0009400B3E413F9D002D0E0C44AFAD003D0B3
:1009E000E0C44BFBD004D0E0F5F0540FC44CFCD075
:1009F00082158230F40FD3EC13FCEB13FBEA13FAED
:100A0000E913F90582E930E70A74012AFAE43BFBAD
:100A1000E43CFC020A777901AA82E68F82B5821350
:100A200018E6B5F00E18E6B5830918E68A82B58295
:100A300002790022B4800FE5F0700AE5837006E5C4
:100A40008270027F00EFB6801518B6001018B6004D
:100A50000B18B6000608080876002208080822B914
:100A60008003EA13B34010EA2401FAE43BFBE43CC0
:100A7000FC50047C800582BC000EBB000BBA000851
:100A8000E4F5F0F583F58222A2D1E582138CF09291
:100A9000F78B838A8222E4F583F58275F080F4A2D5
:100AA000D11322E4F583F58275F0C0747F227804B7
:100AB000EC7011E58224F8500AF582E4C9CACBFC37
:100AC000D8EF22EC7820058220E713D5820122C3DB
:100AD000E933F9EA33FAEB33FBEC33FCD8EA15825D
:100AE00022AA82AB83A2F73392D16002D2F7F582B9
:100AF000ACF0E58124F9F8E6FD08E6FE0886F0088A
:100B0000E6A2F73392D56002D2F7F583AFF022FC6C
:100B1000ABF0AA83A982749EC2D1F582120AAE02FA
:100B20000A5FAA827433C0E0740BC0E0C060C06189
:100B30008A82220567E4B56702056822AA827430BA
:100B40002AFA24C6500A74072AFA30020343022004
:100B50008A82020B22E582FAC4540FF582C0021287
:100B60000B3CD002740F5AF582020B3CAA62AB63B5
:100B7000AC64AD65AE66756D20EE2EFEED235401BE
:100B8000FF4206EA2AFAEB33FBEC33FCED33FDC3FC
:100B9000EE95694008EEC39569FE430201D56DD913
:100BA0008A628B638C648D658E6622787EE624D0A3
:100BB00075F00AA4FA787FE624D02AFA787D8603B5
:100BC000BB2D04C3E49AFA756901C3E464808AF01A
:100BD00063F08095F05029756D038A0374F6256DD6
:100BE000401C0569E56D142472F8E56D2472F987DF
:100BF00004A604772E1BEBFA6004056D80DE8B02E1
:100C0000EA30E70D787386037874A6037873762E3E
:100C10000AE56B600AE56B04FB2569F56980053020
:100C20000D02056978728603E4BB2D0104FB700692
:100C30002008033009020569300603020CF2300770
:100C400057EB600C75822DC002120B22D002801C63
:100C500030080C75822BC002120B22D002800D309E
:100C6000090A758220C002120B22D0027873860412
:100C7000BC2E0C758230C002120B22D002156AAC59
:100C80006A156AC3E5699C4003020D36758230C05F
:100C900002120B22D00280E7AC6A156AC3E5699C98
:100CA000500C758220C002120B22D00280EA7872AA
:100CB0008604BC2D0C75822DC002120B22D002803E
:100CC0001C30080C75822BC002120B22D002800D42
:100CD00030090A758220C002120B22D00278738676
:100CE00004BC2E52758230C002120B22D002156A4B
:100CF0008044EB600E75822DC002120B22D00215CB
:100D00006A802030080E75822BC002120B22D0029E
:100D1000156A800F30090C758220C002120B22D098
:100D200002156A78738603BB2E0C758230C00212DE
:100D30000B22D002156A756D01C20FE56D2472F8A1
:100D40008603BB4503020DF3BB2E348A03C3E46460
:100D5000808BF063F08095F0500F758230C00312E5
:100D60000B22D0031B8B0280E48B02D20FE56B7049
:100D700038200D03020DF375822E120B2280743081
:100D80000F278A03EB30E71FC3E46480856BF063B1
:100D9000F08095F0500C758230C003120B22D00306
:100DA000156B0B8B0280DD8B02300F0EC3E4648069
:100DB000856BF063F08095F05021E56D2472F88624
:100DC000038B82C002120B22D002300F0EE56D247D
:100DD00072F88603BB2E028002156B156AC3E464A9
:100DE00080856BF063F08095F04003200F05056D62
:100DF000020D3BC3E46480856BF063F08095F05096
:100E00000A758230120B22156B80E830060FAA6A31
:100E1000156AEA6008758220120B2280F122E56BC8
:100E20007003300D0D7407256BFAE56AC39AF56AF5
:100E30008006E56A24FAF56A756D0078728602BA52
:100E40002B0F20080C78727620200905756D01059E
:100E50006A200619AA6AC3E464808AF063F0809568
:100E6000F0500A758220120B22156A80E7C20FE546
:100E70006D2472F88602BA00028069BA451F3002FA
:100E8000027665C3E46480856BF063F08095F05072
:100E90000A758230120B22156B80E8D20FC3E56D04
:100EA0009402E433FA7014EA700EC3E46480856B34
:100EB000F063F08095F04003300F16E56D2472F872
:100EC00086028A82120B22E56D24FD5012156B807A
:100ED0000E7402B56D09300D0675822E120B2205B7
:100EE0006D020E6F300619AA6AC3E464808AF0634B
:100EF000F08095F0500A758220120B22156A80E767
:100F000022858260858361E4F567F568AA6EAB6F20
:100F1000AC708A828B838CF0120702FD74012AF573
:100F20006EE43BF56F8C70EDFA70030214A7BA25DE
:100F300002800302149FC206C207C208C209C20A85
:100F4000C20BC20CC20DC203C204C2057569007592
:100F50006A00756BFFAB6EAC6FAD708B828C838D4E
:100F6000F0120702FAA3AB82AC838B6E8C6F8D708C
:100F7000BA25078A82120B2280928A06BE30004070
:100F80002E8A06EE24C6402774FFB56B13E56A75FA
:100F9000F00AA4FEEA24D02EF56A70BFD20780BB07
:100FA000E56B75F00AA4FEEA24D02EF56B80ACBA8E
:100FB0002E0A74FFB56BA4756B00809F8A06BE6114
:100FC00000400E8A06EE248540075302DFD20280DD
:100FD00002C202BA20028075BA230302105CBA2A48
:100FE00003021061BA2B02805FBA2D028055BA420B
:100FF00002805FBA43030210A6BA44030211E1BAA9
:1010000045030211FBBA46030211F7BA4703021166
:10101000FFBA49030211E1BA4C02803BBA4E030207
:101020001203BA4F030211E8BA500302117ABA53FD
:10103000030210CABA55030211EDBA58030211F2A5
:1010400002122DD206020F5BD208020F5BD20902F8
:101050000F5BD20B020F5BD20C020F5BD20D020FA3
:101060005B74FFB56B20300B0BE57114F88871864B
:101070006A020F5BE57124FEF88871860608860710
:10108000188E6A020F5B300B0BE57114F8887186BD
:101090006B020F5BE57124FEF888718606088607EF
:1010A000188E6B020F5B300B0AE57114F88871869D
:1010B00002800FE57124FEF8887186030886041803
:1010C0008B028A82120B22021232E57124FDF8880B
:1010D00071860308860408860518188B628C638D58
:1010E000648B828C838DF01215FFAB82AC838B6C8A
:1010F00074FFB56B03856C6B20061DC3E56C956AA8
:101100005016E56AC3956CF56AAB6A156AEB600820
:10111000758220120B2280F185628285638385644B
:10112000F0120702FBFA6029AB6B156BC3E4648015
:101130008BF063F08095F050188A82120B22AB621C
:10114000AC63AD640BBB00010C8B628C638D64805F
:10115000C7200603021232C3E56C956A40030212EF
:1011600032E56AC3956CF56AAB6A156AEB700302E7
:101170001232758220120B2280EEE57124FDF88870
:1011800071860308860408860518188B628C638DA7
:1011900064E564FB30E7047A438013EB5460600439
:1011A0007A50800AEB30E6047A4980027A588A82C3
:1011B000C002120B2275823A120B22758230120B7A
:1011C00022758278120B22D002BA4902800BBA50E3
:1011D000028006856382120B55856282120B558050
:1011E00051D20A75690A804A756908804575690A8D
:1011F0008040756910803BD2038037D2048033D29F
:1012000005802FE57124FDF888718603088604089F
:10121000860518188B628C638D648B828C838DF0AD
:10122000E5671214C3A3E5681214C380058A82120D
:101230000B22200306200403300570E57124FCF81E
:10124000887186030886040886050886061818181B
:101250008B628C638D648E65E562E563E564E565AC
:101260008B828C838DF0EE1214E074FFB56B0375E6
:101270006B06300527747F5565FB8B66E566EB2BA7
:10128000FB8B66E56430E70674014566F566E56646
:1012900024684006749925664002D2043004061280
:1012A0000E1E020F0C120BAB020F0CE5697003024D
:1012B0000F0C7B77300B2BE57114F88871E6FC334B
:1012C00095E0FDFEFF8C628D638E648F65200A5E63
:1012D000AC627D007E007F008C628D638E648F65C2
:1012E000804C300C1FE57124FCF888718604088658
:1012F000050886060886071818188C628D638E64A8
:101300008F65802AE57124FEF888718604088605B9
:1013100018ED3395E0FEFF8C628D638E648F65203F
:101320000A0CAC62AD637E007F008E648F65300D69
:1013300043E56245634564456560397408B5690CE9
:10134000758230C003120B22D00380287410B56957
:1013500023758230C003120B22D00330020C758239
:1013600078C003120B22D003800A758258C0031282
:101370000B22D003300A25AC62AD63AE64E565FF95
:1013800030E717C3E49CFCE49DFDE49EFEE49FFF70
:101390008C628D638E648F658002C20A756C00D288
:1013A0000E8B00756600C000120B6CD000200E0D75
:1013B000E566C4FCE6FD4CF61888038002A66605C7
:1013C0006CB20EE56245634564456570D68803E5F9
:1013D0006A7003756A0120071A200617E56C04FC81
:1013E000C3956A500E758220C003120B22D00315DC
:1013F0006A80E9300A0E75822DC003120B22D003D9
:10140000156A8024E56C602030080E75822BC003BD
:10141000120B22D003156A800F30090C758220C090
:1014200003120B22D003156A20061EAC6A156AC38C
:10143000E56C9C50273007047C3080027C208C8235
:10144000C003120B22D00380E2C3E56C956A5009F9
:10145000E56AC3956CF56A8003756A008B00AB6C16
:10146000156CEB6022B20E200E0A08E6C4540FFB86
:101470008B6680078603740F5BF566856682C00005
:10148000120B3CD00080D7200603020F0CAB6A156C
:101490006AEB7003020F0C758220120B2280EE8A19
:1014A00082120B22020F0C85678285688322AA8232
:1014B000BA0A0810990280FB75990D10990280FBF9
:1014C0008A992220F71030F6118883A88220F50728
:1014D000F6A88375830022F280F7F022758200223D
:1014E000C0E0F84582458345F07009F5F0FBFCFD4E
:1014F000FE0215AEE823A2F792E0F8A982AA83D2F1
:10150000F7ABF07C007E07C3749798404074FF2EC1
:10151000FE740A89F0A4F985F082740A8AF0A4FAAC
:1015200085F083740A8BF0A4FB740529F9EA3582EF
:10153000FAEB3583FB740035F0FCC3EC13FCEB13C2
:10154000FBEA13FAE913F908EC70EF80BAE8C394E8
:101550007FF88B838EF0E4FBFCFDFEFF08C3E933CC
:10156000F9EA33FAE58333F583EB3BD4FBEC3CD467
:10157000FCED3DD4FDEE3ED4FEEF3FD4FF602D05E3
:10158000F074052BD4FBE43CD4FCE43DD4FDE43EF4
:10159000D4FEE43FD4FF758204C3EF13FFEE13FEC5
:1015A000ED13FDEC13FCEB13FBD582EDD8AF787295
:1015B000D0E020E704762B8002762D087906E7C478
:1015C000540F4430F608B90603762E08E7540F444A
:1015D00030F60819B902E7764508E5F020E7047609
:1015E0002B8004762DF4040875F00A844430F60844
:1015F000E5F04430F608E4F690007275F04022AA57
:1016000082AB83ACF07D007E008A828B838CF012EB
:101610000702FFA3AA82AB83EF60070DBD00EA0EAD
:1016200080E78D828E832200000000000000000011
:00000001FF
