:1000000002000E0000000000000000020292758154
:100010007D1219B1E582600302007A780079007AD6
:10002000007B007C007D00EC4D601C88828983E4AD
:1000300093A3A882A9838A828B83F0A3AA82AB832D
:100040001CBCFFE31D80E07582007583007C007D91
:1000500000EC4D600AE4F0A31CBCFFF51D80F275B6
:1000600082007583007C007D00EC4D600AE4F0A303
:100070001CBCFFF51D80F21200EC12049380FE4CB4
:100080003D25352E326620523A25352E3266004CFB
:100090004D3D256420524D3D2564004572726F72BE
:1000A0003A25352E3266204C6566743A25352E3257
:1000B000662052696768743A25352E3266204C6591
:1000C00066745F4D6F746F723A2564205269676879
:1000D000745F4D6F746F723A2564202020202020B9
:1000E000202020202020202020200D00E4F523F5D2
:1000F00024752500752600E4F52AF52BC200C201FF
:10010000D2022275841E7585007591007592007566
:10011000A40075A50075B10075B200227852D8FE12
:1001200022AA82AB837C007D00C3EC9AED9B502217
:100130007E14C002C003C004C005C00612011CD05A
:1001400006D005D004D003D002DEE70CBC00DA0DE7
:1001500080D722D2A512011CC2A5228582E0A2E787
:100160009294A2E69296A2E59297A2E492A0A2E3CC
:1001700092A1A2E292A2A2E192A3A2E092A4020121
:1001800053AA82D2A78A8212015B90000202012147
:10019000AA82C2A78A8212015B900005020121C2D5
:1001A000A5C2A69000141201217582331201907528
:1001B00082331201907582331201907582381201D8
:1001C0009075820C120190758201120190900014BA
:1001D000020121AA82AB83ACF07402B52C047DC06D
:1001E00080027D808D82C002C003C0041201909005
:1001F0000005120121D004D003D0027D00ED2AFEBB
:10020000E43BFF8C008E828F8388F0120B0EFE6021
:10021000188E82C002C003C004C005120181D0053F
:10022000D004D003D0020D80D43003148D02BA1054
:1002300000500D758220C002120181D0020A80EEAA
:10024000227A2879FA78B8D8FED9FADAF62275BD7A
:100250000075BF0075BE3075BD037598527591006D
:100260007592002243841E5385E1D2C675A1207584
:10027000A3F0759705E59730E3FB22C28C74F05527
:10028000894401F589758CFE758A90D28CD2A9D2E9
:10029000AF22C0E0C0D075D000C28C758CFE758ACC
:1002A00090D28C0527E527249C5003752700C3E5D1
:1002B0002795289285C3E5279529928674012523E1
:1002C000F523E43524F5247410B523207427B524D0
:1002D0001BD200E4F523F5240525743CB5250D75E6
:1002E00025000526743CB5260375260030010B74E5
:1002F00001252AF52AE4352BF52BD0D0D0E032C2E7
:100300000085D782120C2DAA82AB83ACF0FDE4C02D
:10031000E0C0E0747FC0E07443C0E08A828B838CCD
:10032000F0ED120D67AA82AB83ACF0FDE58124FCF1
:10033000F581C002C003C004C00590333375F0538B
:100340007440120B8AAA82AB83ACF0FDE58124FCD9
:10035000F58185D682C002C003C004C005120C2DF1
:10036000AE82AF83A8F0F9E4C0E0C0E0747FC0E0E3
:100370007443C0E08E828F8388F0E9120D67AE82ED
:10038000AF83A8F0F9E58124FCF581C006C007C061
:1003900000C00190333375F0537440120B8AAE8263
:1003A000AF83A8F0F9E58124FCF581C006C007C041
:1003B00000C001747FC0E07400C0E07480C0E074CD
:1003C0002DC0E07400C0E07440C0E0120D16E5815D
:1003D00024F2F581752C01D20390002D75F04012A6
:1003E00001D3AA297B00AC287D00C002C003C00451
:1003F000C005748FC0E07400C0E07480C0E0742D4C
:10040000C0E07400C0E07440C0E0120D16E5812425
:10041000F6F581752C02D20390002D75F040020193
:10042000D3E4F52AF52BD20175281475296474D00C
:10043000B52AF57407B52BF0C201E4F52AF52B2295
:10044000E4F52AF52BD20175286475291474D0B50A
:100450002AF57407B52BF0C201E4F52AF52B2275B5
:10046000280075290080F8AA82AB83BA0205BB0078
:10047000028010BA0305BB0002800BBA0414BB0053
:10048000118006120421120440100202800122028F
:10049000045F22E4F542F543F544F545E5D6E5D79A
:1004A000E5F5E4F556F557F558F559755A01E4F5B3
:1004B0005B12010312019F12024E12026412027BB0
:1004C00075460075470075480075490085D682124B
:1004D0000C2DAE82AF83AAF0FBE4C0E0C0E0747FD5
:1004E000C0E07443C0E08E828F838AF0EB120D6708
:1004F000AA82AB83ACF0FDE58124FCF581C002C08B
:1005000003C004C00590333375F0537440120B8A56
:10051000AA82AB83ACF0FDE58124FCF58185D7820E
:10052000C002C003C004C005120C2DAE82AF83A868
:10053000F0F9E4C0E0C0E0747FC0E07443C0E08E36
:10054000828F8388F0E9120D67AE82AF83A8F0F93D
:10055000E58124FCF581C006C007C000C0019033CE
:100560003375F0537440120B8A85824A85834B851C
:10057000F04CF54DE58124FCF58185F582120C2DBA
:10058000AE82AF83A8F0F9E4C0E0C0E0747FC0E0C1
:100590007443C0E08E828F8388F0E9120D67AE82CB
:1005A000AF83A8F0F9E58124FCF581C006C007C03F
:1005B00000C00190333375F0537440120B8A85826A
:1005C0004E85834F85F050F551E58124FCF581D0AF
:1005D00005D004D003D002C002C003C004C005C0CF
:1005E0004AC04BC04CC04D8A828B838CF0ED120DFB
:1005F0005C85825285835385F054F555E58124FC52
:10060000F581D005D004D003D002300013C002C061
:1006100003C004C0051202FFD005D004D003D002ED
:10062000C002C003C004C005C042C043C044C045AE
:1006300090000075F0C87441120B8A85823E858354
:100640003F85F040F541E58124FCF581D005D004DB
:10065000D003D002C002C003C004C005C002C00362
:10066000C004C00590CCCD75F0CC743E120B5AAED0
:1006700082E58124FCF581D005D004D003D002EEC0
:10068000700302072BC002C003C004C0057433C04E
:10069000E0C0E0C0E0743FC0E08A828B838CF0ED64
:1006A000120B5AAE82E58124FCF581D005D004D02E
:1006B00003D002EE6075C002C003C004C005C04A8A
:1006C000C04BC04CC04D90CCCD75F0CC743E120BDD
:1006D0005AAE82E58124FCF581D005D004D003D048
:1006E00002EE6047C002C003C004C0057433C0E01E
:1006F000C0E0C0E0743FC0E0854A82854B83854CF2
:10070000F0E54D120B5AAE82E58124FCF581D0054F
:10071000D004D003D002EE6012754200754300751C
:100720004400754500752864752964C002C003C083
:1007300004C005C052C053C054C055900000E4F539
:10074000F0743F120B5AAE82E58124FCF581D0058E
:10075000D004D003D002EE604C75420075430075A2
:100760004440754540C002C003C004C005C03EC03F
:100770003FC040C04190000075F0C87442120D5C4B
:10078000AE82AF83A8F0F9E58124FCF5818E828FDB
:100790008388F0E9120E86858228D005D004D00324
:1007A000D002752964C002C003C004C005E4C0E0E3
:1007B000C0E0C0E074BFC0E0855282855383855499
:1007C000F0E555120B5AAE82E58124FCF581D00587
:1007D000D004D003D002EE6054754200754300751A
:1007E00044407545C0752864C002C003C004C005FC
:1007F000E4C0E0C0E074C8C0E07442C0E0853E825E
:10080000853F838540F0E541120C38AE82AF83A866
:10081000F0F9E58124FCF5818E828F8388F0E9125E
:100820000E86858229D005D004D003D002C002C034
:1008300003C004C00574CDC0E074CCC0E0C0E07457
:100840003EC0E08A828B838CF0ED120B5AAE82E5BB
:100850008124FCF581D005D004D003D002EE703A9B
:10086000C002C003C004C00574CDC0E074CCC0E0B9
:10087000C0E0743EC0E0854A82854B83854CF0E53C
:100880004D120B5AAE82E58124FCF581D005D004CF
:10089000D003D002EE700302099EC002C003C00460
:1008A000C005E4C0E0C0E0C0E0C0E0854682854706
:1008B000838548F0E549120B2AAE82E58124FCF5D8
:1008C00081D005D004D003D002EE604C7542007593
:1008D00043007544A0754540C002C003C004C00574
:1008E000C03EC03FC040C04190000075F0C8744297
:1008F000120D5CAE82AF83A8F0F9E58124FCF5818E
:100900008E828F8388F0E9120E86858228D005D0EA
:1009100004D003D002752964C002C003C004C0051E
:10092000E4C0E0C0E0C0E0C0E08546828547838542
:1009300048F0E549120B5AAE82E58124FCF581D0DE
:1009400005D004D003D002EE605475420075430018
:100950007544A07545C0752864C002C003C004C0BA
:1009600005E4C0E0C0E074C8C0E07442C0E0853E69
:1009700082853F838540F0E541120C38AE82AF831B
:10098000A8F0F9E58124FCF5818E828F8388F0E957
:10099000120E86858229D005D004D003D00285426C
:1009A00046854347854448854549AE297F00A828A8
:1009B0007900C006C007C000C001C04AC04BC04C8F
:1009C000C04DC002C003C004C005C042C043C04403
:1009D000C045749BC0E07400C0E07480C0E0120C9D
:1009E000A6E58124EDF5817401B55A06E4B55B02F4
:1009F00080267402B55A06E4B55B02804D7403B5D7
:100A00005A07E4B55B03020AA37404B55A07E4B5B8
:100A10005B03020AFC0204CCE4C0E0C0E07420C026
:100A2000E07441C0E0854E82854F838550F0E551EA
:100A3000120B5AAA82E58124FCF581EA60030204C4
:100A4000CC755A02E4F55B0204CCC04EC04FC050D6
:100A5000C051900000E4F5F0120B5AAA82E58124FF
:100A6000FCF581EA70030204CCE4C0E0C0E074A0AD
:100A7000C0E07440C0E0854E82854F838550F0E52C
:100A800051120B5AAA82E58124FCF581EA70030217
:100A900004CC0556E4B556020557755A03E4F55BD8
:100AA0000204CCE4C0E0C0E0C0E0C0E0854E828536
:100AB0004F838550F0E551120B2AAA82E58124FC70
:100AC000F581EA702EC374019556E464808557F071
:100AD00063F08095F0500E855658855759755A0128
:100AE000E4F55B8006755A04E4F55BE4F556F557CA
:100AF0000204CC755A01E4F55B0204CC855882856A
:100B00005983120467755A01E4F55B0204CC20F79F
:100B10001430F6148883A88220F507E6A88375832D
:100B20000022E280F7E49322E022FFA88118181245
:100B30000EACD2D133E6400730E70B75820122209C
:100B4000E70675820022C2D1120E8EE97003F5828B
:100B50002230D101B3E433F58222FFA881181812A4
:100B60000EACD2D133E6400730E70B75820022206D
:100B7000E70675820122C2D1120E8EE97003F5825A
:100B80002220D101B3E433F58222120F59BC0003B5
:100B9000020EF8EF60FA30D502B2D1E583B4FF035C
:100BA000020F0EE582B4FF03020F0E2583400724D7
:100BB00082400B020EF82483145003020F0EF582BC
:100BC000EA8DF0A4A8F0EA8EF0A428F8E435F0F954
:100BD000EB8DF0A428E935F0F9E433CA8FF0A429AD
:100BE000F9EA35F0FAEBF88EF0A429F9EA35F0FAD3
:100BF000E433FBEC8DF0A429F9EA35F0FAE43BFB91
:100C0000E88FF0A42AFAEB35F0FBE433CCFD8EF04C
:100C1000A42AFAEB35F0FBE43CFCED8FF0A42BFBAF
:100C2000EC35F0FC20E703120F26020ED7E4AC826D
:100C3000FBFAF97486020F90120F597900E583B51B
:100C40008202800D5003120F9AE583C39582120F22
:100C5000B4E5D0C465D020E117EA2DFAEB3EFBECF9
:100C60003FFC50097401120FB4EC4480FC020ED713
:100C7000C3EA9DFAEB9EFBEC9FFC500FC3E499F98D
:100C8000E49AFAE49BFBE49CFCB2D1120F26020E1C
:100C9000D702198385826A85836B85F06C85106D18
:100CA000900C910213D6C008858108E50824FBF555
:100CB0006DE50824FBF8866A08866B08866C900C44
:100CC000911213D6D00822AA82AB09AC0AAD0B8BC5
:100CD000828C838DF0EA1219980509E4B5090205A2
:100CE0000A2285820985830A85F00B850C6A850DA9
:100CF0006B850E6C850F6D900CC71213D6AA82AB54
:100D000083AC09AD0AAE0B8C828D838EF0E4121990
:100D1000988A828B8322C008858108E50824F8F52B
:100D20006DE50824FBF8860908860A08860BE508A5
:100D300024F8F8866A08866B08866C900CC7121334
:100D4000D6AA82AB83AC09AD0AAE0B8C828D838EA2
:100D5000F0E41219988A828B83D00822A88118188F
:100D6000C6B2E7C6020C38120F5930D502B2D1BF55
:100D70000009BC0003020F1B020F0EBC0003020E91
:100D8000F8E583B4FF0BE582B4FF03020F1B020EEC
:100D9000F8E582B4FF03020F0EC395835007247F4A
:100DA000400B020EF82480145003020F0EC0E0E442
:100DB000CCCBCAF98D118E128F13EF54F0C4F514F9
:100DC0007583068514F0EB84F582E9C4F9EAC4FA68
:100DD000EBC4FBEC540FC47803D6FC18EBD6FB181D
:100DE000EAD6FA8582F0EDA4A8F0FD8582F0EEA4A3
:100DF00028FEE435F0F88582F0EFA428FFE435F012
:100E0000F8E99DF9EA9EFAEB9FFBEC98FCAD11AE78
:100E100012AF1330E7101582E92DF9EA3EFAEB3FE5
:100E2000FBE43CFC80EDC082D58398C3E933F9EA4A
:100E300033FAEB33FBEC33FCC3E99DEA9EEB9FEC0A
:100E40009400B3E413F9D002D0E0C44AFAD003D03E
:100E5000E0C44BFBD004D0E0F5F0540FC44CFCD000
:100E600082158230F40FD3EC13FCEB13FBEA13FA78
:100E7000E913F90582E930E70A74012AFAE43BFB39
:100E8000E43CFC020EEF7F861219B7F5822279014D
:100E9000AA82E68F82B5821318E6B5F00E18E6B581
:100EA000830918E68A82B58202790022B4800FE5B0
:100EB000F0700AE5837006E58270027F00EFB6806D
:100EC0001518B6001018B6000B18B600060808086A
:100ED00076002208080822B98003EA13B34010EA1A
:100EE0002401FAE43BFBE43CFC50047C800582BC1A
:100EF000000EBB000BBA0008E4F5F0F583F5822282
:100F0000A2D1E582138CF092F78B838A8222E4F5DA
:100F100083F58275F080F4A2D11322E4F583F58283
:100F200075F0C0747F227804EC7011E58224F850CB
:100F30000AF582E4C9CACBFCD8EF22EC78200582FE
:100F400020E713D5820122C3E933F9EA33FAEB3300
:100F5000FBEC33FCD8EA158222AA82AB83A2F733DA
:100F600092D16002D2F7F582ACF0E58124F9F8E67F
:100F7000FD08E6FE0886F008E6A2F73392D5600287
:100F8000D2F7F583AFF022FCABF0AA83A982749E5E
:100F9000C2D1F582120F26020ED7E582C583F582F3
:100FA000A2D133A2D592D11392D5ECCFFCEBCEFBDC
:100FB000EACDFA226040F82582500274FFF582E8FB
:100FC00024F8501ECCCBCAF9E4CC24F85014CBCA78
:100FD000F9E4CB24F8500BCAF9E4CA24F850037999
:100FE000002224086010F8C3EC13FCEB13FBEA1397
:100FF000FAE913F9D8F122AA827408C0E07410C08B
:10100000E0C05CC05D8A82220563E4B563020564CA
:1010100022AA8274302AFA24C6500A74072AFA30A7
:1010200004034302208A82020FF7E582FAC4540FB8
:10103000F582C002121011D002740F5AF58202100C
:1010400011AA5EAB5FAC60AD61AE62756920EE2E39
:10105000FEED235401FF4206EA2AFAEB33FBEC33A0
:10106000FCED33FDC3EE95654008EEC39565FE4388
:101070000201D569D98A5E8B5F8C608D618E622298
:10108000787AE624D075F00AA4FA787BE624D02A90
:10109000FA78798603BB2D04C3E49AFA756501C317
:1010A000E464808AF063F08095F050297569038AC2
:1010B0000374F62569401C0565E56914246EF8E59E
:1010C00069246EF98704A604772E1BEBFA600405E9
:1010D0006980DE8B02EA30E70D786F86037870A6B0
:1010E00003786F762E0AE567600AE56704FB2565DD
:1010F000F5658005300F020565786E8603E4BB2D2B
:101100000104FB7006200A03300B0205653008035A
:101110000211C7300957EB600C75822DC002120F07
:10112000F7D002801C300A0C75822BC002120FF718
:10113000D002800D300B0A758220C002120FF7D04A
:1011400002786F8604BC2E0C758230C002120FF735
:10115000D0021566AC661566C3E5659C40030212B5
:101160000B758230C002120FF7D00280E7AC661513
:1011700066C3E5659C500C758220C002120FF7D043
:101180000280EA786E8604BC2D0C75822DC0021296
:101190000FF7D002801C300A0C75822BC002120F90
:1011A000F7D002800D300B0A758220C002120FF7B3
:1011B000D002786F8604BC2E52758230C002120FA6
:1011C000F7D00215668044EB600E75822DC00212C6
:1011D0000FF7D00215668020300A0E75822BC002F0
:1011E000120FF7D0021566800F300B0C758220C0ED
:1011F00002120FF7D0021566786F8603BB2E0C75AE
:101200008230C002120FF7D0021566756901C21153
:10121000E569246EF88603BB45030212C8BB2E3471
:101220008A03C3E464808BF063F08095F0500F75FF
:101230008230C003120FF7D0031B8B0280E48B02B5
:10124000D211E5677038200F030212C875822E1282
:101250000FF780743011278A03EB30E71FC3E46473
:10126000808567F063F08095F0500C758230C00384
:10127000120FF7D00315670B8B0280DD8B02301144
:101280000EC3E464808567F063F08095F05021E53B
:1012900069246EF886038B82C002120FF7D00230E9
:1012A000110EE569246EF88603BB2E0280021567D5
:1012B0001566C3E464808567F063F08095F04003B1
:1012C0002011050569021210C3E464808567F0638C
:1012D000F08095F0500A758230120FF7156780E89C
:1012E00030080FAA661566EA6008758220120FF7AB
:1012F00080F122E5677003300F0D74072567FAE56A
:1013000066C39AF5668006E56624FAF56675690097
:10131000786E8602BA2B0F200A0C786E7620200B8E
:10132000057569010566200819AA66C3E464808A08
:10133000F063F08095F0500A758220120FF7156661
:1013400080E7C211E569246EF88602BA000280695E
:10135000BA451F3004027665C3E464808567F06394
:10136000F08095F0500A758230120FF7156780E80B
:10137000D211C3E5699402E433FA7014EA700EC323
:10138000E464808567F063F08095F04003301116C7
:10139000E569246EF886028A82120FF7E56924FD5A
:1013A00050121567800E7402B56909300F067582F8
:1013B0002E120FF70569021344300819AA66C3E418
:1013C00064808AF063F08095F0500A758220120FD5
:1013D000F7156680E72285825C85835DE4F563F519
:1013E00064AA6AAB6BAC6C8A828B838CF0120B0E96
:1013F000FD74012AF56AE43BF56B8C6CEDFA700321
:1014000002197CBA25028003021974C208C209C2FB
:101410000AC20BC20CC20DC20EC20FC205C206C266
:10142000077565007566007567FFAB6AAC6BAD6CE0
:101430008B828C838DF0120B0EFAA3AB82AC838B64
:101440006A8C6B8D6CBA25078A82120FF780928A9C
:1014500006BE3000402E8A06EE24C6402774FFB533
:101460006713E56675F00AA4FEEA24D02EF56670CF
:10147000BFD20980BBE56775F00AA4FEEA24D02E2E
:10148000F56780ACBA2E0A74FFB567A47567008053
:101490009F8A06BE6100400E8A06EE2485400753EF
:1014A00002DFD2048002C204BA20028075BA23038C
:1014B000021531BA2A03021536BA2B02805FBA2D03
:1014C000028055BA4202805FBA430302157BBA44D8
:1014D000030216B6BA45030216D0BA46030216CC6A
:1014E000BA47030216D4BA49030216B6BA4C0280B0
:1014F0003BBA4E030216D8BA4F030216BDBA5003C8
:1015000002164FBA530302159FBA55030216C2BA08
:1015100058030216C7021702D208021430D20A0278
:101520001430D20B021430D20D021430D20E021439
:1015300030D20F02143074FFB56720300D0BE56D0B
:1015400014F8886D8666021430E56D24FEF8886D07
:101550008606088607188E66021430300D0BE56D7E
:1015600014F8886D8667021430E56D24FEF8886DE6
:101570008606088607188E67021430300D0AE56D5E
:1015800014F8886D8602800FE56D24FEF8886D865C
:1015900003088604188B028A82120FF7021707E5E8
:1015A0006D24FDF8886D86030886040886051818E2
:1015B0008B5E8C5F8D608B828C838DF0121AFBABFF
:1015C00082AC838B6874FFB5670385686720081D4C
:1015D000C3E56895665016E566C39568F566AB6623
:1015E0001566EB6008758220120FF780F1855E8228
:1015F000855F838560F0120B0EFBFA6029AB6715DF
:1016000067C3E464808BF063F08095F050188A82A1
:10161000120FF7AB5EAC5FAD600BBB00010C8B5ED5
:101620008C5F8D6080C7200803021707C3E56895AB
:10163000664003021707E566C39568F566AB661555
:1016400066EB7003021707758220120FF780EEE534
:101650006D24FDF8886D8603088604088605181831
:101660008B5E8C5F8D60E560FB30E7047A4380130E
:10167000EB546060047A50800AEB30E6047A4980CB
:10168000027A588A82C002120FF775823A120FF757
:10169000758230120FF7758278120FF7D002BA49AF
:1016A00002800BBA50028006855F8212102A855E86
:1016B0008212102A8051D20C75650A804A7565081D
:1016C000804575650A8040756510803BD20580377E
:1016D000D2068033D207802FE56D24FDF8886D8611
:1016E0000308860408860518188B5E8C5F8D608B56
:1016F000828C838DF0E563121998A3E56412199822
:1017000080058A82120FF720050620060330077035
:10171000E56D24FCF8886D860308860408860508B4
:1017200086061818188B5E8C5F8D608E61E55EE50D
:101730005FE560E5618B828C838DF0EE1219DC74BD
:10174000FFB56703756706300727747F5561FB8B0C
:1017500062E562EB2BFB8B62E56030E706740145C6
:1017600062F562E56224684006749925624002D2FF
:10177000063006061212F30213E11210800213E182
:10178000E56570030213E17B73300D2BE56D14F8F2
:10179000886DE6FC3395E0FDFEFF8C5E8D5F8E600C
:1017A0008F61200C5EAC5E7D007E007F008C5E8DC4
:1017B0005F8E608F61804C300E1FE56D24FCF888D1
:1017C0006D86040886050886060886071818188C92
:1017D0005E8D5F8E608F61802AE56D24FEF8886DD6
:1017E000860408860518ED3395E0FEFF8C5E8D5F5C
:1017F0008E608F61200C0CAC5EAD5F7E007F008E32
:10180000608F61300F43E55E455F4560456160393B
:101810007408B5650C758230C003120FF7D00380D1
:10182000287410B56523758230C003120FF7D003FA
:1018300030040C758278C003120FF7D003800A754C
:101840008258C003120FF7D003300C25AC5EAD5F99
:10185000AE60E561FF30E717C3E49CFCE49DFDE466
:101860009EFEE49FFF8C5E8D5F8E608F618002C262
:101870000C756800D2108B00756200C00012104118
:10188000D00020100DE562C4FCE6FD4CF61888037C
:101890008002A6620568B210E55E455F456045615D
:1018A00070D68803E566700375660120091A200862
:1018B00017E56804FCC39566500E758220C00312BC
:1018C0000FF7D003156680E9300C0E75822DC0032A
:1018D000120FF7D00315668024E5686020300A0EE9
:1018E00075822BC003120FF7D0031566800F300BE3
:1018F0000C758220C003120FF7D003156620081E56
:10190000AC661566C3E5689C50273009047C3080BE
:10191000027C208C82C003120FF7D00380E2C3E563
:101920006895665009E566C39568F5668003756637
:10193000008B00AB681568EB6022B21020100A081B
:10194000E6C4540FFB8B6280078603740F5BF5625D
:10195000856282C000121011D00080D720080302D7
:1019600013E1AB661566EB70030213E1758220127A
:101970000FF780EE8A82120FF70213E185638285EA
:10198000648322AA82BA0A0810990280FB75990D15
:1019900010990280FB8A992220F71030F611888373
:1019A000A88220F507F6A88375830022F280F7F05D
:1019B00022758200227F9E121B2330D103020EF873
:1019C000C3EF9582500974FFF5F0F583F582227913
:1019D00000120FB489828A838BF0EC22C0E0F845B4
:1019E00082458345F07009F5F0FBFCFDFE021AAA62
:1019F000E823A2F792E0F8A982AA83D2F7ABF07CA1
:101A0000007E07C3749798404074FF2EFE740A89C5
:101A1000F0A4F985F082740A8AF0A4FA85F0837440
:101A20000A8BF0A4FB740529F9EA3582FAEB3583B9
:101A3000FB740035F0FCC3EC13FCEB13FBEA13FA68
:101A4000E913F908EC70EF80BAE8C3947FF88B8350
:101A50008EF0E4FBFCFDFEFF08C3E933F9EA33FA3C
:101A6000E58333F583EB3BD4FBEC3CD4FCED3DD478
:101A7000FDEE3ED4FEEF3FD4FF602D05F074052B44
:101A8000D4FBE43CD4FCE43DD4FDE43ED4FEE43F8E
:101A9000D4FF758204C3EF13FFEE13FEED13FDECCC
:101AA00013FCEB13FBD582EDD8AF786ED0E020E7C6
:101AB00004762B8002762D087906E7C4540F443053
:101AC000F608B90603762E08E7540F4430F60819D5
:101AD000B902E7764508E5F020E704762B80047626
:101AE0002DF4040875F00A844430F608E5F044301B
:101AF000F608E4F690006E75F04022AA82AB83AC43
:101B0000F07D007E008A828B838CF0120B0EFFA387
:101B1000AA82AB83EF60070DBD00EA0E80E78D82DD
:101B20008E8322AA82AB83A2F73392D16002D2F7CE
:101B3000F582ACF022000000000000000000000070
:00000001FF
