:1000000002000E000000000000000002027975816D
:100010008912194DE582600302007A780079007A2E
:10002000007B007C007D00EC4D601C88828983E4AD
:1000300093A3A882A9838A828B83F0A3AA82AB832D
:100040001CBCFFE31D80E07582007583007C007D91
:1000500000EC4D600AE4F0A31CBCFFF51D80F275B6
:1000600082007583007C007D00EC4D600AE4F0A303
:100070001CBCFFF51D80F21200DC1203E980FE5665
:10008000303A2025342E3266560056313A20253437
:100090002E32665600563D25352E3266002530320A
:1000A000643A25303264004572726F723A25352EFB
:1000B0003266204C6566743A25352E3266205269C8
:1000C0006768743A25352E326620202020202020B3
:1000D000202020202020202020200D00E4F522F5E3
:1000E00023752400752500C2002275841E758500C5
:1000F00075910075920075A40075A50075B1007525
:10010000B200227852D8FE22AA82AB837C007D0006
:10011000C3EC9AED9B50227E14C002C003C004C001
:1001200005C006120103D006D005D004D003D002CA
:10013000DEE70CBC00DA0D80D722D2A5120103C283
:10014000A5228582E0A2E79294A2E69296A2E59289
:1001500097A2E492A0A2E392A1A2E292A2A2E192CB
:10016000A3A2E092A402013AAA82D2A78A82120133
:1001700042900002020108AA82C2A78A82120142AA
:10018000900005020108C2A5C2A690001412010841
:1001900075823312017775823312017775823312BB
:1001A000017775823812017775820C12017775829A
:1001B00001120177900014020108AA82AB83ACF00F
:1001C0007402B529047DC080027D808D82C002C08A
:1001D00003C004120177900005120108D004D00377
:1001E000D0027D00ED2AFEE43BFF8C008E828F83DF
:1001F00088F0120A99FE60188E82C002C003C00403
:10020000C005120168D005D004D003D0020D80D4FF
:100210003001148D02BA1000500D758220C00212F8
:100220000168D0020A80EE227A2879FA78B8D8FEDE
:10023000D9FADAF62275BD0075BF0075BE3075BDFE
:10024000037598527591007592002243841E538560
:10025000E1D2C675A12075A3F0759705E59730E347
:10026000FB22C28C74F055894401F589758CFE75AA
:100270008A90D28CD2A9D2AF22C0E0C0D075D00073
:10028000C28C758CFE758A90D28C0526E526249C3E
:100290005003752600C3E52695279285C3E526956C
:1002A00028928674012522F522E43523F523741063
:1002B000B522207427B5231BD200E4F522F52305CF
:1002C00024743CB5240D7524000525743CB5250324
:1002D000752500D0D0D0E03285D582120BC9AA8214
:1002E000AB83ACF0FDC002C003C004C00590333343
:1002F00075F0537440120B26AA82AB83ACF0FDE577
:100300008124FCF581E4C0E0C0E0747FC0E0744368
:10031000C0E08A828B838CF0ED120D03AA82AB833E
:10032000ACF0FDE58124FCF581C002C003C004C02F
:1003300005747FC0E07400C0E07480C0E0742AC01F
:10034000E07400C0E07440C0E0120CB2E58124F615
:10035000F581752901D20190002A75F0401201BA89
:1003600085D682120BC9AA82AB83ACF0FDC002C055
:1003700003C004C00590333375F0537440120B264C
:10038000AA82AB83ACF0FDE58124FCF581E4C0E0FA
:10039000C0E0747FC0E07443C0E08A828B838CF03D
:1003A000ED120D03AA82AB83ACF0FDE58124FCF5D0
:1003B00081C002C003C004C005748AC0E07400C0DC
:1003C000E07480C0E0742AC0E07400C0E07440C0F3
:1003D000E0120CB2E58124F6F581752902D2019074
:1003E000002A75F0400201BA227A007B007C007D71
:1003F00000755C00755D00755E00755F00C002C031
:1004000003C004C0051200EA12018612023512026E
:100410004B120262D005D004D003D0027550007593
:10042000510075520075530085D682C002C003C0CA
:1004300004C005120BC9AE82AF83A8F0F9E4C0E096
:10044000C0E0747FC0E07443C0E08E828F8388F088
:10045000E9120D03AE82AF83A8F0F9E58124FCF523
:1004600081C006C007C000C00190333375F05374DB
:1004700040120B2685826085836185F062F563E515
:100480008124FCF58185D782120BC9AE82AF83A887
:10049000F0F9E4C0E0C0E0747FC0E07443C0E08ED7
:1004A000828F8388F0E9120D03AE82AF83A8F0F942
:1004B000E58124FCF581C006C007C000C00190336F
:1004C0003375F0537440120B2685826485836585ED
:1004D000F066F567E58124FCF58185D582120BC9AC
:1004E000AE82AF83A8F0F9E4C0E0C0E0747FC0E062
:1004F0007443C0E08E828F8388F0E9120D03AE82D0
:10050000AF83A8F0F9E58124FCF581C006C007C0DF
:1005100000C00190333375F0537440120B26AE8245
:10052000AF83A8F0F9E58124FCF581D005D004D093
:1005300003D0021000030205BFC002C003C004C004
:1005400005C006C007C000C0017495C0E07400C0BB
:10055000E07480C0E0743BC0E07400C0E07440C050
:10056000E0120CB2E58124F6F581752901D20190E3
:10057000003B75F0401201BAAE247F00A825790037
:10058000C006C007C000C001749DC0E07400C0E098
:100590007480C0E0743BC0E07400C0E07440C0E010
:1005A000120CB2E58124F6F581752902D201900082
:1005B0003B75F0401201BAD005D004D003D002C080
:1005C00002C003C004C005E4C0E0C0E0C0E0C0E079
:1005D0008560828561838562F0E563120AB5AE822B
:1005E000E58124FCF581D005D004D003D002EE6073
:1005F0003EC002C003C004C005C006E4C0E0C0E0C5
:10060000C0E0C0E08564828565838566F0E5671299
:100610000AB5AF82E58124FCF581D006D005D0046F
:10062000D003D002EF60087A007B007C007D00EEF2
:10063000603EC002C003C004C005C006E4C0E0C004
:10064000E0C0E0C0E08564828565838566F0E5678B
:10065000120AB5AF82E58124FCF581D006D005D021
:1006600004D003D002EF60087A007B007C807DBF5D
:10067000EE603AC002C003C004C005E4C0E0C0E0C0
:10068000C0E0C0E08564828565838566F0E5671219
:100690000AB5AE82E58124FCF581D005D004D003F3
:1006A000D002EE60087A007B007C807D3FC002C0F3
:1006B00003C004C005E4C0E0C0E0C0E0C0E0856065
:1006C000828561838562F0E563120AF6AE82E58178
:1006D00024FCF581D005D004D003D002EE6075C0B3
:1006E00002C003C004C005E4C0E0C0E0C0E0C0E058
:1006F0008564828565838566F0E567120AF6AE82B9
:10070000E58124FCF581D005D004D003D002EE6051
:1007100043C002C003C004C005E4C0E0C0E0C0E0C4
:10072000C0E08550828551838552F0E553120AB5A9
:10073000AE82E58124FCF581D005D004D003D0023F
:10074000EE60087A007B007CA07D40EE7006FAFB2C
:100750007CA07DC0C002C003C004C005C050C05111
:10076000C052C0538A828B838CF0ED120CF8AE829B
:10077000AF83A8F0F9E58124FCF581746FC0E074C3
:1007800012C0E07483C0E0743AC0E08E828F838828
:10079000F0E9120D03AE82AF83A8F0F9E58124FCE5
:1007A000F581D005D004D003D002C002C003C0043C
:1007B000C005C006C007C000C0018A828B838CF0D0
:1007C000ED120BD485824C85834D85F04EF54FE5B7
:1007D0008124FCF581C04CC04DC04EC04F9000003C
:1007E00075F0C87442120CF885825485835585F0E3
:1007F00056F557E58124FCF581C04CC04DC04EC074
:100800004F90000075F0C87442120BD48582588551
:10081000835985F05AF55BE58124FCF581E4C0E05D
:10082000C0E0C0E0C0E08554828555838556F0E580
:1008300057120AF6AE82E58124FCF581D005D0047A
:10084000D003D002EE600C7554007555007556004B
:10085000755700C002C003C004C005E4C0E0C0E09A
:1008600074C8C0E07442C0E0855882855983855AB7
:10087000F0E55B120AB5AE82E58124FCF581D00576
:10088000D004D003D002EE600C7558007559007585
:100890005AC8755B42C002C003C004C005E4C0E092
:1008A000C0E0C0E0C0E08A828B838CF0ED120AB514
:1008B000AE82E58124FCF581D005D004D003D002BE
:1008C000EE60358554828555838556F0E557C00224
:1008D000C003C004C005120E228582278558828578
:1008E0005983855AF0E55B120E22858228D005D007
:1008F00004D003D0020209CCC002C003C004C0056A
:10090000E4C0E0C0E0C0E0C0E08A828B838CF0ED00
:10091000120AF6AE82E58124FCF581D005D004D020
:1009200003D002EE6034855882855983855AF0E5FC
:100930005BC002C003C004C005120E228582278559
:1009400054828555838556F0E557120E22858228FC
:10095000D005D004D003D0028072C002C003C0040E
:10096000C005E4C0E0C0E0C0E0C0E0855082855131
:10097000838552F0E553120AB5AE82E58124FCF579
:1009800081D005D004D003D002EE600875276475CD
:1009900028148038C002C003C004C005E4C0E0C011
:1009A000E0C0E0C0E08550828551838552F0E55378
:1009B000120AF6AE82E58124FCF581D005D004D080
:1009C00003D002EE6006752864752714C002C003C8
:1009D000C004C005E4C0E0C0E07480C0E0743FC063
:1009E000E0855C82855D83855EF0E55F120BD485D2
:1009F000825C85835D85F05EF55FE58124FCF58191
:100A0000D005D004D003D0028A508B518C528D5324
:100A1000C002C003C004C005E4C0E0C0E074F0C080
:100A2000E07441C0E0855C82855D83855EF0E55FB2
:100A3000120AE5AE82E58124FCF581D005D004D010
:100A400003D002EE7003020428AE287F00A82779A5
:100A500000C002C003C004C005C006C007C000C07B
:100A600001C064C065C066C067C060C061C062C0CC
:100A700063C002C003C004C00574A7C0E07400C016
:100A8000E07480C0E0120C42E58124EDF581D005D0
:100A9000D004D003D00202042820F71430F61488C2
:100AA00083A88220F507E6A88375830022E280F7F9
:100AB000E49322E022FFA8811818120E48D2D13305
:100AC000E6400730E70B7582012220E706758200B9
:100AD00022C2D1120E2AE97003F5822230D101B36D
:100AE000E433F58222FFA8811818120E48120E2A4C
:100AF000E96401F58222FFA8811818120E48D2D1AC
:100B000033E6400730E70B7582002220E706758246
:100B10000122C2D1120E2AE97003F5822220D101EE
:100B2000B3E433F58222120EF5BC0003020E94EFFB
:100B300060FA30D502B2D1E583B4FF03020EAAE514
:100B400082B4FF03020EAA258340072482400B02D1
:100B50000E942483145003020EAAF582EA8DF0A4A9
:100B6000A8F0EA8EF0A428F8E435F0F9EB8DF0A4B3
:100B700028E935F0F9E433CA8FF0A429F9EA35F011
:100B8000FAEBF88EF0A429F9EA35F0FAE433FBEC3D
:100B90008DF0A429F9EA35F0FAE43BFBE88FF0A4E4
:100BA0002AFAEB35F0FBE433CCFD8EF0A42AFAEB05
:100BB00035F0FBE43CFCED8FF0A42BFBEC35F0FCB6
:100BC00020E703120EC2020E73E4AC82FBFAF97442
:100BD00086020F2C120EF57900E583B58202800D96
:100BE0005003120F36E583C39582120F50E5D0C42F
:100BF00065D020E117EA2DFAEB3EFBEC3FFC5009F3
:100C00007401120F50EC4480FC020E73C3EA9DFA8B
:100C1000EB9EFBEC9FFC500FC3E499F9E49AFAE4D5
:100C20009BFBE49CFCB2D1120EC2020E7302191F90
:100C300085827685837785F078851079900C2D02F2
:100C40001372C008858108E50824FBF579E50824BE
:100C5000FBF88676088677088678900C2D1213723A
:100C6000D00822AA82AB09AC0AAD0B8B828C838D93
:100C7000F0EA1219340509E4B50902050A22858251
:100C80000985830A85F00B850C76850D77850E78AE
:100C9000850F79900C63121372AA82AB83AC09ADF5
:100CA0000AAE0B8C828D838EF0E41219348A828B0B
:100CB0008322C008858108E50824F8F579E5082431
:100CC000FBF8860908860A08860BE50824F8F886EA
:100CD00076088677088678900C63121372AA82AB26
:100CE00083AC09AD0AAE0B8C828D838EF0E41219B1
:100CF000348A828B83D00822A8811818C6B2E7C62E
:100D0000020BD4120EF530D502B2D1BF0009BC00DF
:100D100003020EB7020EAABC0003020E94E583B4D0
:100D2000FF0BE582B4FF03020EB7020E94E582B416
:100D3000FF03020EAAC395835007247F400B020EC7
:100D4000942480145003020EAAC0E0E4CCCBCAF96C
:100D50008D118E128F13EF54F0C4F5147583068530
:100D600014F0EB84F582E9C4F9EAC4FAEBC4FBECB5
:100D7000540FC47803D6FC18EBD6FB18EAD6FA85D4
:100D800082F0EDA4A8F0FD8582F0EEA428FEE43503
:100D9000F0F88582F0EFA428FFE435F0F8E99DF93A
:100DA000EA9EFAEB9FFBEC98FCAD11AE12AF13304C
:100DB000E7101582E92DF9EA3EFAEB3FFBE43CFC33
:100DC00080EDC082D58398C3E933F9EA33FAEB3377
:100DD000FBEC33FCC3E99DEA9EEB9FEC9400B3E48B
:100DE00013F9D002D0E0C44AFAD003D0E0C44BFBE0
:100DF000D004D0E0F5F0540FC44CFCD08215823002
:100E0000F40FD3EC13FCEB13FBEA13FAE913F90527
:100E100082E930E70A74012AFAE43BFBE43CFC0275
:100E20000E8B7F86121953F582227901AA82E68FF2
:100E300082B5821318E6B5F00E18E6B5830918E6F8
:100E40008A82B58202790022B4800FE5F0700AE54B
:100E5000837006E58270027F00EFB6801518B60039
:100E60001018B6000B18B60006080808760022080D
:100E7000080822B98003EA13B34010EA2401FAE417
:100E80003BFBE43CFC50047C800582BC000EBB00B4
:100E90000BBA0008E4F5F0F583F58222A2D1E582D1
:100EA000138CF092F78B838A8222E4F583F58275A6
:100EB000F080F4A2D11322E4F583F58275F0C074BA
:100EC0007F227804EC7011E58224F8500AF582E460
:100ED000C9CACBFCD8EF22EC7820058220E713D5D5
:100EE000820122C3E933F9EA33FAEB33FBEC33FC3A
:100EF000D8EA158222AA82AB83A2F73392D160028C
:100F0000D2F7F582ACF0E58124F9F8E6FD08E6FEBB
:100F10000886F008E6A2F73392D56002D2F7F5838F
:100F2000AFF022FCABF0AA83A982749EC2D1F582F5
:100F3000120EC2020E73E582C583F582A2D133A2DE
:100F4000D592D11392D5ECCFFCEBCEFBEACDFA22B1
:100F50006040F82582500274FFF582E824F8501EA4
:100F6000CCCBCAF9E4CC24F85014CBCAF9E4CB2496
:100F7000F8500BCAF9E4CA24F85003790022240877
:100F80006010F8C3EC13FCEB13FBEA13FAE913F956
:100F9000D8F122AA8274A4C0E0740FC0E0C068C077
:100FA000698A8222056FE4B56F02057022AA8274F5
:100FB000302AFA24C6500A74072AFA300203430280
:100FC000208A82020F93E582FAC4540FF582C00290
:100FD000120FADD002740F5AF582020FADAA6AABA0
:100FE0006BAC6CAD6DAE6E757520EE2EFEED2354C0
:100FF00001FF4206EA2AFAEB33FBEC33FCED33FD4A
:10100000C3EE95714008EEC39571FE430201D5759C
:10101000D98A6A8B6B8C6C8D6D8E6E227886E624F5
:10102000D075F00AA4FA7887E624D02AFA78858663
:1010300003BB2D04C3E49AFA757101C3E464808A8A
:10104000F063F08095F050297575038A0374F625D6
:1010500075401C0571E57514247AF8E575247AF954
:101060008704A604772E1BEBFA6004057580DE8BDF
:1010700002EA30E70D787B8603787CA603787B76DE
:101080002E0AE573600AE57304FB2571F57180058E
:10109000300D020571787A8603E4BB2D0104FB70E4
:1010A000062008033009020571300603021163307F
:1010B0000757EB600C75822DC002120F93D002808F
:1010C0001C30080C75822BC002120F93D002800DC9
:1010D00030090A758220C002120F93D002787B86F5
:1010E00004BC2E0C758230C002120F93D002157210
:1010F000AC721572C3E5719C40030211A775823072
:10110000C002120F93D00280E7AC721572C3E57172
:101110009C500C758220C002120F93D00280EA7896
:101120007A8604BC2D0C75822DC002120F93D0025A
:10113000801C30080C75822BC002120F93D00280E5
:101140000D30090A758220C002120F93D002787BFD
:101150008604BC2E52758230C002120F93D0021545
:10116000728044EB600E75822DC002120F93D00284
:101170001572802030080E75822BC002120F93D09A
:10118000021572800F30090C758220C002120F9375
:10119000D0021572787B8603BB2E0C758230C0029C
:1011A000120F93D0021572757501C20FE575247A7E
:1011B000F88603BB4503021264BB2E348A03C3E4E2
:1011C00064808BF063F08095F0500F758230C0031F
:1011D000120F93D0031B8B0280E48B02D20FE573B6
:1011E0007038200D0302126475822E120F938074E2
:1011F000300F278A03EB30E71FC3E464808573F068
:1012000063F08095F0500C758230C003120F93D0BC
:101210000315730B8B0280DD8B02300F0EC3E46469
:10122000808573F063F08095F05021E575247AF89D
:1012300086038B82C002120F93D002300F0EE57529
:10124000247AF88603BB2E02800215731572C3E45C
:1012500064808573F063F08095F04003200F0505EE
:10126000750211ACC3E464808573F063F08095F07F
:10127000500A758230120F93157380E830060FAA5A
:10128000721572EA6008758220120F9380F122E5D0
:10129000737003300D0D74072573FAE572C39AF568
:1012A000728006E57224FAF572757500787A860206
:1012B000BA2B0F20080C787A762020090575750165
:1012C0000572200619AA72C3E464808AF063F08074
:1012D00095F0500A758220120F93157280E7C20FA5
:1012E000E575247AF88602BA00028069BA451F3093
:1012F00002027665C3E464808573F063F08095F044
:10130000500A758230120F93157380E8D20FC3E52F
:10131000759402E433FA7014EA700EC3E4648085B5
:1013200073F063F08095F04003300F16E575247A72
:10133000F886028A82120F93E57524FD5012157308
:10134000800E7402B57509300D0675822E120F934A
:1013500005750212E0300619AA72C3E464808AF0AF
:1013600063F08095F0500A758220120F93157280F9
:10137000E722858268858369E4F56FF570AA76AB0C
:1013800077AC788A828B838CF0120A99FD74012ADB
:10139000F576E43BF5778C78EDFA7003021918BA0C
:1013A00025028003021910C206C207C208C209C280
:1013B0000AC20BC20CC20DC203C204C20575710081
:1013C0007572007573FFAB76AC77AD788B828C83CA
:1013D0008DF0120A99FAA3AB82AC838B768C778D51
:1013E00078BA25078A82120F9380928A06BE30004F
:1013F000402E8A06EE24C6402774FFB57313E572AB
:1014000075F00AA4FEEA24D02EF57270BFD20780D0
:10141000BBE57375F00AA4FEEA24D02EF57380AC08
:10142000BA2E0A74FFB573A4757300809F8A06BE36
:101430006100400E8A06EE248540075302DFD20287
:101440008002C202BA20028075BA23030214CDBA08
:101450002A030214D2BA2B02805FBA2D028055BA39
:101460004202805FBA4303021517BA4403021652C0
:10147000BA450302166CBA4603021668BA4703025D
:101480001670BA4903021652BA4C02803BBA4E0398
:10149000021674BA4F03021659BA50030215EBBA7A
:1014A000530302153BBA550302165EBA58030216DF
:1014B0006302169ED2060213CCD2080213CCD209C4
:1014C0000213CCD20B0213CCD20C0213CCD20D02DD
:1014D00013CC74FFB57320300B0BE57914F88879C1
:1014E00086720213CCE57924FEF888798606088690
:1014F00007188E720213CC300B0BE57914F888793B
:1015000086730213CCE57924FEF88879860608866E
:1015100007188E730213CC300B0AE57914F888791A
:101520008602800FE57924FEF88879860308860410
:10153000188B028A82120F930216A3E57924FDF814
:101540008879860308860408860518188B6A8C6BD0
:101550008D6C8B828C838DF0121A97AB82AC838B4F
:101560007474FFB5730385747320061DC3E5749509
:10157000725016E572C39574F572AB721572EB601A
:1015800008758220120F9380F1856A82856B8385AE
:101590006CF0120A99FBFA6029AB731573C3E4640B
:1015A000808BF063F08095F050188A82120F93AB15
:1015B0006AAC6BAD6C0BBB00010C8B6A8C6B8D6CD9
:1015C00080C72006030216A3C3E574957240030288
:1015D00016A3E572C39574F572AB721572EB7003C6
:1015E0000216A3758220120F9380EEE57924FDF890
:1015F0008879860308860408860518188B6A8C6B20
:101600008D6CE56CFB30E7047A438013EB5460602B
:10161000047A50800AEB30E6047A4980027A588ACC
:1016200082C002120F9375823A120F9375823012A4
:101630000F93758278120F93D002BA4902800BBAC9
:1016400050028006856B82120FC6856A82120FC611
:101650008051D20A75710A804A757108804575718A
:101660000A8040757110803BD2038037D2048033EA
:10167000D205802FE57924FDF88879860308860451
:1016800008860518188B6A8C6B8D6C8B828C838D09
:10169000F0E56F121934A3E57012193480058A82BF
:1016A000120F93200306200403300570E57924FC13
:1016B000F8887986030886040886050886061818BF
:1016C000188B6A8C6B8D6C8E6DE56AE56BE56CE54D
:1016D0006D8B828C838DF0EE12197874FFB57303D5
:1016E000757306300527747F556DFB8B6EE56EEBC9
:1016F0002BFB8B6EE56C30E7067401456EF56EE5ED
:101700006E246840067499256E4002D204300406A7
:1017100012128F02137D12101C02137DE5717003EB
:1017200002137D7B7F300B2BE57914F88879E6FC7A
:101730003395E0FDFEFF8C6A8D6B8E6C8F6D200AF9
:101740005EAC6A7D007E007F008C6A8D6B8E6C8F34
:101750006D804C300C1FE57924FCF88879860408EC
:1017600086050886060886071818188C6A8D6B8E01
:101770006C8F6D802AE57924FEF8887986040886C6
:101780000518ED3395E0FEFF8C6A8D6B8E6C8F6DC6
:10179000200A0CAC6AAD6B7E007F008E6C8F6D30C2
:1017A0000D43E56A456B456C456D60397408B5714C
:1017B0000C758230C003120F93D00380287410B5CB
:1017C0007123758230C003120F93D00330020C7561
:1017D0008278C003120F93D003800A758258C00329
:1017E000120F93D003300A25AC6AAD6BAE6CE56D79
:1017F000FF30E717C3E49CFCE49DFDE49EFEE49FFC
:10180000FF8C6A8D6B8E6C8F6D8002C20A757400BE
:10181000D20E8B00756E00C000120FDDD000200EBE
:101820000DE56EC4FCE6FD4CF61888038002A66E3A
:101830000574B20EE56A456B456C456D70D688033C
:10184000E572700375720120071A200617E574040B
:10185000FCC39572500E758220C003120F93D00303
:10186000157280E9300A0E75822DC003120F93D0D5
:101870000315728024E574602030080E75822BC039
:1018800003120F93D0031572800F30090C7582205C
:10189000C003120F93D003157220061EAC7215728E
:1018A000C3E5749C50273007047C3080027C208C78
:1018B00082C003120F93D00380E2C3E57495725087
:1018C00009E572C39574F57280037572008B00ABE5
:1018D000741574EB6022B20E200E0A08E6C4540F91
:1018E000FB8B6E80078603740F5BF56E856E82C07E
:1018F00000120FADD00080D720060302137DAB721B
:101900001572EB700302137D758220120F9380EE27
:101910008A82120F9302137D856F8285708322AABB
:1019200082BA0A0810990280FB75990D10990280FD
:10193000FB8A992220F71030F6118883A88220F5BF
:1019400007F6A88375830022F280F7F022758200E3
:10195000227F9E121ABF30D103020E94C3EF9582EC
:10196000500974FFF5F0F583F582227900120F50CB
:1019700089828A838BF0EC22C0E0F845824583455A
:10198000F07009F5F0FBFCFDFE021A46E823A2F711
:1019900092E0F8A982AA83D2F7ABF07C007E07C35D
:1019A000749798404074FF2EFE740A89F0A4F9855C
:1019B000F082740A8AF0A4FA85F083740A8BF0A48A
:1019C000FB740529F9EA3582FAEB3583FB7400359F
:1019D000F0FCC3EC13FCEB13FBEA13FAE913F90870
:1019E000EC70EF80BAE8C3947FF88B838EF0E4FB51
:1019F000FCFDFEFF08C3E933F9EA33FAE58333F56A
:101A000083EB3BD4FBEC3CD4FCED3DD4FDEE3ED46B
:101A1000FEEF3FD4FF602D05F074052BD4FBE43CB2
:101A2000D4FCE43DD4FDE43ED4FEE43FD4FF758213
:101A300004C3EF13FFEE13FEED13FDEC13FCEB13E9
:101A4000FBD582EDD8AF787AD0E020E704762B8002
:101A500002762D087906E7C4540F4430F608B9061B
:101A600003762E08E7540F4430F60819B902E776DA
:101A70004508E5F020E704762B8004762DF4040871
:101A800075F00A844430F608E5F04430F608E4F6D0
:101A900090007A75F04022AA82AB83ACF07D007E84
:101AA000008A828B838CF0120A99FFA3AA82AB83EF
:101AB000EF60070DBD00EA0E80E78D828E8322AABB
:101AC00082AB83A2F73392D16002D2F7F582ACF0F9
:101AD00022000000000000000000000000000000E4
:00000001FF
