:1000000002000E22000000000000000200F27581D4
:10001000361207A4E582600302007A780079007A3C
:10002000007B007C007D00EC4D601C88828983E4AD
:1000300093A3A882A9838A828B83F0A3AA82AB832D
:100040001CBCFFE31D80E07582007583007C007D91
:1000500000EC4D600AE4F0A31CBCFFF51D80F275B6
:1000600082007583007C007D00EC4D600AE4F0A303
:100070001CBCFFF51D80F212000312011A80FE481D
:10008000656C6C6F210A0D506C6561736520636847
:1000900065636B2070696E2033202850302E342920
:1000A000207769746820746865206F7363696C6C6D
:1000B0006F73636F7065210A0D003C4E4F20464CF4
:1000C0004F41543E0075BD0075BF0075BE3075BD13
:1000D0000375985275910075920022C28C74F05588
:1000E000894401F589758CFE758A90D28CD2A9D28B
:1000F000AF22C0E0C0D075D000C28C758CFE758A6E
:1001000090D28C0509E509249C5003750900C3E5CC
:1001100009950A9284D0D0D0E0321200C51200DBDB
:10012000750A32747FC0E07400C0E07480C0E012D1
:10013000014E1581158115812202078F8582308538
:10014000833185F032850B339001390201F8C00804
:10015000858108E50824FBF533E50824FBF88630A3
:100160000886310886329001391201F8D00822AA97
:10017000827480C0E07401C0E0C022C0238A822261
:100180000529E4B52902052A22AA8274302AFA2414
:10019000C6500A74072AFA3000034302208A8202FA
:1001A000016FE582FAC4540FF582C002120189D0B2
:1001B00002740F5AF582020189AA24AB25AC26AD40
:1001C00027AE28752F20EE2EFEED235401FF4206A8
:1001D000EA2AFAEB33FBEC33FCED33FDC3EE952B4F
:1001E0004008EEC3952BFE430201D52FD98A248BFC
:1001F000258C268D278E2822858222858323E4F56F
:1002000029F52AAA30AB31AC328A828B838CF0126A
:1002100007A8FD74012AF530E43BF5318C32EDFA84
:100220007003020788BA25028003020780C204C255
:1002300005C206C207C208C209C20AC20BC201C275
:1002400002C203752B00752C00752DFFAB30AC314D
:10025000AD328B828C838DF01207A8FAA3AB82ACEF
:10026000838B308C318D32BA25078A8212016F80E0
:10027000928A06BE3000402E8A06EE24C6402774BD
:10028000FFB52D13E52C75F00AA4FEEA24D02EF557
:100290002C70BFD20580BBE52D75F00AA4FEEA24C0
:1002A000D02EF52D80ACBA2E0A74FFB52DA4752D75
:1002B00000809F8A06BE6100400E8A06EE248540BB
:1002C000075302DFD2008002C200BA20028075BA52
:1002D0002303020353BA2A03020358BA2B02805F96
:1002E000BA2D028055BA4202805FBA430302039DD1
:1002F000BA44030204D8BA45030204F2BA46030220
:1003000004EEBA47030204F6BA49030204D8BA4C11
:1003100002803BBA4E030204FABA4F030204DFBA6A
:100320005003020471BA53030203C1BA5503020415
:10033000E4BA58030204E9020524D204020252D2AC
:1003400006020252D207020252D209020252D20A15
:10035000020252D20B02025274FFB52D2030090B5B
:10036000E53314F88833862C020252E53324FEF874
:1003700088338606088607188E2C02025230090B35
:10038000E53314F88833862D020252E53324FEF853
:1003900088338606088607188E2D02025230090A15
:1003A000E53314F888338602800FE53324FEF8889D
:1003B000338603088604188B028A8212016F0205B5
:1003C00029E53324FDF8883386030886040886056A
:1003D00018188B248C258D268B828C838DF0120728
:1003E000DDAB82AC838B2E74FFB52D03852E2D20C3
:1003F000041DC3E52E952C5016E52CC3952EF52C27
:10040000AB2C152CEB600875822012016F80F185F2
:1004100024828525838526F01207A8FBFA6029AB84
:100420002D152DC3E464808BF063F08095F0501897
:100430008A8212016FAB24AC25AD260BBB00010CE8
:100440008B248C258D2680C7200403020529C3E553
:100450002E952C4003020529E52CC3952EF52CABD7
:100460002C152CEB700302052975822012016F8078
:10047000EEE53324FDF888338603088604088605F4
:1004800018188B248C258D26E526FB30E7047A434B
:100490008013EB546060047A50800AEB30E6047AF3
:1004A0004980027A588A82C00212016F75823A121C
:1004B000016F75823012016F75827812016FD00260
:1004C000BA4902800BBA500280068525821201A229
:1004D0008524821201A28051D208752B0A804A75A8
:1004E0002B088045752B0A8040752B10803BD2016C
:1004F0008037D2028033D203802FE53324FDF88881
:1005000033860308860408860518188B248C258DED
:10051000268B828C838DF0E5291207C4A3E52A126D
:1005200007C480058A8212016F2001062002033071
:10053000035AE53324FCF8883386030886040886CA
:10054000050886061818188B248C258D268E27758D
:1005500024BA7525007526808524348525358526A1
:100560003674012534FEE43535FFAB368E248F25F5
:100570008B268534828535838536F01207A8FBFAF1
:1005800070030202038A8212016F80CCE52B700394
:100590000202037B1230092BE53314F88833E6FCA2
:1005A0003395E0FDFEFF8C248D258E268F272008B5
:1005B0005EAC247D007E007F008C248D258E268FEE
:1005C00027804C300A1FE53324FCF8883386040862
:1005D00086050886060886071818188C248D258E2F
:1005E000268F27802AE53324FEF888338604088680
:1005F0000518ED3395E0FEFF8C248D258E268F2780
:1006000020080CAC24AD257E007F008E268F27307D
:100610000B43E52445254526452760397408B52B4D
:100620000C758230C00312016FD00380287410B59E
:100630002B23758230C00312016FD00330000C757C
:100640008278C00312016FD003800A758258C003FC
:1006500012016FD003300825AC24AD25AE26E52766
:10066000FF30E717C3E49CFCE49DFDE49EFEE49F9D
:10067000FF8C248D258E268F278002C208752E00C0
:10068000D20C8B00752800C0001201B9D000200CDC
:100690000DE528C4FCE6FD4CF61888038002A62868
:1006A000052EB20CE52445254526452770D688033E
:1006B000E52C7003752C0120051A200417E52E0483
:1006C000FCC3952C500E758220C00312016FD0031D
:1006D000152C80E930080E75822DC00312016FD0F1
:1006E00003152C8024E52E602030060E75822BC069
:1006F0000312016FD003152C800F30070C75822078
:10070000C00312016FD003152C20041EAC2C152C35
:10071000C3E52E9C50273005047C3080027C208C61
:1007200082C00312016FD00380E2C3E52E952C50E6
:1007300009E52CC3952EF52C8003752C008B00AB9E
:100740002E152EEB6022B20C200C0A08E6C4540FC2
:10075000FB8B2880078603740F5BF528852882C0F1
:1007600000120189D00080D7200403020203AB2CC1
:10077000152CEB700302020375822012016F80EECC
:100780008A8212016F020203852982852A8322AAA6
:1007900082BA0A0810990280FB75990D109902809F
:1007A000FB8A99227582002220F71430F614888380
:1007B000A88220F507E6A88375830022E280F7E48B
:1007C0009322E02220F71030F6118883A88220F5CA
:1007D00007F6A88375830022F280F7F022AA82AB85
:1007E00083ACF07D007E008A828B838CF01207A898
:1007F000FFA3AA82AB83EF60070DBD00EA0E80E77E
:100800008D828E83220000000000000000000000A6
:00000001FF
