:1000000002000E22000000000000000200F27581D4
:10001000361207A6E582600302007A780079007A3A
:10002000007B007C007D00EC4D601C88828983E4AD
:1000300093A3A882A9838A828B83F0A3AA82AB832D
:100040001CBCFFE31D80E07582007583007C007D91
:1000500000EC4D600AE4F0A31CBCFFF51D80F275B6
:1000600082007583007C007D00EC4D600AE4F0A303
:100070001CBCFFF51D80F212000312011A80FE481D
:10008000656C6C6F210A0D506C6561736520636847
:1000900065636B2070696E2033202850312E36291D
:1000A000207769746820746865206F7363696C6C6D
:1000B0006F73636F7065210A0D003C4E4F20464CF4
:1000C0004F41543E0075BD0075BF0075BE3075BD13
:1000D0000375985275910075920022C28C74F05588
:1000E000894401F589758CFE758A90D28CD2A9D28B
:1000F000AF22C0E0C0D075D000C28C758CFE758A6E
:1001000090D28C0509E509249C5003750900C3E5CC
:1001100009950A9296D0D0D0E0321200C51200DBC9
:10012000750A32747FC0E07400C0E07480C0E012D1
:100130000150158115811581C29722020791858290
:100140003085833185F032850B3390013B0201FA13
:10015000C008858108E50824FBF533E50824FBF891
:10016000863008863108863290013B1201FAD008A9
:1001700022AA827482C0E07401C0E0C022C0238A37
:1001800082220529E4B52902052A22AA8274302A8E
:10019000FA24C6500A74072AFA3000034302208A60
:1001A00082020171E582FAC4540FF582C002120185
:1001B0008BD002740F5AF58202018BAA24AB25ACB6
:1001C00026AD27AE28752F20EE2EFEED235401FF1D
:1001D0004206EA2AFAEB33FBEC33FCED33FDC3EEC7
:1001E000952B4008EEC3952BFE430201D52FD98AEB
:1001F000248B258C268D278E282285822285832399
:10020000E4F529F52AAA30AB31AC328A828B838C93
:10021000F01207AAFD74012AF530E43BF5318C3267
:10022000EDFA700302078ABA25028003020782C230
:1002300004C205C206C207C208C209C20AC20BC272
:1002400001C202C203752B00752C00752DFFAB3067
:10025000AC31AD328B828C838DF01207AAFAA3AB3E
:1002600082AC838B308C318D32BA25078A821201A1
:100270007180928A06BE3000402E8A06EE24C64067
:100280002774FFB52D13E52C75F00AA4FEEA24D0DF
:100290002EF52C70BFD20580BBE52D75F00AA4FEAB
:1002A000EA24D02EF52D80ACBA2E0A74FFB52DA409
:1002B000752D00809F8A06BE6100400E8A06EE24DE
:1002C0008540075302DFD2008002C200BA200280BC
:1002D00075BA2303020355BA2A0302035ABA2B0242
:1002E000805FBA2D028055BA4202805FBA43030292
:1002F000039FBA44030204DABA45030204F4BA467F
:10030000030204F0BA47030204F8BA49030204DA0C
:10031000BA4C02803BBA4E030204FCBA4F030204FB
:10032000E1BA5003020473BA53030203C3BA55037C
:100330000204E6BA58030204EB020526D2040202C4
:1003400054D206020254D207020254D209020254C5
:10035000D20A020254D20B02025474FFB52D20308F
:10036000090BE53314F88833862C020254E5332454
:10037000FEF888338606088607188E2C0202543051
:10038000090BE53314F88833862D020254E5332433
:10039000FEF888338606088607188E2D0202543030
:1003A000090AE53314F888338602800FE53324FE0A
:1003B000F888338603088604188B028A821201713A
:1003C00002052BE53324FDF88833860308860408EC
:1003D000860518188B248C258D268B828C838DF0B6
:1003E0001207DFAB82AC838B2E74FFB52D03852EF5
:1003F0002D20041DC3E52E952C5016E52CC3952EFB
:10040000F52CAB2C152CEB60087582201201718045
:10041000F18524828525838526F01207AAFBFA60E0
:1004200029AB2D152DC3E464808BF063F08095F02B
:1004300050188A82120171AB24AC25AD260BBB008B
:10044000010C8B248C258D2680C720040302052BEC
:10045000C3E52E952C400302052BE52CC3952EF504
:100460002CAB2C152CEB700302052B75822012018E
:100470007180EEE53324FDF888338603088604088E
:10048000860518188B248C258D26E526FB30E7047D
:100490007A438013EB546060047A50800AEB30E6B4
:1004A000047A4980027A588A82C0021201717582E8
:1004B0003A120171758230120171758278120171E0
:1004C000D002BA4902800BBA5002800685258212FA
:1004D00001A48524821201A48051D208752B0A80C0
:1004E0004A752B088045752B0A8040752B10803B80
:1004F000D2018037D2028033D203802FE53324FD2E
:10050000F88833860308860408860518188B248C1F
:10051000258D268B828C838DF0E5291207C6A3E5F5
:100520002A1207C680058A82120171200106200264
:100530000330035AE53324FCF88833860308860425
:100540000886050886061818188B248C258D268E9B
:10055000277524BA752500752680852434852535B0
:1005600085263674012534FEE43535FFAB368E24FE
:100570008F258B268534828535838536F01207AA30
:10058000FBFA70030202058A8212017180CCE52B0E
:1005900070030202057B1230092BE53314F888330F
:1005A000E6FC3395E0FDFEFF8C248D258E268F27FB
:1005B00020085EAC247D007E007F008C248D258E7B
:1005C000268F27804C300A1FE53324FCF8883386B9
:1005D000040886050886060886071818188C248DD6
:1005E000258E268F27802AE53324FEF8883386045B
:1005F00008860518ED3395E0FEFF8C248D258E26A8
:100600008F2720080CAC24AD257E007F008E268F1E
:1006100027300B43E52445254526452760397408D6
:10062000B52B0C758230C003120171D00380287481
:1006300010B52B23758230C003120171D003300036
:100640000C758278C003120171D003800A7582583C
:10065000C003120171D003300825AC24AD25AE26AD
:10066000E527FF30E717C3E49CFCE49DFDE49EFE14
:10067000E49FFF8C248D258E268F278002C208756B
:100680002E00D20C8B00752800C0001201BBD000D8
:10069000200C0DE528C4FCE6FD4CF618880380020A
:1006A000A628052EB20CE52445254526452770D6FB
:1006B0008803E52C7003752C0120051A200417E52A
:1006C0002E04FCC3952C500E758220C003120171BC
:1006D000D003152C80E930080E75822DC00312015D
:1006E00071D003152C8024E52E602030060E758213
:1006F0002BC003120171D003152C800F30070C752D
:100700008220C003120171D003152C20041EAC2CD2
:10071000152CC3E52E9C50273005047C3080027CCC
:10072000208C82C003120171D00380E2C3E52E95B4
:100730002C5009E52CC3952EF52C8003752C008BCD
:1007400000AB2E152EEB6022B20C200C0A08E6C47A
:10075000540FFB8B2880078603740F5BF5288528D0
:1007600082C00012018BD00080D720040302020552
:10077000AB2C152CEB70030202057582201201715F
:1007800080EE8A82120171020205852982852A8300
:1007900022AA82BA0A0810990280FB75990D109955
:1007A0000280FB8A99227582002220F71430F61409
:1007B0008883A88220F507E6A88375830022E2805B
:1007C000F7E49322E02220F71030F6118883A88204
:1007D00020F507F6A88375830022F280F7F022AA9D
:1007E00082AB83ACF07D007E008A828B838CF0121A
:1007F00007AAFFA3AA82AB83EF60070DBD00EA0E34
:1008000080E78D828E83220000000000000000003F
:00000001FF
